:020000040800F2
:10000000D01F0020990100083B1E0008351A000887
:10001000391E0008F1050008412500080000000015
:1000200000000000000000000000000001010008C6
:10003000F3050008000000004501000869200008E1
:10004000B3010008B3010008B3010008B3010008C0
:10005000B3010008B3010008B3010008B3010008B0
:10006000B3010008B3010008B3010008B3010008A0
:10007000B3010008B3010008B3010008B301000890
:10008000B3010008B3010008B3010008B301000880
:10009000B3010008B3010008B3010008B301000870
:1000A000B3010008B3010008B3010008B301000860
:1000B000B3010008B3010008B3010008B301000850
:1000C000B3010008B3010008B3010008B301000840
:1000D000B301000835250008B3010008B30100088A
:1000E000B3010008B3010008B3010008DFF80CD029
:1000F00000F06CFA0048004711270008D01F0020CC
:10010000224B19680868B0E8F00F80F30988BFF344
:100110006F8F4FF0000080F311884EF00D0E704786
:100120000000000006480068006880F3088862B696
:1001300061B6BFF34F8FBFF36F8F00DF00BF00BF0B
:1001400008ED00E0EFF30980BFF36F8F0F4B1A68E3
:1001500020E9F00F106008B54FF0500080F31188CF
:10016000BFF34F8FBFF36F8F03F0E0FA4FF0000043
:1001700080F31188BDE8084019680868B0E8F00FFE
:1001800080F30988BFF36F8F704700BF2400002001
:10019000EFF3058070470000064880470648004797
:1001A000FEE7FEE7FEE7FEE7FEE7FEE7FEE7FEE727
:1001B000FEE7FEE7DF200008ED000008202A04DB50
:1001C000203A21FA02F00021704721FA02F3D040D0
:1001D000C2F12002914008431946704740EA0103EA
:1001E0009B0703D009E008C9121F08C0042AFAD2ED
:1001F00003E011F8013B00F8013B521EF9D27047B1
:10020000D2B201E000F8012B491EFBD27047002258
:10021000F6E710B513460A4604461946FFF7F0FF05
:10022000204610BD2DE9FE4F804681EA0300C00F35
:100230000C46009021F0004123F00045B8EB02008D
:10024000A94105D24046214690461C460B4602462F
:1002500023F00040104347D0270DC7F30A00C3F333
:100260000A510290401A019040286BDAC3F3130040
:1002700040F4801B0098924620B10023D2EB030A81
:1002800063EB0B0B01985946C0F14002504600F059
:100290001EF906460D4650465946019A00F026F9C9
:1002A00010EB08006141002487EA115284EAE773E9
:1002B0001A4340D0009A62B3019A012A4FEA0752CA
:1002C00015DC001B61EB02014FF0004202EA07520D
:1002D000CDE90042001C41F5801132462B4600F06A
:1002E00026F903B0BDE8F08F40462146F9E7001B30
:1002F00061EB0201001C41F5801300185B412018DE
:10030000A2F5001747EB030140EAD570B6196D411D
:1003100011E06D084FEA360645EAC0754FEA07520C
:10032000001B61EB0201001C41F5801149084FEAF6
:1003300030000019514132462B4603B0BDE8F04F62
:1003400000F0E6B80098012240000023D0EB020242
:1003500063EBE073009821464FEAE074B8EB0000CD
:1003600061EB0401E9E783F000435BE781F00041C2
:1003700058E72DE9FE4F81EA030404F0004421F020
:10038000004100944FF0000B23F0004350EA0104B9
:100390005ED052EA03045BD0C3F30A54C1F30A559A
:1003A0002C44A4F2F3340194A0FB0254C1F31301D2
:1003B00041F48011C3F3130343F4801301FB02449F
:1003C00000FB034E840A970A44EA815447EA8357A4
:1003D000A4FB076802958D0A05FB07854FEA932C5D
:1003E00004FB0C542705029D4FEA065847EA1637CE
:1003F000B5EB08056EEB070C870E920E47EA8117E6
:1004000042EA8312A7FB0201B6EB0B0164EB000486
:100410002B0D43EA0C335E1844EB1C50DA46514670
:10042000E7FB0201C5F313044FEA0B3343EA14530D
:100430004FEA0432019C43EA0603A4F10C0402943F
:10044000009CCDE900B400F072F803B0BDE8F08F75
:1004500000200146F9E70EB540F233410291002138
:10046000CDE900110A460B4600F061F803B000BD6B
:10047000C1F30A5210B5C1F3130140F2FF3341F446
:1004800080119A4201DA002010BD40F233439A42B3
:10049000A2F2334203DC5242FFF790FE10BD9040BF
:1004A00010BD30B50B46014600202022012409E092
:1004B00021FA02F59D4205D303FA02F5491B04FA1D
:1004C00002F52844151EA2F10102F1DC30BD202AFC
:1004D00004DB203A00FA02F1002070479140C2F19B
:1004E000200320FA03F3194390407047202A06DBCB
:1004F000CB17203A41FA02F043EAE07306E041FAF2
:1005000002F3D040C2F120029140084319467047DF
:1005100010B5141E73F1000408DA401C41F100010B
:1005200092185B411A4301D120F0010010BD2DE962
:10053000F04D92469B4611B1B1FA81F202E0B0FA59
:1005400080F220329046FFF7C2FF04460F4640EA91
:100550000A0041EA0B0153465A46084313D011469C
:1005600053EA010019D0C8F140025046FFF726FEB9
:1005700005460E46504659464246FFF7A8FF084337
:1005800005D0012004E020463946BDE8F08D00206A
:10059000054346EAE0762C4337430A986305E40AAC
:1005A000A0EB08000022FD0A44EA47540A3002D5B5
:1005B00000200146E9E7010510196941DDE9084518
:1005C00000196941BDE8F04DA2E70000064C074D57
:1005D00006E0E06840F0010394E807009847103413
:1005E000AC42F6D3FFF786FDDC440008FC4400086B
:1005F000FEE7704772B6FEE710B5040002D06079DE
:1006000010B106E0012010BD00202071204600F04E
:1006100005F801206071002010BD000008B50068D9
:100620000649884208D10648416941F040014161CC
:10063000406900F04000009008BD0000003002401A
:100640000010024010B590F821100022022905D0B8
:100650000421816380F82020012010BD01680B680F
:1006600023F00E030B6001680B6823F001030B609D
:1006700090F84030C46B012101FA03F3636080F805
:10068000211080F82020104610BD000010B590F811
:1006900021100024022903D00421816301243DE0BC
:1006A00001680A6822F00E020A6001680A6822F0F6
:1006B00001020A601A4A0168914201D1012121E038
:1006C000174A1432914201D110211BE0144A2832FA
:1006D000914201D1891515E0114A3C32914201D174
:1006E00089140FE00E4A5032914202D14FF480310A
:1006F00008E00B4A6432914202D14FF4801101E0CC
:100700004FF08071064A083A5160012180F82110AB
:10071000002180F82010416B01B18847204610BDB0
:10072000080002402DE9F84FDFF8B8910024A9F144
:10073000040B23460F2709F1040AABF1040EC9E0AC
:100740000125A5402A40AA427DD1674ED1F804C0B8
:10075000ACEB0608B44532D014DCBCF1030F3AD040
:1007600009DCBCF1000F2AD0BCF1010F1CD0BCF198
:10077000020F31D11DE0BCF1110F17D0BCF1120FE7
:100780002AD119E0B8F5881F19D006DCB8F5803FEA
:1007900015D0B8F5801F1FD111E0B8F5001F0ED09D
:1007A000B8F5041F18D10AE0CB6815E0CB681B1D13
:1007B00012E0CB6808330FE0CB680C330CE08B6899
:1007C0002BB1012B4FF0080303D0456104E0042353
:1007D00002E0056100E00023FF2A01D8064601E09F
:1007E00000F104064FEA840501D9A5F12005D6F8E9
:1007F000008007FA05FC28EA0C0803FA05F548EA28
:100800000508C6F800804D68ED0062D5374DAE6929
:1008100046F00106AE61AD6924F0030605F001055E
:100820000095334D06EB050CDCF80850A607360F93
:1008300007FA06F825EA0805DFF8B880404503D135
:100840004FF0000817E044E0DFF8AC80404502D1EB
:100850004FF001080FE0DFF8A480404502D14FF0CF
:10086000020808E0DFF89880404502D14FF0030805
:1008700001E04FF0040808FA06F848EA0508CCF849
:1008800008804D68D9F80060ED024D4601D5164349
:1008900000E096432E604D68DAF80060AD025546E0
:1008A00001D5164300E096432E604D68DBF80060EA
:1008B000AD035D4601D5164300E096432E604D68BA
:1008C000DEF80060ED03754601D5164300E096435F
:1008D0002E60641C0D682A46E5407FF431AFBDE808
:1008E000F88F0000080401400000111000100240C1
:1008F0000000014000080140000C014000100140D0
:1009000000140140C26821EA02030A4043EA02419E
:10091000016170470AB1016170470904FBE70000FB
:1009200001488068704700001400002070B5040082
:1009300025D094F83D00002520B984F83C5020468D
:1009400000F0B8F8242084F83D002068016821F008
:10095000010101602068016841F4004101602068E4
:10096000016821F40041016000F008FA4D4A616815
:10097000914201D84C4900E04C49884201D2012003
:1009800070BD4B492368B0FBF1F15E6826F03F066D
:100990000E435E606368934206D94FF496735943E1
:1009A0004FF47A73B1FBF3F12368491C1E6A26F0F9
:1009B0003F06314319626168914210D84900401ED8
:1009C000B0FBF1F2521CC2F30B02042A01D2042044
:1009D00022E0B0FBF1F0401CC0F30B001CE0A26869
:1009E000F2B301EBC10303EB0116431EB3FBF6F3B5
:1009F0005B1C43F480431B0549D092B301EBC10259
:100A000002EB0111401EB0FBF1F0401CC0F30B00E3
:100A100040F4804040F400402168CA694CF6FF73FE
:100A20009A431043C861D4E9071001432068026863
:100A300022F0C00211430160D4E9030101432068A0
:100A4000826848F2FF339A4311438160D4E905017B
:100A500008432168CA6822F0FF021043C86001E021
:100A60000EE016E02068016841F001010160256494
:100A7000202084F83D00256384F83E50002070BD9E
:100A800001EB4106431EB3FBF6F35B1CB3E7012009
:100A9000C2E701EB4101401EB0FBF1F0401CC0F386
:100AA0000B00B7E7A086010080841E0000093D000E
:100AB00040420F0010B586B00021009101910291D3
:100AC00003910068104988421BD1104CA06940F086
:100AD0000800A061A069694600F0080004904FF486
:100AE0004060009012200190032003900848FFF717
:100AF00019FEE06940F48000E061E06900F48000E4
:100B0000049006B010BD00000058004000100240E4
:100B1000000C0140024881680278114481607047EE
:100B200014000020074810B5016841F01001016071
:100B3000032000F07BF80F2000F006F800F024F806
:100B4000002010BD0020024070B50D4D04464FF44A
:100B50007A712878B1FBF0F00A490968B1FBF0F02E
:100B600000F09AFB48B9102C07D200222146501EF3
:100B700000F03CF800206C6070BD012070BD0000EA
:100B800014000020200000200F4808B5816941F0C2
:100B900001018161816901F001010091C16941F0A8
:100BA0008051C161C069002200F0805000900F2187
:100BB000901E00F01BF80548416821F0E06141F00B
:100BC0000071416008BD00000010024000000140BB
:100BD000002809DB00F01F0201219140400980003C
:100BE00000F1E020C0F8001170470000F0B40E4B97
:100BF0001B680C46C3F30223C3F10705042D00D97B
:100C00000425191D072901D2002300E0DB1E01265F
:100C100006FA05F1491E214099409E40761E164075
:100C20003143F0BC01F09EBC0CED00E0064900F041
:100C3000070208684FF6FF03184040EA0220034A03
:100C400010430860704700000CED00E00000FA055A
:100C50002DE9F0470F46050061D0434E306800F0A3
:100C60000700B84209D2306820F0070038433060EE
:100C7000306800F00700B84251D128683B4C81072A
:100C800012D5400703D5606840F4E06060602878C2
:100C9000000703D5606840F4605060606068A96830
:100CA00020F0F000084360602878C00728D068680A
:100CB000012810D02168022810D0890700292EDAD7
:100CC000616821F0030101436160FFF729FE80465E
:100CD00041F288390DE021688903EFE78901EDE7EA
:100CE000FFF71EFEA0EB0801494502D90320BDE82D
:100CF000F0876068696800F00C00B0EB810FEFD1FD
:100D0000306800F00700B8420BD9306820F00700C7
:100D100038433060306800F00700B84201D001204D
:100D2000E5E72878400705D56068E96820F4E060C9
:100D3000084360602878000706D56068296920F4B8
:100D4000605040EAC100606000F038F86168084A0D
:100D5000C1F30311515CC8400649086006480068A9
:100D6000FFF7F2FE0020C2E7002002400010024020
:100D7000964400082000002018000020044805497F
:100D800000684968044AC1F30221515CC8407047B9
:100D90002000002000100240A64400080448054935
:100DA00000684968044AC1F3C221515CC8407047D9
:100DB0002000002000100240A64400080E4A51689E
:100DC0000E4801F00C03042B11D0082B0FD10C4856
:100DD000C1F38343C903C05C0AD55168084AC1F313
:100DE0004041921E515C054A5043B0FBF1F0704700
:100DF00004494843704700000010024000127A0086
:100E00008644000800093D002DE9F84F040070D029
:100E10002078C04DC00749D06868C0F38100012820
:100E200007D06868C0F38100022809D16868C00350
:100E300006D52868800339D560680028E7D035E0FA
:100E40006068B0F5803F0BD010B1B0F5A02F11D085
:100E5000286820F480302860286820F4802002E090
:100E6000286840F480302860606890B1FFF758FD32
:100E700006460AE0286840F480202860F0E700BFBA
:100E8000FFF74EFD801B642873D828688003F7D5D0
:100E90000CE0FFF745FD064605E000BFFFF740FD0B
:100EA000801B6428F0D828688003F7D420789A4EF5
:100EB00080074FF001094FF0000839D5686810F03D
:100EC0000C0F07D06868C0F38100022809D1686858
:100ED000C00306D42868800714D52069012808D1EA
:100EE00010E02069B0B1C6F80090FFF719FD074681
:100EF00005E00AE1FFF714FDC01B0228C4D82868EA
:100F00008007F7D52868616920F0F80040EAC10041
:100F100028600DE0C6F80080FFF702FD074604E0F8
:100F2000FFF7FEFCC01B022823D828688007F7D4EF
:100F3000207800072CD57948A169D9B1C0F8009074
:100F4000FFF7EEFC074604E0FFF7EAFCC01B0228AF
:100F50000FD8686A8007F7D571484FF4FA510068D6
:100F6000B0FBF1F0009000BF0098411E0091FAD252
:100F70000EE080E0C0F80080FFF7D2FC074604E0F6
:100F8000FFF7CEFCC01B022875D8686A8007F7D42B
:100F90002078400760D5E8690027C00008D4E869D8
:100FA00040F08050E861E869012700F0805000902F
:100FB0005C480168C90513D40168834641F4807117
:100FC0000160FFF7ADFC824606E000BFFFF7A8FC1A
:100FD000A0EB0A0064284ED8DBF80000C005F5D568
:100FE000E06801280AD008B1052813D0286A20F04B
:100FF00001002862286A20F0040002E0286A40F01C
:1010000001002862E06841F2883B98B1FFF788FC54
:1010100082460BE0286A40F004002862EEE700BF39
:10102000FFF77EFCA0EB0A0159455AD8286A8007D1
:10103000F6D50CE0FFF774FC824605E0FFF770FC84
:10104000A0EB0A0159454CD8286A8007F6D41FB195
:10105000E86920F08050E861E06988B36968C1F30D
:101060008101022944D00228C6F8608004D0FFF72D
:1010700057FC044638E034E0FFF752FC074604E032
:10108000FFF74EFCC01B02282BD828688001F7D43C
:10109000206AB0F5803F05D16868A16820F400306F
:1010A00008436860D4E908010843696821F47411B1
:1010B00008436860C6F86090FFF732FC044606E01B
:1010C00025E000BFFFF72CFC001B022809D8286888
:1010D0008001F7D51BE000BFFFF722FC001B0228B0
:1010E00002D90320BDE8F88F28688001F4D40EE00F
:1010F0000128F7D06868226A00F48031914204D157
:10110000616A00F47010884201D00120EAE70020F3
:10111000E8E7000000100240000042428004424222
:10112000200000200070004070B5040009D0606A03
:10113000002540B125616561A56294F8510040B178
:101140000CE0012070BD6068B0F5827FF4D0E561ED
:10115000F2E784F85050204600F040F8022084F86E
:1011600051002068016821F040010160A0882189B8
:1011700000F4827001F404410843A18901F4006184
:101180000843217C01F002010843217D01F00101A7
:101190000843218B01F400710843217F01F03801DD
:1011A000084394F8201001F080010843218D01F4D8
:1011B0000051084321680860A069042101EA104039
:1011C000216848602068C16921F40061C1616565DA
:1011D000012084F85100002070BD000070B586B079
:1011E00000240094019402940394264E0568264935
:1011F000022203232548B5421FD18C6944F4805450
:101200008C618C6904F4805404948C6944F0080463
:101210008C618969039301F0080104912821CDE9CB
:1012200000126946FFF77EFA1948416841F0E06113
:1012300041F00101416006B070BD164EB542FAD1D1
:10124000CD6945F48045CD61CD6905F480450495AF
:101250008D6945F008058D618969039301F00801E6
:1012600004914FF42041CDE9001269460546FFF78D
:1012700059FA3014CDE90004694628460294FFF774
:1012800051FAD8E70030014000100240000C014044
:10129000000001400038004010B5401EB0F1807FD2
:1012A00001D3012010BD4FF0E02460610F216017D1
:1012B00001F058F90020A06107202061002010BD36
:1012C00070B590F83C20012A26D0012480F83C40DB
:1012D000022280F83D2003685A689D6822F070065B
:1012E0000A6832435A600D4B02689A4208D0B2F144
:1012F000804F05D00A4B9A4202D00A4B9A4204D141
:10130000496825F080031943916080F83D40002131
:1013100080F83C10084670BD022070BD002C0140D2
:10132000000400400008004030B585B00021009165
:10133000019102910391006824490224244AB0F1EA
:10134000804F1DD0234B244D98422BD1886940F00B
:1013500004008861886900F004000490886940F006
:10136000080088618869694600F008000490C02080
:10137000CDE9000410460394FFF7D4F903201EE0E2
:10138000886940F0040088618869694600F00400BB
:1013900004900F20CDE9000410460394FFF7C2F932
:1013A00005B030BD0D4A9042FAD1886940F008007E
:1013B0008861886900F0080004904FF47070CDE9EE
:1013C0000004694628460394E8E700000010024044
:1013D0000008014000040040000C014000080040EB
:1013E00070B5044690F83C0000260D4601280FD049
:1013F000012084F83C006AB1042A1DD0082A2FD0AD
:101400000C2A3FD00126002084F83C00304670BDF5
:10141000022070BD206800F0A7FE2068816941F0BD
:10142000080181612068816921F0040181612068DF
:1014300081692A69114311E0206800F0BDFE20682F
:10144000816941F4006181612068816921F48061D2
:101450008161206881692A6941EA02218161D2E7BC
:10146000206800F0D5FE2068C16941F00801C16123
:101470002068C16921F00401C1612068C1692A693D
:10148000114311E0206800F0EFFE2068C16941F4CB
:101490000061C1612068C16921F48061C161206877
:1014A000C1692A6941EA0221C161ACE710B50400B3
:1014B00003D094F83D0010B107E0012010BD0020DA
:1014C00084F83C00204600F01FF8022084F83D001C
:1014D000211D206800F004FE012084F8460084F8F5
:1014E0003E0084F83F0084F8400084F8410084F80E
:1014F000420084F8430084F8440084F8450084F8EE
:101500003D00002010BD000008B501681148B1F190
:10151000804F0BD0104A914210D1C16941F00201B5
:10152000C161C06900F00200009008BDC16941F0CE
:101530000101C161C06900F00100F5E7074A91426D
:10154000F3D1C16941F00401C161C06900F0040038
:10155000EAE70000001002400004004000080040DC
:1015600010B50446022249B104290ED0082913D02F
:1015700094F84100012816D0012010BD94F83E00D7
:101580000128F9D184F83E200FE094F83F000128AB
:10159000F2D184F83F2008E094F840000128EBD114
:1015A00084F8402001E084F841200122206800F006
:1015B000CDFD0F492068884203D1426C42F40042BD
:1015C00042642068884208D0B0F1804F05D00949B4
:1015D000884202D00849884204D1816801F007019D
:1015E000062903D0016841F001010160002010BD0F
:1015F000002C014000040040000800407047704784
:10160000F8B5016804460868CA684B6910F00F0F06
:101610004FF0000559D003F0010602F490773743EC
:1016200065D0C10705D0D10503D5616C41F001013A
:101630006164410705D5D90703D0616C41F002010F
:101640006164810705D5D90703D0616C41F00401BD
:101650006164010707D502F02001314303D0616CBA
:1016600041F008016164616C00293AD0800604D51C
:10167000900602D5204600F048FE20684069616C63
:10168000C0F38010090700D460B3204600F016FEB6
:1016900020684069400621D52068143050E8001FBA
:1016A00021F0400140E80012002AF5D1E06BA8B11A
:1016B0006D494163E06BFEF7E9FF002811D0E06B54
:1016C000416B01B0BDE8F040084783060FD5930693
:1016D0000DD52046BDE8F84000F017BE2046FFF7C4
:1016E0008EFFF8BD2046FFF78AFF6564F8BD266BC4
:1016F0002023012E7CD1C6067AD5D60678D5086877
:101700004868009048694FF00206400640D5E16BFA
:10171000086840680004000CE8D0A28D8242E5D938
:10172000E085886920282DD020680C3050E8001F03
:1017300021F4807140E80012002AF5D120681430AD
:1017400050E8001F21F0010140E80012002AF5D105
:101750002068143050E8001F21F0400140E80012DA
:10176000002AF5D184F84230256320680C3050E817
:10177000001F21F0100140E80012002AF5D1E06BB3
:10178000FEF760FF6663A08DE18D401A81B22AE00A
:10179000A08DE18D401A81B2E08D0028A6D00029ED
:1017A000A4D022680C3252E8000F20F4907042E876
:1017B0000007002FF5D12068143050E8002F22F0E8
:1017C000010240E80027002FF5D184F8423025635C
:1017D00020680C3050E8002F22F0100240E800236F
:1017E000002BF5D166632046FFF708FFF8BDFFE741
:1017F00005062BD5150629D594F841002128F5D1E9
:10180000A068B0F5805F01D12069B0B1206A411CA9
:101810002162216800784860E08C401E0004000CC2
:10182000E084E3D12068C16821F08001C1602068B4
:10183000C16841F04001C160D8E7206A0088C0F368
:1018400008004860206A801C2062E5E74006CDD58C
:101850005006CBD5CA68204622F04002CA6084F800
:10186000413000F0E6F8C1E7AD22000870B5040091
:1018700004D094F84100002510B106E0012070BDAD
:1018800084F84050204600F023F8242084F84100DA
:101890002068C16821F40051C160204600F096FD27
:1018A0002068016921F4904101612068416921F0BB
:1018B0002A0141612068C16841F40051C16065643A
:1018C000202084F8410084F842006563002070BD48
:1018D00030B585B00024009401940294039400680C
:1018E000184988422CD11848816941F480418161AE
:1018F000816901F480410491816941F004018161B1
:101900008069124D00F0040004904FF400700090C4
:10191000022001900320039069462846FEF702FF4B
:101920002815CDE90004694628460294FEF7FAFE20
:10193000002205212520FFF759F92520FFF748F956
:1019400005B030BD003801400010024000080140E1
:1019500090F84230202B01D00220704721B11AB1FB
:101960000023036300F08EBD0120704710B50068AE
:101970000649884208D100F0B7FABDE810400F22AE
:1019800003490448FFF7E4BF10BD000000380140E0
:10199000A4000020900200202DE9F843044690F8AE
:1019A00041001F4616460D46202802D00220BDE801
:1019B000F8837DB176B100206064212084F8410075
:1019C000FEF7AEFFA6848046E684A068B0F5805F8F
:1019D00002D003E00120EAE7206910B12E4600257D
:1019E0000EE000260CE08021204600F066FDA0B944
:1019F000AEB116F8010B21684860E08C401EE0840F
:101A0000E08C43464FF0000200970028EBD14FF0E6
:101A10004001204600F051FD30B10320C7E735F802
:101A2000020BC0F30800E6E7202084F84100002004
:101A3000BDE77047FEE70000074910B5054808609C
:101A40000846FEF7D9FD002803D0BDE81040FEF798
:101A5000D1BD10BD003002400C00002010B50A4876
:101A600000F040FF094C084A0021A060483A0848AD
:101A700000F0A6FF044A2060243A0021054800F047
:101A80009FFF606010BD000074440008000000204B
:101A900049200008212000082DE9F04385B00024EA
:101AA00029480094019402940394816941F0100143
:101AB0008161816901F010010491816941F0200187
:101AC0008161816901F020010491816941F0040183
:101AD0008161816901F004010491816941F008018B
:101AE00081618069DFF8648000F008004FF40055E0
:101AF0000490002229464046FEF70CFFDFF8509084
:101B00004FF41367002239464846FEF703FF00955D
:101B1000022601250396CDE9015469464046FEF7A9
:101B200001FE00970396CDE9015469464846FEF749
:101B3000F9FD2803CDE90004694648460294FEF702
:101B4000F1FD05B0BDE8F083001002400010014037
:101B5000000801400D4810B50B4901600C49416077
:101B600000214FF480428160C0E90312416181612C
:101B7000C1610162FEF7DAFE002803D0BDE8104023
:101B8000FEF738BD10BD000000580040B400002032
:101B9000A0860100104810B50E4901604FF4827113
:101BA000416000218160C1604FF400720161C0E9B1
:101BB00005121022C0E90721416281620A21C16237
:101BC000FFF7B2FA002803D0BDE81040FEF712BDBF
:101BD00010BD000000300140080100200F4810B582
:101BE0000D4901604FF48271416000218160C16044
:101BF0004FF400720161C0E90512C16101624162E6
:101C000081620A21C162FFF78FFA002803D0BDE884
:101C10001040FEF7EFBC10BD00380040600100200E
:101C200010B58AB0002407941C2168460894FEF77A
:101C3000EEFA22484FF0804101604721C0E90114CB
:101C400044F61F61C0E903148461FFF72FFC08B15B
:101C5000FEF7D0FC079407A918480894FFF730FB5B
:101C600008B1FEF7C7FC6020CDE900040294002211
:101C7000694612480494FFF7B3FB08B1FEF7BAFCBB
:101C8000042269460D48FFF7ABFB08B1FEF7B2FC32
:101C9000082269460948FFF7A3FB08B1FEF7AAFC32
:101CA0000C2269460548FFF79BFB08B1FEF7A2FC32
:101CB0000248FFF739FB0AB010BD0000B801002050
:101CC00010B58AB0002407941C2168460894FEF7DA
:101CD0009EFA2248204901604721C0E9011444F6D8
:101CE0001F61C0E903148461FFF7E0FB08B1FEF750
:101CF00081FC079407A919480894FFF7E1FA08B195
:101D0000FEF778FC6020CDE90004029400226946C9
:101D100012480494FFF764FB08B1FEF76BFC042241
:101D200069460E48FFF75CFB08B1FEF763FC08222A
:101D300069460A48FFF754FB08B1FEF75BFC0C222A
:101D400069460648FFF74CFB08B1FEF753FC034811
:101D5000FFF7EAFA0AB010BD0004004000020020BC
:101D600010B58AB0002407941C2168460894FEF739
:101D70004EFA2248204901604721C0E9011444F687
:101D80001F61C0E903148461FFF790FB08B1FEF7FF
:101D900031FC079407A919480894FFF791FA08B194
:101DA000FEF728FC6020CDE9000402940022694679
:101DB00012480494FFF714FB08B1FEF71BFC042241
:101DC00069460E48FFF70CFB08B1FEF713FC08222A
:101DD00069460A48FFF704FB08B1FEF70BFC0C222A
:101DE00069460648FFF7FCFA08B1FEF703FC034812
:101DF000FFF79AFA0AB010BD000800404802002020
:101E00000C4810B50A4901604FF4E13141600021EE
:101E100081600C22C160C0E904128161C161FFF7D9
:101E200025FD002803D0BDE81040FEF7E3BB10BD40
:101E30000038014090020020FEE7FEE72DE9F04166
:101E40002348DFF8908000254788012608F10C041C
:101E500006FA05F0384212D018F80500C8280ED24C
:101E6000FEF7F9FA4FF033321B4BFEF782FA0022ED
:101E70001A4BFEF7D7F9FEF7FBFA24F815006D1C94
:101E8000EDB20C2DE4D34FF080402188416361888E
:101E90008163A188C163E1880164114920890860D8
:101EA000091D60890860091DA0890860091DE08975
:101EB00008600C49208A0860091D608A0860091DB5
:101EC000A08A0860091DE08A0860BDE8F081000072
:101ED0009C000020AC1B00203333264000407F4094
:101EE00034040040340800402DE9F041214D224ADD
:101EF0000021698010780126512805D05278532896
:101F000029D055282BD02CE0907B502829D1287837
:101F1000012826D0194F002011183B5C49789942BE
:101F200005D039546B8806FA00F119436980401CCA
:101F30000C28F1DB5FF00004698806FA04F008421F
:101F400004D03A5D611C0EA000F0FCFA641C0C2C5D
:101F5000F2DBBDE8F081522A03D12E7007E0542A4B
:101F600004D00DA0BDE8F04100F0ECBA29700EA03D
:101F7000F8E700009C000020A4000020AC1B00201B
:101F8000736572766F202575207475726E20746F7C
:101F90002025750D0A00000064617461206572726D
:101FA0006F72210D0A000000736572766F73206CEA
:101FB0006F636B210D0A000030B44FF0804140F296
:101FC000DC5048638863C863086411490860091DD0
:101FD0000860091D0860091D08600E490860091D98
:101FE0000860091D0860091D08600B4900220B4BA1
:101FF0004A705A24A3F10C05D2B223F81200AC5453
:10200000521CD2B24A700C2AF6D330BCFFF716BF6E
:1020100034040040340800409C000020B81B00201D
:10202000084C4FF0FF352946A06800F025FC20B988
:10203000FFF704FFA06800F095FC142000F0C6FB39
:10204000F1E7000000000020064D4FF400544FF46B
:10205000FA7621462846FEF755FC304600F0B6FBDE
:10206000F7E700000010014010B5FEF753FD01F046
:10207000EBFF012803D0BDE8104001F0DDBB10BD2F
:1020800030B58FB028216846FEF7C1F814210AA8A0
:10209000FEF7BDF801210804CDE9001000240294E8
:1020A00002250491CDE907504FF4E01009906846ED
:1020B000FEF7AAFE08B172B6FEE70F20CDE90A05C9
:1020C0004FF48060CDE90C4002210AA80E94FEF77F
:1020D000BFFD002801D072B6FEE70FB030BD7047DB
:1020E000F0B50268164B174C174D4FF080479842D9
:1020F00005D0B84203D0A04201D0A84203D122F0BB
:1021000070064A683243984205D0B84203D0A042D4
:1021100001D0A84203D122F44074CA6822434C691A
:1021200022F08002224302608A68C2620A688262E8
:10213000984201D10969016301214161F0BD0000AC
:10214000002C0140000400400008004010B501F0E0
:102150001F030121046A99408C430462016A9A407A
:102160001143016210BD000030B5036A026A22F01B
:10217000010202624268846924F073050C682C43F2
:1021800023F002058B682B430A4DA8420BD123F0A4
:102190000805CB6822F440722B434D6923F00403F9
:1021A00015438A692A434260846149684163036236
:1021B00030BD0000002C014030B5026A036A23F0F4
:1021C00010030362436884690D6824F4E64444EA1A
:1021D00005248D6822F0200242EA05120B4DA84228
:1021E0000ED1CD6822F0800242EA05124D6923F437
:1021F000406343EA85038D6922F0400243EA850388
:102200004360846149688163026230BD002C0140F3
:1022100030B5036A026A22F4807202624268C469BD
:1022200023F4007324F073050C682C438D6843EA93
:1022300005230C4DA8420ED1CD6823F4006343EA78
:1022400005234D6922F4405242EA05128D6923F4B8
:10225000806342EA05124260C4614968C163036257
:1022600030BD0000002C014030B5046A026A22F43F
:10227000805202624268C3690D6823F4E64343EA70
:1022800005238D6824F4005444EA0534064DA84221
:1022900004D14D6922F4804242EA85124260C36152
:1022A00049680164046230BD002C014010B5406AE9
:1022B0000021C185C184FFF7A2F910BD01680C316E
:1022C00051E8002F22F4907241E80023002BF5D151
:1022D0000168143151E8002F22F0010241E8002387
:1022E000002BF5D1016B012909D101680C3151E8AE
:1022F000002F22F0100241E80023002BF5D120210D
:1023000080F8421000210163704708B590F8421030
:10231000222901D0022008BD82684FF480539A42DE
:1023200001D1016921B1816A9A421BD04AB10AE008
:102330000268816A5268C2F308020A80816A891CB5
:1023400008E0026972B10268526802F07F020A7006
:10235000816A491C8162C18D491E0904090CC1852D
:1023600003D01BE002685268F1E70168CA6822F0F6
:102370002002CA600168CA6822F48072CA600168DB
:102380004A6922F001024A61202180F842100021AE
:102390004163026B012A03D0FFF7E8FA002008BD71
:1023A000016301680C3151E8002F22F0100241E86E
:1023B0000023002BF5D101680A68D20602D50A680D
:1023C00049680091818DFFF719F9E7E770B5044678
:1023D00000680169E26821F44051114301612169FB
:1023E000A0680843616908432168CA6841F20C6328
:1023F0009A430243CA6020684169A26921F440718E
:10240000114341611E492068884202D1FEF7C6FC93
:1024100001E0FEF7B3FC00EBC00101EB00126068C5
:1024200064218000B2FBF0F3B3FBF1F36FF0180608
:102430007343B2FBF0F5B2FBF0F605EB83053223F4
:1024400003EB0515B5FBF1F5B6FBF1F605F0F0056C
:1024500005EB0615B2FBF0F6B2FBF0F0B0FBF1F0C5
:102460006FF01802504306EB800003EB0010B0FB46
:10247000F1F0216800F00F002844886070BD000072
:102480000038014081628285C28500214164222199
:1024900080F84210016921B10168CA6842F4807273
:1024A000CA6001684A6942F001024A610068C16875
:1024B00041F02001C160002070472DE9F0419846AD
:1024C00017460E460446069D27E0681C25D02DB110
:1024D000FEF726FAA0EB0800A8421ED920680C30AF
:1024E00050E8001F21F4D07140E80012002AF5D115
:1024F0002068143050E8001F21F0010140E800126C
:10250000002AF5D1202084F8410084F84200002000
:1025100084F840000320BDE8F0812068006836EAB6
:10252000000004D00020B842CFD00020F3E7012003
:10253000F9E700000148FFF763B8000090020020AF
:10254000FEE700000FB4054B10B503A9044A02983A
:1025500000F028F810BC5DF814FB0000F926000814
:10256000A00000200907090E002804DB00F1E0208C
:1025700080F80014704700F00F0000F1E02080F8B0
:10258000141D704702E008C8121F08C1002AFAD1C2
:1025900070477047002001E001C1121F002AFBD1E3
:1025A000704700002DE9FF4F89B09B460446002587
:1025B00006E025280BD05A460B999047641C6D1CE9
:1025C00020780028F5D10DB02846BDE8F08F00270F
:1025D000B8460122474900E0074314F8013F203B79
:1025E00002FA03F00842F7D120782E2819D114F806
:1025F000010F47F004072A280ED06FF02F02207831
:10260000A0F1300109290CD808EB880102EB410147
:1026100000EB0108641CF2E70A98641C50F8048B74
:102620000A9020780028CED0642808D0692806D0E7
:1026300075281ED05A460B9990476D1C58E00A9990
:102640004FF00A0901C90A91002802DA40422D21FF
:1026500002E0390504D52B218DF82010012103E07B
:10266000F90704D02021F7E78A4608AE0DE00021E3
:10267000FAE70A994FF00A0901C90A91F7E74946B2
:10268000FDF70FFF303106F8011D0028F7D1ADEB43
:10269000060000F12009780701D44FF00108C84571
:1026A00002DDA8EB090000E000208046002706E0DC
:1026B00008A85A46C05D0B9990476D1C7F1C574572
:1026C000F6DB04E030205A460B9990476D1CB8F1B8
:1026D0000001A8F10108F5DC05E016F8010B5A46E7
:1026E0000B9990476D1CB9F10001A9F10109F4DCC7
:1026F000641C65E70928010013B5FF230122694620
:102700000248FFF749F900981CBD00009002002024
:10271000FEF708FAFFF7B4FCFFF7BEF9FFF71AFA65
:10272000FFF738FAFFF75AFAFFF77AFAFFF7C8FA15
:10273000FFF716FBFFF764FBFFF77EF900211E4849
:10274000FEF70EFF04211C48FEF70AFF08211A4875
:10275000FEF706FF0C211848FEF702FF002117487C
:10276000FEF7FEFE04211548FEF7FAFE0821134885
:10277000FEF7F6FE0C211148FEF7F2FE002110488C
:10278000FEF7EEFE04210E48FEF7EAFE08210C4893
:10279000FEF7E6FE0C210A48FEF7E2FEFFF70CFC0E
:1027A0000F2208490848FFF7D3F800F029F8FFF78F
:1027B00055F900F041F8FEE7B801002000020020C2
:1027C00048020020A40000209002002010B5EFF382
:1027D000058149B9EFF3108131B908490968022927
:1027E00005D1EFF3118111B16FF0050403E000246E
:1027F00008B100F09FFE204610BD000074000020CC
:10280000EFF3058058B9EFF3108040B90949086823
:10281000022801D030B109E0EFF3118030B16FF040
:102820000500704701200860002070474FF0FF301E
:10283000704700007400002010B5EFF3058060B908
:10284000EFF3108048B90B490868022802D001282C
:1028500006D00BE0EFF3118040B16FF0050010BD22
:102860000220086000F016FF002010BD4FF0FF307E
:1028700010BD0000740000202DE9F0410D46014616
:1028800021F0010001F001014FF00004EFF3058297
:102890004AB9EFF3108232B9114A1268022A05D1FF
:1028A000EFF3118212B16FF0050416E048B1002970
:1028B0006FF001066FF00207294608D001F00CFB0B
:1028C00007E06FF0030408E035B1344605E001F09D
:1028D00047FA0128F8D100E03C462046BDE8F081E7
:1028E0007400002070B505464FF00004EFF305803A
:1028F000A0BBEFF3108088BB19480068022802D102
:10290000EFF3118050BB0DB1686800E00020C107F3
:1029100001D0012600E0002600071FD46DB1D5E9E3
:10292000021021B1502819D31EB1042002E020B1B9
:1029300014E0012000F0A1FF05E00EB1042000E04A
:10294000012000F08FFF040008D00DB1296800E0DD
:10295000002100F0B9FD0EB144F00104204670BD25
:102960007400002070B5014621F0010001F0010162
:102970004FF00004EFF305824AB9EFF3108232B949
:102980000E4A1268022A05D1EFF3118212B16FF0DC
:10299000050411E028B16FF0020529B101F024F916
:1029A00007E06FF0030407E000231A46194601F020
:1029B0000DF8012800D02C46204670BD7400002080
:1029C000F0B585B04FEA01034FF00004EFF3058145
:1029D0000394A1BBEFF3108189BB21490968022947
:1029E00002D1EFF3118151BB48B3802618218DF835
:1029F000104004AD42B3176807B13D4697691FB157
:102A000039467F1E382F02D21779FF0702D00020E7
:102A100005B0F0BD576907B1BE08D2F808C0BCF1D7
:102A2000000F0DD0D4685C2C18D312693AB137B1BD
:102A30008DE806103246294601F0D5FA03900DE0E4
:102A4000D7685FB912694AB903AACDE90012B2B2D8
:102A5000294601F09BFA012800D003940398D7E798
:102A6000740000202DE9F041134C0F4605466669BD
:102A70002068001D00F02EFC681C07D137B12168CA
:102A8000BDE8F0410D48091D00F074BC20683544D4
:102A9000B5424560216805D2A068BDE8F041091D36
:102AA00000F050BC6068091D00F04CFC206B8542B2
:102AB00000D22563BDE8F08124000020C807002073
:102AC0002DE9F041054600F061FC2D4C2069401CC9
:102AD000206120682B4F10B1E06930B32BE02560F6
:102AE0002069012827D1002606EB860007EB80002D
:102AF00000F01AFC761C382EF6D3234800F014FCA4
:102B00002148143000F010FC1F48283000F00CFC65
:102B10001D483C3000F008FC1B48503000F004FC1D
:102B2000194860601430A06005E02068E96AC06A56
:102B3000884200D82560E06A401CE0626864E86A68
:102B4000A169884200D9A06100EB800007EB8000FA
:102B5000291D00F00FFC00F039FCE06900280CD0C2
:102B60002068E96AC06A884207D208494FF080505D
:102B70000860BFF34F8FBFF36F8FBDE8F081000097
:102B800024000020180300207807002004ED00E056
:102B900038B500F0FBFB104CA068C8B90F4800F036
:102BA000C3FB0E48143000F0BFFB0C48206014300B
:102BB00060600A4B00202833009003F1500210217E
:102BC0000A2000F08BFEA06010B105A100F07CFC93
:102BD000BDE8384000F0FABB60000020DC070020B0
:102BE000546D72510000000030B4026C0B46002A94
:102BF0000BD0C1681144C1604468A14201D301688F
:102C0000C16030BC1846FDF7E9BA30BC70472DE909
:102C1000F041856B174604460026026C82B1C7B1AD
:102C2000E068FDF7DBFAE168206C091AE1602268D0
:102C3000914202D26168081AE060022F16D017E0B4
:102C40002068A8B9606801F077FA06460020606045
:102C50000EE0A068FDF7C2FA216CA0680844A060ED
:102C60006168884204D32068A06001E005B16D1E50
:102C70006D1CA5633046BDE8F08110B5044690F8A0
:102C8000590058B101280CD002280FD0502080F3F1
:102C90001188BFF34F8FBFF36F8FFEE7206B00F0FB
:102CA000A9FB2046BDE8104000F0A4BB10BD000009
:102CB00010484FF44061420706D0C01D0D4920F076
:102CC0000700411AC1F540610B4A00230144C2E9E3
:102CD00000030839103A21F0070111604B600B60C6
:102CE0000B1AC0E9001393604FF000405360D060AE
:102CF00070470000AC0F002088000020144E154CD7
:102D0000A6F29C474FF08058DFF84C9012E000BFCD
:102D100000F03CFBF068C568281D00F0DBFA206974
:102D2000401E2061E068401EE06000F04FFB284636
:102D3000FFF7A3FFE0680028EAD138680128F9D935
:102D4000C9F80080BFF34F8FBFF36F8FF2E7000029
:102D5000B40700202400002004ED00E0002807D084
:102D60000021416001600B460A46C16000F02EBEA2
:102D70007047000070B51D46049C51B1C4F8002096
:102D8000C4E90F010121204600F0DCFD84F84C501D
:102D900070BD2460F4E72DE9F0470E46DDE90984B3
:102DA0001746824691009946089DA522206BFDF7A3
:102DB00027FA6FF00301206B01EB8701084420F034
:102DC0000707780707D0502080F31188BFF34F8F93
:102DD000BFF36F8FFEE72218315C82F83410315C4C
:102DE00011B1401C1028F6D3002684F84360382D1A
:102DF00000D33725E562C4E91356201D00F09FFA81
:102E000004F1180000F09BFA2461C5F138006462F7
:102E1000A061666584F858604A465146384600F01D
:102E200047FA2060B8F1000F01D0C8F80040BDE8B3
:102E3000F087000030B5114900E011460A6882426F
:102E4000FBD34B685C18844203D140681844486047
:102E5000084643681C18944209D1084C103C246869
:102E6000A24209D052681A4442600A68126802609D
:102E7000814200D0086030BD0460F9E7880000207E
:102E800070B5002441600B4D0061914206D8D11A03
:102E90008269914206D2011D686807E09A4203D216
:102EA000994201D3012403E0011D286800F04AFA89
:102EB000204670BD6000002010B5044600F066FAA0
:102EC000A06B28B15FF0000400F080FA204610BD2E
:102ED0000124F9E730B589B0304D55E00498002859
:102EE00006DADDE90601059A9047049800284BDBD5
:102EF000069C606910B1201D00F0ECF902A800F0FA
:102F0000B9F8024604980A283ED2DFE800F0050529
:102F1000053D263705053D260598A1690346014470
:102F20002046FFF7ADFF00B3616A20468847E0699D
:102F3000012829D1002000900598A169002342189A
:102F40001946204601F03EFA78B9502080F31188E6
:102F5000BFF34F8FBFF36F8FFEE70598A06128B1D5
:102F6000811813462046FFF78BFF0DE0502080F3B9
:102F70001188BFF34F8FBFF36F8FFEE794F82C00DB
:102F800010B9204600F036FA002204A9A86800F023
:102F90004BFE0028A2D109B030BD00006000002027
:102FA0002DE9FC410F46054600F0B8FB01A800F0F2
:102FB00061F80446019818B101F072F9BDE8FC818E
:102FC000224EAFB170680068A8B30027291B3A46AB
:102FD000B06800F08DFA01F063F90028EED11C49C9
:102FE0004FF080500860BFF34F8FBFF36F8FE5E75E
:102FF000A542EBD801F054F930682746C068C46890
:10300000201D00F067F9E069012810D1A0692B4666
:1030100041193A462046FFF733FF40B100200346EE
:10302000014600902A46204601F0CCF920B1616AA1
:1030300020468847C2E707E0502080F31188BFF39D
:103040004F8FBFF36F8FFEE70127BFE760000020BF
:1030500004ED00E006484168096829B14168C96883
:10306000C9684968016370474FF0FF31FAE7000013
:103070002400002070B5054600F0F4FF064E04461B
:103080003069844203D200F009F8012000E00020FA
:1030900028602046346170BD60000020F8B5194DED
:1030A0001FE0C068C4680668201D00F013F9616A5B
:1030B00020468847E069012813D1A0693044B04216
:1030C00006D924616060211D286800F03BF908E002
:1030D00000200346014600903246204601F072F976
:1030E00038B1286801680029DBD16968C5E900109A
:1030F000F8BD502080F31188BFF34F8FBFF36F8F5F
:10310000FEE700006000002008484068401C4FF0C7
:10311000500080F3118804D0BFF34F8FBFF36F8F3F
:10312000FEE7BFF34F8FBFF36F8FFEE790000020E5
:10313000074C2068016841B1C0680021D0F8000048
:10314000FFF72EFFFFF7C6FEF3E701210020F7E7A8
:10315000600000202DE9F041044600F017F994F9D1
:10316000455004F1240609E0606A48B1304601F098
:103170005FF808B100F00CFA6D1E6DB2002DF3DCA3
:103180004FF0FF3684F8456000F020F900F0FEF8BB
:1031900094F9445004F1100709E0206948B1384619
:1031A00001F046F808B100F0F3F96D1E6DB2002D84
:1031B000F3DC84F84460BDE8F04100F007B900009A
:1031C0002DE9F0410546002700F0A8FA314E30689D
:1031D00008B9FFF76DFDF06805424BD1C5B308355E
:1031E00068070ED005F00700C0F108000544680725
:1031F00007D0502080F31188BFF34F8FBFF36F8F3C
:10320000FEE72DB37068854234D82248103001465D
:103210000C6801E020460C466168A94202D2216890
:103220000029F7D131688C4224D0076821680160F9
:1032300060680837411B10290FD96019420708D070
:10324000502080F31188BFF34F8FBFF36F8FFEE7DD
:1032500010E041606560FFF7EDFD61687068401A3D
:103260007060B268904200D2B060F0680143002004
:10327000C4E9000101F014F8780707D0502080F36A
:103280001188BFF34F8FBFF36F8FFEE73846BDE85D
:10329000F0810000780000200449086818B108682F
:1032A000026D521C0265086870470000240000206F
:1032B00010B5031F4FF080741C601B1F21F001012B
:1032C0001960191F024B0B60143940380A6010BD99
:1032D00009310008D0E9013201699A60D0E901237F
:1032E0005A604A68824201D182684A6000220261C3
:1032F0000868401E0860086870470000034B0360C0
:1033000003F15C000860802010607047F408002022
:10331000044B036003F15C0008604FF480701060A0
:1033200070470000500B002000F108014FF0FF3201
:10333000C0E90112C16001610021016070470021F4
:103340000161704730B50B685A1C02D000F10802C9
:1033500002E0026904E02246546825689D42FAD9D9
:1033600053684B6099608A60516008610168491C2C
:10337000016030BD42684A6093688B609368596011
:10338000916008610168491C01607047502080F31A
:103390001188BFF34F8FBFF36F8F0A494868401CF5
:1033A000486001280CD10848006810F0FF0F07D0D2
:1033B000502080F31188BFF34F8FBFF36F8FFEE76C
:1033C000704700009000002004ED00E008494868C4
:1033D00028B1401E486001D180F311887047502009
:1033E00080F31188BFF34F8FBFF36F8FFEE70000AC
:1033F0009000002070B5002827D0144DA0F10804DB
:103400006168E868014207D1502080F31188BFF35A
:103410004F8FBFF36F8FFEE722683AB1502080F3E1
:103420001188BFF34F8FBFF36F8FFEE78143616059
:1034300000F074F960686968084468602046FFF726
:10344000F9FCBDE8704000F02BBF70BD7800002093
:103450004FF0E02000210161816105494FF47A724B
:103460000968B1FBF2F1491E416107210161704712
:103470002000002010B5FCF78BFE114910280ED358
:1034800000F1E02090F8F0030A78904207D2502033
:1034900080F31188BFF34F8FBFF36F8FFEE70948AA
:1034A0000068896800F4E060884207D9502080F302
:1034B0001188BFF34F8FBFF36F8FFEE710BD000081
:1034C000900000200CED00E010B5084B002200BF7A
:1034D00053F832401CB1521C082AF9D310BD43F8EE
:1034E000321003EBC201486010BD0000D80200207A
:1034F00070B515460E460446FFF748FF94F9441090
:103500000020491C01D184F8440094F94510491C5D
:1035100001D184F84500FFF759FFA06B28B92A466E
:10352000314604F1240000F051F82046BDE8704017
:10353000FFF710BE10B5020014D00F48806B38B1F1
:10354000502080F31188BFF34F8FBFF36F8FFEE7DA
:1035500000F0E4F800211046FFF784FA00F0A0FE26
:10356000002807D105494FF080500860BFF34F8F06
:10357000BFF36F8F10BD00002400002004ED00E0B9
:1035800002498A6A0260496941607047240000204C
:1035900001490120486270472400002010B50C4604
:1035A00050B1094909681831FFF7CCFE2046BDE843
:1035B00010400121FFF756BA502080F31188BFF365
:1035C0004F8FBFF36F8FFEE72400002070B51446C5
:1035D0000D4668B10A4909681831FFF7CBFE0CB1F6
:1035E0004FF0FF3521462846BDE87040FFF73ABA54
:1035F000502080F31188BFF34F8FBFF36F8FFEE72A
:103600002400002070B504003ED0226DA2B1E06C11
:10361000884200D30146E06A884235D0012A33D17E
:103620001A4D2A6894420FD1502080F31188BFF3BD
:103630004F8FBFF36F8FFEE7502080F31188BFF3E9
:103640004F8FBFF36F8FFEE7E162A269002A02DBB2
:10365000C1F13801A1610E4E00EB8000616906EBFB
:103660008000814210D1201DFFF734FEE06AA96975
:10367000884200D9A86100EB800006EB8000211D84
:10368000BDE87040FFF776BE70BD0000240000204A
:103690001803002030B587B00024039405AA04A9BC
:1036A00003A80494FFF72AFEDDE903010094CDE9A5
:1036B0000110002315A11748059A00F094FC164D3F
:1036C000002868631FD000F04DFE012809D0401C7F
:1036D00019D1502080F31188BFF34F8FBFF36F8F44
:1036E000FEE7502080F31188BFF34F8FBFF36F8F39
:1036F0004FF0FF3028630120E8616C6107B0BDE83E
:10370000304000F045B807B030BD000049444C459A
:1037100000000000FD2C0008240000200248816BFE
:10372000491C81637047000024000020164810B532
:10373000816B11B10121416210BD0021416281699B
:10374000124A01E0B9B1491E01EB810352F823305E
:10375000002BF7D001EB810302EB830202F1080496
:1037600053685B685360A34201D15B685360DA68B9
:103770000260816110BD502080F31188BFF34F8F2C
:10378000BFF36F8FFEE70000240000201803002025
:103790001CB5264908780190FF20087008788DF83C
:1037A00000009DF800009DF8002000F0F00090421D
:1037B00007D0502080F31188BFF34F8FBFF36F8F76
:1037C000FEE79DF800001A4B00F05000187007202B
:1037D000986005E09DF8002052008DF80020401E02
:1037E0009DF800201206F5D49860032807D05020D9
:1037F00080F31188BFF34F8FBFF36F8FFEE74FF455
:1038000040709860019808700A48016841F470019E
:103810000160016841F070410160FFF719FE00206E
:103820005860FCF77FFC00201CBD000000E400E0B5
:103830009000002020ED00E010B5502080F31188AA
:10384000BFF34F8FBFF36F8F00F012FC18B1044924
:103850004FF080500860002080F3118810BD0000F8
:1038600004ED00E010B502460021012000F012F83E
:103870000446FFF773FA204610BD38B50B46002208
:1038800000901146012000F029F80446FFF766FA7F
:10389000204638BDF8B517460E46050014D0DEB1F7
:1038A00005FB06F05030FFF78BFC04000AD0002027
:1038B00084F8460004F150023B4631462846009405
:1038C000FFF758FA2046F8BD502080F31188BFF367
:1038D0004F8FBFF36F8FFEE70020E3E738B5049DFD
:1038E00018B153B1CAB181B120E0502080F31188E2
:1038F000BFF34F8FBFF36F8FFEE7502080F3118827
:10390000BFF34F8FBFF36F8FFEE7502080F3118816
:10391000BFF34F8FBFF36F8FFEE739B1502080F3B5
:103920001188BFF34F8FBFF36F8FFEE750241C4603
:10393000012384F846302B460094FFF71BFA2046FB
:1039400038BD000070B50D46040025D0FFF71EFD00
:10395000D4E90F20216802FB001161600021A163FE
:103960002168A1600A46D4E90F01401E00FB012135
:10397000E16021464FF0FF3001F8440F487004F138
:1039800010008DB1FFF7D0FC04F12400FFF7CCFC50
:10399000FFF71CFD012070BD502080F31188BFF39C
:1039A0004F8FBFF36F8FFEE721690029F0D000F041
:1039B0003FFC0028ECD004494FF080500860BFF372
:1039C0004F8FBFF36F8FE3E704ED00E02DE9FF4772
:1039D00082B01D468A464FF00008040003D0BAF1B9
:1039E000000F08D011E0502080F31188BFF34F8FF3
:1039F000BFF36F8FFEE7206C38B1502080F3118841
:103A0000BFF34F8FBFF36F8FFEE7022D0AD1E06B3C
:103A1000012807D0502080F31188BFF34F8FBFF3E8
:103A20006F8FFEE700F010FB3F4F4FF000094FF0A3
:103A3000805648B9049838B1502080F31188BFF3FC
:103A40004F8FBFF36F8FFEE7FFF7A0FCA06BE16B1A
:103A5000884207D3022D05D00498D0B1B8F1000FE9
:103A60001AD01EE02A4651462046FFF7D0F8616A78
:103A700019B104F1240000F0DBFB20B13E60BFF37C
:103A80004F8FBFF36F8FFFF7A1FC012006B0BDE899
:103A9000F087FFF79BFC22E06846FFF771FD4FF0CF
:103AA0000108FFF793FCFFF739FEFFF76FFC94F96D
:103AB0004400401C01D184F8449094F94500401C16
:103AC00001D184F84590FFF781FC04A9684600F015
:103AD00023FA30B12046FFF73DFB00F0E1FB002068
:103AE000D4E7FFF753FCA06BE16B884213D1FFF7DB
:103AF0006DFC04F110000499FFF750FD2046FFF71C
:103B000029FB00F0CDFB00289ED13E60BFF34F8F14
:103B1000BFF36F8F98E7FFF759FC2046FFF71AFBBA
:103B200000F0BEFB90E7000004ED00E02DE9F04757
:103B30001F4690468946040003D0B9F1000F08D013
:103B400011E0502080F31188BFF34F8FBFF36F8FC8
:103B5000FEE7206C38B1502080F31188BFF34F8FFF
:103B6000BFF36F8FFEE7022F0AD1E06B012807D069
:103B7000502080F31188BFF34F8FBFF36F8FFEE7A4
:103B8000FFF778FC5020EFF3118680F31188BFF324
:103B90004F8FBFF36F8FA06BE16B884206D3022F6C
:103BA00004D0002086F31188BDE8F08794F94550D1
:103BB0003A4649462046FFF72AF8681C04D06D1C97
:103BC00084F845500120EDE7606A0028FAD004F13E
:103BD000240000F02DFB0028F4D0B8F1000FF1D044
:103BE0000121C8F80010EDE710B5040009D000F07D
:103BF00025FA6168884214D1E068401EE06008D070
:103C00000DE0502080F31188BFF34F8FBFF36F8F0B
:103C1000FEE700231A4619462046FFF7D7FE01208B
:103C200010BD002010BD00002DE9F747002683B02D
:103C30008A46040003D0BAF1000F08D011E05020EA
:103C400080F31188BFF34F8FBFF36F8FFEE7206CB7
:103C500038B1502080F31188BFF34F8FBFF36F8FBF
:103C6000FEE700F0F1F9DFF8F4804FF000094FF0C3
:103C7000805748B9059838B1502080F31188BFF3B8
:103C80004F8FBFF36F8FFEE7FFF780FBA56BC5B1CA
:103C900051462046FEF7A8FF6D1EA563206950B16E
:103CA00004F1100000F0C4FA28B1C8F80070BFF3A6
:103CB0004F8FBFF36F8FFFF789FB012006B0BDE880
:103CC000F087059808B11EB106E0FFF77FFB27E0FB
:103CD0006846FFF755FC0126FFF778FBFFF71EFD4E
:103CE000FFF754FB94F94400401C01D184F8449040
:103CF00094F94500401C01D184F84590FFF766FB1C
:103D000005A9684600F008F9002820460AD0FFF708
:103D100021FA00F0C5FA2046FFF7CEF80028B3D00C
:103D20000020CBE7FFF7C8F890B104F12400059913
:103D3000FFF734FC2046FFF70DFA00F0B1FA002837
:103D4000A2D1C8F80070BFF34F8FBFF36F8F9BE70E
:103D50002046FFF7FFF900F0A3FA95E704ED00E035
:103D60002DE9F343002683B00400354609D0206CCA
:103D700078B1502080F31188BFF34F8FBFF36F8F5E
:103D8000FEE7502080F31188BFF34F8FBFF36F8F92
:103D9000FEE700F059F9DFF83C814FF000094FF0E1
:103DA000805748B9049838B1502080F31188BFF388
:103DB0004F8FBFF36F8FFEE7FFF7E8FAA06BC8B134
:103DC000401EA063206810B9FFF766FA60602069A2
:103DD00050B104F1100000F02BFA28B1C8F80070BF
:103DE000BFF34F8FBFF36F8FFFF7F0FA012005B0DD
:103DF000BDE8F083049808B166B10FE03DB15020F2
:103E000080F31188BFF34F8FBFF36F8FFEE7FFF78B
:103E1000DDFA5DE06846FFF7B3FB0126FFF7D6FA4F
:103E2000FFF77CFCFFF7B2FA94F94400401C01D183
:103E300084F8449094F94500401C01D184F84590E1
:103E4000FFF7C4FA04A9684600F066F80028204687
:103E500012D0FFF77FF900F023FA2046FFF72CF885
:103E60000028A9D09DB3FFF791FA606A50B3206B88
:103E70000068C0F1380126E0FFF71EF8E0B12068C5
:103E800038B9FFF783FA606800F096F90546FFF746
:103E90009DFA04F124000499FFF780FB2046FFF708
:103EA00059F900F0FDF9002886D1C8F80070BFF379
:103EB0004F8FBFF36F8F7FE72046FFF74BF900F07E
:103EC000EFF979E700216068FFF79CFB9FE7FFE7C8
:103ED00000208CE704ED00E070B50D46040009D029
:103EE00000F0ACF8616888420CD1E068401CE060EA
:103EF000012070BD502080F31188BFF34F8FBFF3B6
:103F00006F8FFEE729462046FFF72AFF0028F0D0F2
:103F1000E168491CE16070BD2DE9F0410C460500E7
:103F200011D0C4B1FFF732FA174B5A696E68206896
:103F3000911B471C17D02F689B6A9F4219D096424D
:103F400017D8012410E0502080F31188BFF34F8F61
:103F5000BFF36F8FFEE7502080F31188BFF34F8FC0
:103F6000BFF36F8FFEE70024FFF730FA2046BDE86D
:103F7000F081884205D9401A20602846FFF700FBEF
:103F8000F1E700202060DCE7240000202DE9FF5F3E
:103F90008346DDE90E87994616468A469000FFF76C
:103FA0000FF905001CD05C20FFF70AF9040014D0BB
:103FB0000020256384F85900CDE90240CDE900874F
:103FC0004B46324651465846FEF7E5FE2046FEF780
:103FD00077FD012004B0BDE8F09F2846FFF70AFAFC
:103FE0004FF0FF30F6E7F0B585B0DDE90B640A9DD0
:103FF000A6B1DCB15C2700972663022684F85960DD
:10400000002604AFCDE90246CDE90057FEF7C3FE16
:104010002046FEF755FD049805B0F0BD502080F312
:104020001188BFF34F8FBFF36F8FFEE7502080F3EF
:104030001188BFF34F8FBFF36F8FFEE70148006811
:1040400070470000240000200548C16919B1806B49
:1040500018B100207047012070470220704700000F
:10406000240000200148406970470000240000201F
:104070002DE9F0412E4C0027A06B40B1206A401C76
:104080002062606A00B101273846BDE8F0816669A8
:10409000761C666113D16068006838B1502080F3E7
:1040A0001188BFF34F8FBFF36F8FFEE76068A16881
:1040B0006160A060A06A401CA062FEF7CBFF206B8D
:1040C000DFF87080864209D36068006880B160685C
:1040D000C068C568686886420DD220632068C06ADF
:1040E00000EB800158F821000128CAD90127C8E750
:1040F0004FF0FF30F1E7281DFFF7ECF8A86A18B180
:1041000005F11800FFF7E6F8E86AA169884200D9CE
:10411000A06100EB800108EB8100291DFFF72AF95F
:10412000E86A2168C96A8842CED30127CCE700003B
:10413000240000201803002070B504004FF0000197
:1041400033D01B4D2868844207D0502080F311885B
:10415000BFF34F8FBFF36F8FFEE7206D38B1401E66
:104160002065E36CE26A9A421FD040B11DE0502006
:1041700080F31188BFF34F8FBFF36F8FFEE7201DD1
:10418000FFF7A8F8E06CE062C0F13800A061E06AD7
:10419000A969884200D9A861064900EB800001EBBB
:1041A0008000211DFFF7E6F80121084670BD0000E0
:1041B000240000201803002070B504004FF0000018
:1041C0002BD0194DE16A2A68D26A914226D2A069A1
:1041D000002804DB2868C06AC0F13800A061134ED3
:1041E00001EB8101606906EB8101884211D1201D3C
:1041F000FFF770F82868C06AE062A969884200D9B0
:10420000A86100EB800006EB8000211DFFF7B2F8EB
:1042100002E02868C06AE062012070BDE16C2A6893
:10422000D26A9142F8D370BD240000201803002008
:1042300070B5C068C46854B104F118000646FFF7B1
:1042400049F8144DA86B50B13146134815E0502081
:1042500080F31188BFF34F8FBFF36F8FFEE7201DF0
:10426000FFF738F8E06AA969884200D9A8610B49CC
:1042700000EB800001EB8000211DFFF77BF8E06A76
:104280002968C96A884202D90120686270BD00208D
:1042900070BD000024000020A007002018030020AB
:1042A0002DE9F0472C4D00242746A86B38B1FFF7C5
:1042B0006DF8A86B401EA863A86B40B146E0502083
:1042C00080F31188BFF34F8FBFF36F8FFEE729692B
:1042D000224E0120D1B3A6F5916980463068E0B145
:1042E000F068C46804F11800FEF7F4FF201DFEF723
:1042F000F1FFE06AA969884200D9A86100EB80015A
:1043000009EB8100211DFFF735F8E06A2968C96AC9
:104310008842E3D3C5F82480E0E70CB1FEF79AFEAB
:104320002C6A4CB14FEA0806FFF7A2FE00B16E629C
:10433000641EF9D100202862686A38B10849012753
:1043400038070860BFF34F8FBFF36F8FFFF73EF85A
:104350003846BDE8F087000024000020A0070020B8
:1043600004ED00E010B586B0FEF712FC114CA06819
:10437000B8B100200390049005AA04A903A8FEF791
:10438000C7FFDDE9032102208DE8070000230AA111
:104390000B48059AFFF727FEE06010B106B0012038
:1043A00010BD502080F31188BFF34F8FBFF36F8F84
:1043B000FEE7000060000020546D72205376630019
:1043C000313100082DE9FF411E46134602000A9DC7
:1043D0004FF0000016D0144CA768002F0FD0CDE985
:1043E00000130292062917DAFFF72EFE02284FF07B
:1043F00000030FD000226946A068FFF7E7FA04B077
:10440000BDE8F081502080F31188BFF34F8FBFF3D8
:104410006F8FFEE72A46EEE70023324669463846AC
:10442000FFF784FBEBE7000060000020B0440008C9
:10443000000000000000000000000000000000007C
:104440000002000018000000000000000000000052
:10445000BC44000800000000000000000000000054
:1044600000000000000200002F000000000000001B
:1044700000000000C8440008000000000000000028
:1044800000000000010202030405060708090A0BE8
:104490000C0D0E0F101000000000000000000102C3
:1044A00003040607080900000000010203040000DD
:1044B00064656661756C745461736B0053657276E4
:1044C0006F5F7475726E0000536572766F5F646122
:1044D00074615F6D7574657800000000FC4400082D
:1044E00000000020A400000084250008A04500086A
:1044F000A40000202C1F00009425000800000000EC
:1045000000000000000000000000000000000000AB
:104510000100000010000000000000000024F40072
:10452000000000000000000000000000000000008B
:10453000000000000000000000000000000000007B
:10454000000000000000000000000000000000006B
:10455000000000000000000000000000000000005B
:10456000000000000000000000000000000000004B
:10457000000000000000000000000000000000003B
:10458000000000000000000000000000000000002B
:10459000AAAAAAAA00000000000000000000000073
:04000005080000ED02
:00000001FF
