:020000040800F2
:10000000D80400200101000847140008A7120008C6
:100010004514000899010008311D00080000000087
:100020000000000000000000000000003718000879
:100030009B0100080000000035180008391800086E
:100040001B0100081B0100081B0100081B01000820
:100050001B0100081B0100081B0100081B01000810
:100060001B0100081B0100081B0100081B01000800
:100070001B0100081B0100081B0100081B010008F0
:100080001B0100081B0100081B0100081B010008E0
:100090001B0100081B0100081B0100081B010008D0
:1000A0001B0100081B0100081B0100081B010008C0
:1000B0001B0100081B0100081B0100081B010008B0
:1000C0001B0100081B0100081B0100081B010008A0
:1000D0001B010008251D00081B0100081B0100086A
:1000E0001B0100081B0100081B010008DFF80CD0F1
:1000F00000F040F800480047311F0008D8040020F5
:100100000648804706480047FEE7FEE7FEE7FEE7B1
:10011000FEE7FEE7FEE7FEE7FEE7FEE79B180008C6
:10012000ED000008D2B201E000F8012B491EFBD21D
:1001300070470022F6E710B513460A4604461946F2
:10014000FFF7F0FF204610BD30B50B4601460020FA
:100150002022012409E021FA02F59D4205D303FA89
:1001600002F5491B04FA02F52844151EA2F101020A
:10017000F1DC30BD064C074D06E0E06840F00103BD
:1001800094E8070098471034AC42F6D3FFF7B2FF6B
:100190001420000834200008FEE7704772B6FEE71E
:1001A00010B590F821100022022905D004218163A6
:1001B00080F82020012010BD01680B6823F00E0399
:1001C0000B6001680B6823F001030B6090F840306E
:1001D000C46B012101FA03F3636080F8211080F8F9
:1001E0002020104610BD000010B590F8211000240A
:1001F000022903D00421816301243DE001680A68DB
:1002000022F00E020A6001680A6822F001020A6008
:100210001A4A0168914201D1012121E0174A1432A2
:10022000914201D110211BE0144A2832914201D1A0
:10023000891515E0114A3C32914201D189140FE031
:100240000E4A5032914202D14FF4803108E00B4AFD
:100250006432914202D14FF4801101E04FF080717D
:10026000064A083A5160012180F82110002180F8E7
:100270002010416B01B18847204610BD08000240A4
:1002800070B5044600F010F90546601C02D0044821
:100290000078044400F008F9401BA042FAD370BD76
:1002A000240000202DE9F84FDFF8B8910024A9F1CF
:1002B000040B23460F2709F1040AABF1040EC9E031
:1002C0000125A5402A40AA427DD1674ED1F804C03D
:1002D000ACEB0608B44532D014DCBCF1030F3AD0C5
:1002E00009DCBCF1000F2AD0BCF1010F1CD0BCF11D
:1002F000020F31D11DE0BCF1110F17D0BCF1120F6C
:100300002AD119E0B8F5881F19D006DCB8F5803F6E
:1003100015D0B8F5801F1FD111E0B8F5001F0ED021
:10032000B8F5041F18D10AE0CB6815E0CB681B1D97
:1003300012E0CB6808330FE0CB680C330CE08B681D
:100340002BB1012B4FF0080303D0456104E00423D7
:1003500002E0056100E00023FF2A01D8064601E023
:1003600000F104064FEA840501D9A5F12005D6F86D
:10037000008007FA05FC28EA0C0803FA05F548EAAC
:100380000508C6F800804D68ED0062D5374DAE69AE
:1003900046F00106AE61AD6924F0030605F00105E3
:1003A0000095334D06EB050CDCF80850A607360F18
:1003B00007FA06F825EA0805DFF8B880404503D1BA
:1003C0004FF0000817E044E0DFF8AC80404502D170
:1003D0004FF001080FE0DFF8A480404502D14FF054
:1003E000020808E0DFF89880404502D14FF003088A
:1003F00001E04FF0040808FA06F848EA0508CCF8CE
:1004000008804D68D9F80060ED024D4601D51643CD
:1004100000E096432E604D68DAF80060AD02554664
:1004200001D5164300E096432E604D68DBF800606E
:10043000AD035D4601D5164300E096432E604D683E
:10044000DEF80060ED03754601D5164300E09643E3
:100450002E60641C0D682A46E5407FF431AFBDE88C
:10046000F88F000008040140000011100010024045
:100470000000014000080140000C01400010014054
:10048000001401408068084000D001207047C26815
:1004900021EA02030A4043EA0241016170470AB1BE
:1004A000016170470904FBE701488068704700005C
:1004B000240000200248816802781144816070475E
:1004C00024000020074810B5016841F010010160C8
:1004D000032000F075F80F2000F006F800F024F873
:1004E000002010BD0020024070B50D4D04464FF4B1
:1004F0007A712878B1FBF0F00A490968B1FBF0F095
:1005000000F0DCFA48B9102C07D200222146501E18
:1005100000F036F800206C6070BD012070BD000056
:1005200024000020300000200C4808B5816941F00B
:1005300001018161816901F001010091C16941F00E
:100540008051C161C06900F080500090044841684A
:1005500021F0E06141F00071416008BD00100240EF
:1005600000000140002809DB00F01F02012191403A
:100570004009800000F1E020C0F800117047000041
:10058000F0B40E4B1B680C46C3F30223C3F10705FE
:10059000042D00D90425191D072901D2002300E0EC
:1005A000DB1E012606FA05F1491E214099409E40B6
:1005B000761E16403143F0BC01F0CCBB0CED00E0E0
:1005C000064900F0070208684FF6FF03184040EAAA
:1005D0000220034A10430860704700000CED00E061
:1005E0000000FA052DE9F0470F46050061D0434EA3
:1005F000306800F00700B84209D2306820F00700E8
:1006000038433060306800F00700B84251D12868A4
:100610003B4C810712D5400703D5606840F4E06089
:1006200060602878000703D5606840F4605060601F
:100630006068A96820F0F000084360602878C0076F
:1006400028D06868012810D02168022810D08907B6
:1006500000292EDA616821F0030101436160FFF790
:1006600023FF804641F288390DE021688903EFE7D6
:100670008901EDE7FFF718FFA0EB0801494502D912
:100680000320BDE8F0876068696800F00C00B0EBFB
:10069000810FEFD1306800F00700B8420BD9306805
:1006A00020F0070038433060306800F00700B8429F
:1006B00001D00120E5E72878400705D56068E968A2
:1006C00020F4E060084360602878000706D5606881
:1006D000296920F4605040EAC100606000F038F8F9
:1006E0006168084AC1F30311515CC84006490860BB
:1006F00006480068FFF7F8FE0020C2E7002002402D
:1007000000100240FA1F00083000002028000020DE
:100710000448054900684968044AC1F30221515C54
:10072000C840704730000020001002400A20000836
:100730000448054900684968044AC1F3C221515C74
:10074000C840704730000020001002400A20000816
:100750000E4A51680E4801F00C03042B11D0082BEF
:100760000FD10C48C1F38343C903C05C0AD551685B
:10077000084AC1F34041921E515C054A5043B0FB08
:10078000F1F07047044948437047000000100240F0
:1007900000127A00EA1F000800093D002DE9F84F19
:1007A000040070D02078C04DC00749D06868C0F3FD
:1007B0008100012807D06868C0F38100022809D1B0
:1007C0006868C00306D52868800339D560680028AA
:1007D000E7D035E06068B0F5803F0BD010B1B0F5E0
:1007E000A02F11D0286820F480302860286820F4D9
:1007F000802002E0286840F480302860606890B172
:10080000FFF752FE06460AE0286840F48020286080
:10081000F0E700BFFFF748FE801B642873D8286804
:100820008003F7D50CE0FFF73FFE064605E000BF6A
:10083000FFF73AFE801B6428F0D828688003F7D4BD
:1008400020789A4E80074FF001094FF0000839D503
:10085000686810F00C0F07D06868C0F381000228A8
:1008600009D16868C00306D42868800714D52069B8
:10087000012808D110E02069B0B1C6F80090FFF758
:1008800013FE074605E00AE1FFF70EFEC01B022833
:10089000C4D828688007F7D52868616920F0F80077
:1008A00040EAC10028600DE0C6F80080FFF7FCFDBB
:1008B000074604E0FFF7F8FDC01B022823D828688C
:1008C0008007F7D4207800072CD57948A169D9B1E1
:1008D000C0F80090FFF7E8FD074604E0FFF7E4FDED
:1008E000C01B02280FD8686A8007F7D571484FF4FB
:1008F000FA510068B0FBF1F0009000BF0098411E73
:100900000091FAD20EE080E0C0F80080FFF7CCFD45
:10091000074604E0FFF7C8FDC01B022875D8686AC7
:100920008007F7D42078400760D5E8690027C00029
:1009300008D4E86940F08050E861E869012700F0D8
:10094000805000905C480168C90513D40168834653
:1009500041F480710160FFF7A7FD824606E000BF09
:10096000FFF7A2FDA0EB0A0064284ED8DBF80000D8
:10097000C005F5D5E06801280AD008B1052813D0D4
:10098000286A20F001002862286A20F0040002E0B2
:10099000286A40F001002862E06841F2883B98B183
:1009A000FFF782FD82460BE0286A40F004002862CF
:1009B000EEE700BFFFF778FDA0EB0A0159455AD8D2
:1009C000286A8007F6D50CE0FFF76EFD824605E049
:1009D000FFF76AFDA0EB0A0159454CD8286A800749
:1009E000F6D41FB1E86920F08050E861E06988B36F
:1009F0006968C1F38101022944D00228C6F86080E9
:100A000004D0FFF751FD044638E034E0FFF74CFD19
:100A1000074604E0FFF748FDC01B02282BD82868D2
:100A20008001F7D4206AB0F5803F05D16868A168DD
:100A300020F4003008436860D4E90801084369687D
:100A400021F4741108436860C6F86090FFF72CFD2C
:100A5000044606E025E000BFFFF726FD001B022844
:100A600009D828688001F7D51BE000BFFFF71CFDFF
:100A7000001B022802D90320BDE8F88F28688001F6
:100A8000F4D40EE00128F7D06868226A00F48031BF
:100A9000914204D1616A00F47010884201D00120B3
:100AA000EAE70020E8E700000010024000004242B0
:100AB00080044242300000200070004010B5401E0B
:100AC000B0F1807F01D3012010BD4FF0E0246061C0
:100AD0000F21601701F03EF90020A061072020617E
:100AE000002010BD70B590F83C20012A26D00124CA
:100AF00080F83C40022280F83D2003685A689D68D7
:100B000022F070060A6832435A600D4B02689A421E
:100B100008D0B2F1804F05D00A4B9A4202D00A4B5E
:100B20009A4204D1496825F080031943916080F806
:100B30003D40002180F83C10084670BD022070BD89
:100B4000002C0140000400400008004010B50400E3
:100B500003D094F83D0010B107E0012010BD002043
:100B600084F83C00204600F01FF8022084F83D0085
:100B7000211D206800F092FE012084F8460084F8D0
:100B80003E0084F83F0084F8400084F8410084F877
:100B9000420084F8430084F8440084F8450084F857
:100BA0003D00002010BD000008B50068B0F1804F86
:100BB00008D10548C16941F00101C161C06900F077
:100BC0000100009008BD00000010024070B504460E
:100BD00090F83C000025012817D0012684F83C60DD
:100BE000022084F83D002068826822F0770222F417
:100BF0007F4282600868502838D00DDC20284FD012
:100C000005DC90B3102811D14AE0022070BD3028D5
:100C100046D040280AD13BE060282FD070280DD064
:100C2000B0F5805F03D0B0F5005F12D0012584F8E5
:100C30003D60002084F83C00284670BDCB68D1E9B7
:100C40000121206800F06DFE2068816841F0770185
:100C500009E0CB68D1E90121206800F062FE20683C
:100C6000816841F480418160E1E719E0CA68496820
:100C7000206800F00BFF5021206806E0CA68496830
:100C8000206800F014FF6021206800F054FECEE7D9
:100C9000CA684968206800F0F9FE40212068F4E73E
:100CA000226801461046F0E700B585B000210091AA
:100CB0000191029103910068B0F1804F11D10A486F
:100CC000816941F0040181618069694600F0040096
:100CD0000490032000900220019003900348FFF746
:100CE000E1FA05B000BD000000100240000801401C
:100CF00070B5044690F83C0000260D4601280FD040
:100D0000012084F83C006AB1042A1DD0082A2FD0A3
:100D10000C2A3FD00126002084F83C00304670BDEC
:100D2000022070BD206800F00FFE2068816941F04C
:100D3000080181612068816921F0040181612068D6
:100D400081692A69114311E0206800F025FE2068BE
:100D5000816941F4006181612068816921F48061C9
:100D60008161206881692A6941EA02218161D2E7B3
:100D7000206800F03DFE2068C16941F00801C161B2
:100D80002068C16921F00401C1612068C1692A6934
:100D9000114311E0206800F057FE2068C16941F45A
:100DA0000061C1612068C16921F48061C16120686E
:100DB000C1692A6941EA0221C161ACE710B50400AA
:100DC00003D094F83D0010B107E0012010BD0020D1
:100DD00084F83C00204600F01EF8022084F83D0014
:100DE000211D206800F05AFD012084F8460084F897
:100DF0003E0084F83F0084F8400084F8410084F805
:100E0000420084F8430084F8440084F8450084F8E4
:100E10003D00002010BD704710B50446022249B1C4
:100E200004290ED0082913D094F84100012816D0C7
:100E3000012010BD94F83E000128F9D184F83E202D
:100E40000FE094F83F000128F2D184F83F2008E039
:100E500094F840000128EBD184F8402001E084F8A8
:100E600041200122206800F04FFD0F492068884290
:100E700003D1426C42F4004242642068884208D0A8
:100E8000B0F1804F05D00949884202D00849884214
:100E900004D1816801F00701062903D0016841F0FF
:100EA00001010160002010BD002C01400004004041
:100EB0000008004070477047F8B5016804460868AC
:100EC000CA684B6910F00F0F4FF0000559D003F0BE
:100ED000010602F49077374365D0C10705D0D105EC
:100EE00003D5616C41F001016164410705D5D90763
:100EF00003D0616C41F002016164810705D5D90717
:100F000003D0616C41F004016164010707D502F070
:100F10002001314303D0616C41F008016164616CD0
:100F200000293AD0800604D5900602D5204600F06C
:100F3000FFFD20684069616CC0F38010090700D490
:100F400060B3204600F0CDFD20684069400621D501
:100F50002068143050E8001F21F0400140E80012E2
:100F6000002AF5D1E06BA8B16D494163E06BFFF752
:100F70003BF9002811D0E06B416B01B0BDE8F040B7
:100F8000084783060FD593060DD52046BDE8F840E7
:100F900000F0CEBD2046FFF78EFFF8BD2046FFF7DC
:100FA0008AFF6564F8BD266B2023012E7CD1C6061E
:100FB0007AD5D60678D508684868009048694FF019
:100FC0000206400640D5E16B086840680004000C4A
:100FD000E8D0A28D8242E5D9E085886920282DD00D
:100FE00020680C3050E8001F21F4807140E80012A6
:100FF000002AF5D12068143050E8001F21F00101CB
:1010000040E80012002AF5D12068143050E8001F93
:1010100021F0400140E80012002AF5D184F8423066
:10102000256320680C3050E8001F21F0100140E8D3
:101030000012002AF5D1E06BFFF7B2F86663A08DCD
:10104000E18D401A81B22AE0A08DE18D401A81B273
:10105000E08D0028A6D00029A4D022680C3252E8E6
:10106000000F20F4907042E80007002FF5D12068AF
:10107000143050E8002F22F0010240E80027002F32
:10108000F5D184F84230256320680C3050E8002FF9
:1010900022F0100240E80023002BF5D166632046C1
:1010A000FFF708FFF8BDFFE705062BD5150629D584
:1010B00094F841002128F5D1A068B0F5805F01D1F6
:1010C0002069B0B1206A411C216221680078486023
:1010D000E08C401E0004000CE084E3D12068C1686D
:1010E00021F08001C1602068C16841F04001C16009
:1010F000D8E7206A0088C0F308004860206A801C96
:101100002062E5E74006CDD55006CBD5CA6820461B
:1011100022F04002CA6084F8413000F0C3F8C1E711
:10112000D31A000870B5040004D094F841000025DB
:1011300010B106E0012070BD84F84050204600F058
:1011400023F8242084F841002068C16821F400516C
:10115000C160204600F04EFD2068016921F49041F5
:1011600001612068416921F02A0141612068C1685C
:1011700041F40051C1606564202084F8410084F886
:1011800042006563002070BD30B585B00024009436
:101190000194029403940068184988422CD118489D
:1011A000816941F480418161816901F48041049148
:1011B000816941F0040181618069124D00F00400F1
:1011C00004904FF4007000900220019003200390DF
:1011D00069462846FFF766F82815CDE900046946F8
:1011E00028460294FFF75EF8002211462520FFF7FB
:1011F000C7F92520FFF7B6F905B030BD003801402A
:10120000001002400008014070472DE9F8430446F1
:1012100090F841001F4616460D46202802D00220B5
:10122000BDE8F8837DB176B100206064212084F8A8
:101230004100FFF739F9A6848046E684A068B0F53E
:10124000805F02D003E00120EAE7206910B12E465A
:1012500000250EE000260CE08021204600F026FD4F
:10126000A0B9AEB116F8010B21684860E08C401EB1
:10127000E084E08C43464FF0000200970028EBD159
:101280004FF04001204600F011FD30B10320C7E7C8
:1012900035F8020BC0F30800E6E7202084F841008F
:1012A0000020BDE77047FEE72DE9F04385B000243C
:1012B00029480094019402940394816941F010013B
:1012C0008161816901F010010491816941F020017F
:1012D0008161816901F020010491816941F004017B
:1012E0008161816901F004010491816941F0080183
:1012F00081618069DFF8648000F008004FF40055D8
:101300000490002229464046FFF7C9F8DFF85090C4
:101310004FF46047002239464846FFF7C0F8009571
:10132000022601250396CDE9015469464046FEF7A1
:10133000B9FF2803CDE90004694648460294FEF748
:10134000B1FF00970396CDE9015469464846FEF780
:10135000A9FF05B0BDE8F083001002400010014075
:10136000000C014010B58EB0002407940894099435
:101370000A940B941C2168460C94FEF7DAFE22486E
:101380004FF0804101604721C0E9011444F61F611C
:10139000C0E903148461FFF7D9FB08B1FEF7FEFE34
:1013A0004FF48050079007A91748FFF70FFC08B1CA
:1013B000FEF7F4FE1448FFF701FD08B1FEF7EEFE5C
:1013C0000B940BA910480C94FFF78CFB08B1FEF7A7
:1013D000E5FE6020CDE900040294002269460A4837
:1013E0000494FFF785FC08B1FEF7D8FE0422694695
:1013F0000548FFF77DFC08B1FEF7D0FE0248FFF775
:1014000053FC0EB010BD0000440000200C4810B585
:101410000A4901604FF4E1314160002181600C22F2
:10142000C160C0E904128161C161FFF77BFE002841
:1014300003D0BDE81040FEF7B1BE10BD003801403A
:101440008C000020FEE7FEE70020044902460A5413
:10145000401CC0B20928FAD37047000038000020B1
:101460002DE9F84F80460120ADF80000234F002100
:101470007970ADF800004FF40049214C45034FF45A
:10148000805A4FF6FF7630E0BDF8000010EA080FF2
:1014900001D0012200E0002249462046FEF7FFFF6E
:1014A000012229462046FEF7FAFF052000F01CFD28
:1014B000002229462046FEF7F2FF052000F014FD29
:1014C000012229462046FEF7EAFF51462046FEF754
:1014D000D9FF20B17878BDF8001008437870BDF8C6
:1014E000000006EA4000ADF80000BDF80000FF284B
:1014F000CAD9BDE8F84F102000F0F6BC3800002033
:10150000000C014070B5FFF79FFF00F095F80B4805
:101510000B4BB0F803100A481B1D4180002001242A
:1015200013F8105000F101006D1E04FA05F20A4292
:10153000C0B202D01028F3D3002070BD38000020C4
:101540000000002070B5184D4FF480440022214661
:101550002846FEF7A4FF102000F0C6FC0120FFF78C
:101560007FFF4320FFF77CFF0020FFF779FF01207A
:10157000FFF776FF0020FFF773FF0020FFF770FFF3
:101580000020FFF76DFF0020FFF76AFF0020FFF744
:1015900067FF012221462846FEF781FFBDE8704023
:1015A000102000F0A1BC0000000C014070B5184DE7
:1015B0004FF48044002221462846FEF770FF102099
:1015C00000F092FC0120FFF74BFF4320FFF748FF9C
:1015D0000020FFF745FF0020FFF742FF5A20FFF7EA
:1015E0003FFF5A20FFF73CFF5A20FFF739FF5A20F0
:1015F000FFF736FF5A20FFF733FF01222146284626
:10160000FEF74DFFBDE87040102000F06DBC0000FB
:10161000000C014010B500F08DF800F08BF800F0E0
:1016200089F8FFF78FFF00F0ADF800F0DBF8BDE8B8
:101630001040FFF7BBBF00002DE9FC4700208DF8EC
:1016400000000124ADF804402E4E02464FF4804ABB
:1016500051463046FEF723FF2B4D2878FFF700FF59
:101660006878FFF7FDFE02208DF80000A0463446A2
:1016700005034FF48059254F4FF6FF7636E040467C
:1016800026E0012229462046FEF709FF052000F04A
:101690002BFC002229462046FEF701FF052000F022
:1016A00023FC012229462046FEF7F9FE4946204642
:1016B000FEF7E8FE40B19DF80000BDF80410385C6C
:1016C00008439DF800107854BDF8040006EA400075
:1016D000ADF80400BDF80400FF28D2D9102000F0B6
:1016E00003FC9DF80000401C8DF800009DF80000F0
:1016F0000928C4D302B051462046BDE8F047012274
:10170000FEF7CDBE000C0140000000203800002094
:1017100010B504460648C1792170017A617041799B
:10172000A1708079E070FFF7EDFE207110BD000020
:101730003800002070B5124D4FF48044002221463D
:101740002846FEF7ACFE102000F0CEFB0120FFF78C
:1017500087FE4220FFF784FE0020FFF781FE002075
:10176000FFF77EFE0020FFF77BFE01222146284680
:10177000FEF795FEBDE87040102000F0B5BB0000FC
:10178000000C014070B5164D4FF4804400222146F4
:101790002846FEF784FE0120FFF762FE4420FFF793
:1017A0005FFE0020FFF75CFE0120FFF759FE0320DB
:1017B000FFF756FE0020FFF753FE0020FFF750FE14
:1017C0000020FFF74DFE0020FFF74AFE01222146D0
:1017D0002846FEF764FEBDE87040102000F084BB90
:1017E000000C014070B5124D4FF480440022214698
:1017F0002846FEF754FE102000F076FB0120FFF78C
:101800002FFE4D20FFF72CFE0020FFF729FE0020C1
:10181000FFF726FE0120FFF723FE0122214628467E
:10182000FEF73DFEBDE87040102000F05DBB0000FB
:10183000000C014070477047FEF73CBE30B58FB0DA
:1018400028216846FEF775FC14210AA8FEF771FCF2
:1018500001210804CDE9001000240294022504911E
:10186000CDE907504FF4E01009906846FEF796FF67
:1018700008B172B6FEE70F20CDE90A054FF480608B
:10188000CDE90C4002210AA80E94FEF7ABFE002819
:1018900001D072B6FEE70FB030BD7047F0B50268F8
:1018A000164B174C174D4FF08047984205D0B84261
:1018B00003D0A04201D0A84203D122F070064A68AA
:1018C0003243984205D0B84203D0A04201D0A8428A
:1018D00003D122F44074CA6822434C6922F080028A
:1018E000224302608A68C2620A688262984201D119
:1018F0000969016301214161F0BD0000002C014034
:10190000000400400008004010B501F01F03012151
:10191000046A99408C430462016A9A40114301624F
:1019200010BD10B5846842EA032224F47F440A43C0
:101930002243826010BD826822F070020A4342F0A6
:10194000070181607047000030B5036A026A22F027
:10195000010202624268846924F073050C682C431A
:1019600023F002058B682B430A4DA8420BD123F0CC
:101970000805CB6822F440722B434D6923F0040321
:1019800015438A692A43426084614968416303625E
:1019900030BD0000002C014030B5026A036A23F01C
:1019A00010030362436884690D6824F4E64444EA42
:1019B00005248D6822F0200242EA05120B4DA84250
:1019C0000ED1CD6822F0800242EA05124D6923F45F
:1019D000406343EA85038D6922F0400243EA8503B0
:1019E0004360846149688163026230BD002C01401C
:1019F00030B5036A026A22F4807202624268C469E6
:101A000023F4007324F073050C682C438D6843EABB
:101A100005230C4DA8420ED1CD6823F4006343EAA0
:101A200005234D6922F4405242EA05128D6923F4E0
:101A3000806342EA05124260C4614968C16303627F
:101A400030BD0000002C014030B5046A026A22F467
:101A5000805202624268C3690D6823F4E64343EA98
:101A600005238D6824F4005444EA0534064DA84249
:101A700004D14D6922F4804242EA85124260C3617A
:101A800049680164046230BD002C014010B5036A4E
:101A9000046A24F001040462846924F0F00444EA36
:101AA000021423F00A020A438461026210BD10B5D9
:101AB000036A046A24F010040462846923F0A0031A
:101AC00024F4704444EA023243EA01118261016263
:101AD00010BD10B5406A0021C185C184FFF7EBF944
:101AE00010BD01680C3151E8002F22F4907241E8DA
:101AF0000023002BF5D10168143151E8002F22F0AA
:101B0000010241E80023002BF5D1016B012909D125
:101B100001680C3151E8002F22F0100241E8002347
:101B2000002BF5D1202180F842100021016370477D
:101B300008B590F84210222901D0022008BD826821
:101B40004FF480539A4201D1016921B1816A9A42CE
:101B50001BD04AB10AE00268816A5268C2F30802E7
:101B60000A80816A891C08E0026972B102685268C1
:101B700002F07F020A70816A491C8162C18D491E90
:101B80000904090CC18503D01BE002685268F1E723
:101B90000168CA6822F02002CA600168CA6822F49B
:101BA0008072CA6001684A6922F001024A612021FC
:101BB00080F8421000214163026B012A03D0FFF735
:101BC00023FB002008BD016301680C3151E8002FA0
:101BD00022F0100241E80023002BF5D101680A68C9
:101BE000D20602D50A6849680091818DFFF762F933
:101BF000E7E7000070B5044600680169E26821F477
:101C00004051114301612169A0680843616908439B
:101C10002168CA6841F20C639A430243CA60206893
:101C20004169A26921F44071114341611E49206854
:101C3000884202D1FEF77CFD01E0FEF769FD00EB72
:101C4000C00101EB0012606864218000B2FBF0F378
:101C5000B3FBF1F36FF018067343B2FBF0F5B2FB80
:101C6000F0F605EB8305322303EB0515B5FBF1F523
:101C7000B6FBF1F605F0F00505EB0615B2FBF0F644
:101C8000B2FBF0F0B0FBF1F06FF01802504306EB3E
:101C9000800003EB0010B0FBF1F0216800F00F00B2
:101CA0002844886070BD0000003801402DE9F041F3
:101CB000984617460E460446069D27E0681C25D028
:101CC0002DB1FEF7F1FBA0EB0800A8421ED9206859
:101CD0000C3050E8001F21F4D07140E80012002AB7
:101CE000F5D12068143050E8001F21F0010140E8D0
:101CF0000012002AF5D1202084F8410084F8420027
:101D0000002084F840000320BDE8F08120680068CE
:101D100036EA000004D00020B842CFD00020F3E71C
:101D20000120F9E70148FFF7C7B800008C00002048
:101D3000FEE700000FB4054B10B503A9044A029852
:101D400000F028F810BC5DF814FB0000191F000813
:101D5000340000200907090E002804DB00F1E02010
:101D600080F80014704700F00F0000F1E02080F8C8
:101D7000141D704702E008C8121F08C1002AFAD1DA
:101D800070477047002001E001C1121F002AFBD1FB
:101D9000704700002DE9FF4F89B09B46044600259F
:101DA00006E025280BD05A460B999047641C6D1C01
:101DB00020780028F5D10DB02846BDE8F08F002727
:101DC000B8460122474900E0074314F8013F203B91
:101DD00002FA03F00842F7D120782E2819D114F81E
:101DE000010F47F004072A280ED06FF02F02207849
:101DF000A0F1300109290CD808EB880102EB410160
:101E000000EB0108641CF2E70A98641C50F8048B8C
:101E10000A9020780028CED0642808D0692806D0FF
:101E200075281ED05A460B9990476D1C58E00A99A8
:101E30004FF00A0901C90A91002802DA40422D2117
:101E400002E0390504D52B218DF82010012103E093
:101E5000F90704D02021F7E78A4608AE0DE00021FB
:101E6000FAE70A994FF00A0901C90A91F7E74946CA
:101E7000FEF76AF9303106F8011D0028F7D1ADEB05
:101E8000060000F12009780701D44FF00108C84589
:101E900002DDA8EB090000E000208046002706E0F4
:101EA00008A85A46C05D0B9990476D1C7F1C57458A
:101EB000F6DB04E030205A460B9990476D1CB8F1D0
:101EC0000001A8F10108F5DC05E016F8010B5A46FF
:101ED0000B9990476D1CB9F10001A9F10109F4DCDF
:101EE000641C65E70928010070B54FF0E02300216C
:101EF0005C6900EBC0009A69C5009869904208D0FF
:101F000002D2A2EB000202E0A4EB0006324411442C
:101F10000246A942F1D370BD13B54FF6FF730122FB
:101F200069460248FFF771F900981CBD8C0000203B
:101F30001CB5FEF7C7FAFFF781FCFFF7B5F9FFF70D
:101F400011FAFFF763FAFFF765FB00212048FEF75F
:101F500063FF04211E48FEF75FFF4FF0804540F20B
:101F6000DC5700246F63AF634FF032084FF00A096B
:101F70004FF4005B4FF0050A9DF80310641CA4B2F7
:101F800008EB4106B4FBF8F108FB114030B911A091
:101F9000FFF7D0FE314611A0FFF7CCFEB6FBF9F0FB
:101FA000B4FBF0F100FB114018B959460D48FEF79B
:101FB0006EFAB4FBFAF10AFB114010B96846FFF75C
:101FC000A7FB07EB460068630A20FEF759F9D3E741
:101FD000440000206E6968616F20200025640D0AAE
:101FE0000000000000100140010202030405060782
:101FF00008090A0B0C0D0E0F101000000000000065
:1020000000000102030406070809000000000102A5
:102010000304000034200008000000203800000005
:10202000741D00086C20000838000020A004000087
:10203000841D0008014200000100020003000400AA
:10204000050006000700080009000A000B000C004C
:102050000D000E000F001000010000001000000035
:0C206000000000000024F400000000005C
:04000005080000ED02
:00000001FF
