:020000040800F2
:10000000D007002089010008671C00081B150008A4
:10001000651C00088F020008E120000800000000B5
:10002000000000000000000000000000B11D0008FA
:10003000D102000800000000D51C0008811E000845
:10004000A3010008A3010008A3010008A301000800
:10005000A3010008A3010008A3010008A3010008F0
:10006000A3010008A3010008A3010008A3010008E0
:10007000A3010008A3010008A3010008A3010008D0
:10008000A3010008A3010008A3010008A3010008C0
:10009000A3010008A3010008A3010008A3010008B0
:1000A000A3010008A3010008A3010008A3010008A0
:1000B000A3010008A3010008A3010008A301000890
:1000C000A3010008A3010008A3010008A301000880
:1000D000A3010008CD200008A3010008A301000827
:1000E000A3010008A3010008A301000800F002F822
:1000F00000F03AF80AA090E8000C82448344AAF188
:100100000107DA4501D100F02FF8AFF2090EBAE885
:100110000F0013F0010F18BFFB1A43F0010318473B
:100120005048000070480000103A24BF78C878C1D9
:10013000FAD8520724BF30C830C144BF04680C60ED
:10014000704700000023002400250026103A28BF35
:1001500078C1FBD8520728BF30C148BF0B60704739
:100160001FB51FBD10B510BD00F058F81146FFF7C0
:10017000F7FF01F0C7FF00F076F803B4FFF7F2FFD6
:1001800003BC00F07DF8000009488047094800479B
:10019000FEE7FEE7FEE7FEE7FEE7FEE7FEE7FEE737
:1001A000FEE7FEE704480549054A064B7047000094
:1001B000E31E0008ED000008D0010020D007002059
:1001C000D0030020D00300204FF0000200B51346FA
:1001D00094469646203922BFA0E80C50A0E80C5067
:1001E000B1F12001BFF4F7AF090728BFA0E80C5018
:1001F00048BF0CC05DF804EB890028BF40F8042B11
:1002000008BF704748BF20F8022B11F0804F18BF7D
:1002100000F8012B7047704770477047754600F033
:100220002BF8AE4605006946534620F00700854688
:1002300018B020B5FFF7B6FFBDE820404FF000062C
:100240004FF000074FF000084FF0000B21F00701BE
:10025000AC46ACE8C009ACE8C009ACE8C009ACE801
:10026000C0098D46704710B50446AFF300802046A4
:10027000BDE81040FFF781BF0048704770010020C3
:1002800001491820ABBEFEE7260002007047FEE7DA
:10029000FEB514200D49CDE90010002647F67C5527
:1002A0002B464FF4FC6202960A21322001F082FDB7
:1002B000064C0E3CE07828B1E670284601F04EF975
:1002C0000020FEBD012000F005FAF3E70E0000203B
:1002D000704772B6FEE700002DE9FF4F83B0044679
:1002E0004720CDE90040DDF844B000274FF08009F9
:1002F0003148109A07EB071110F811301278934229
:1003000040D100EB410A10989AF8011040788142E0
:1003100038D1049804990F3083B204F10F0082B2EF
:10032000204601F085FA002600250AEB060800BFEA
:10033000BBF1000F13D021490598088098F80210EE
:1003400029FA05F0014203D02046049901F030F962
:10035000641C0098A4B2201A102826D00AE098F84D
:10036000021029FA05F0014201D0059800E0069834
:1003700001F0C8FB6D1CEDB2082DD9D3761CF6B286
:10038000202ED1D37F1C0198BFB28742B0D30C4836
:100390004188008807B0491EBDE8F04F401E8BB26F
:1003A00082B20021084601F043BA0498009C401C28
:1003B00080B20490E2E70000DC3B00084E00002021
:1003C0006C0000202DE9FF4F83B004460720CDE9E3
:1003D0000040DDF844B000274FF0800907EB8700AC
:1003E00000EB47113048109A10F811301278934200
:1003F00040D100EB410A10989AF8011040788142F0
:1004000038D104980499173083B204F1170082B2EE
:10041000204601F00DFA002600250AEB060800BF71
:10042000BBF1000F13D021490598088098F80210FD
:1004300029FA05F0014203D02046049901F0B8F8EA
:10044000641C0098A4B2201A182826D00AE098F854
:10045000021029FA05F0014201D0059800E0069843
:1004600001F050FB6D1CEDB2082DD9D3761CF6B20D
:10047000482ED1D37F1C0198BFB28742AED30C481F
:100480004188008807B0491EBDE8F04F401E8BB27E
:1004900082B20021084601F0CBB90498009C401CB0
:1004A00080B20490E2E700004A4500084E000020B8
:1004B0006C0000202DE9FF4F83B004460420CDE9F5
:1004C0000040DDF844B000274FF080093148109A11
:1004D00007EB871110F811301278934240D100EBEE
:1004E000410A10989AF801104078814238D1049856
:1004F00004991F3083B204F11F0082B2204601F03C
:1005000097F9002600250AEB060800BFBBF1000F93
:1005100013D021490598088098F8021029FA05F0AF
:10052000014203D02046049901F042F8641C00986F
:10053000A4B2201A202826D00AE098F8021029FA3E
:1005400005F0014201D0059800E0069801F0DAFAC2
:100550006D1CEDB2082DD9D3761CF6B2802ED1D306
:100560007F1C0198BFB28742B0D30C4841880088F5
:1005700007B0491EBDE8F04F401E8BB282B2002189
:10058000084601F055B90498009C401C80B20490C4
:10059000E2E70000504700084E0000206C000020F9
:1005A00070B5154601F1270293B200F1270292B20D
:1005B00001F03EF900244FF4C86600BF05EB44018A
:1005C00015F81400497840EA012001F09BFA641CF8
:1005D000B442F3DB064841880088491E401EBDE84E
:1005E00070408BB282B20021084601F021B90000B0
:1005F0006C00002010B590F821100022022905D0CF
:100600000421816380F82020012010BD01680B685F
:1006100023F00E030B6001680B6823F001030B60ED
:1006200090F84030C46B012101FA03F3636080F855
:10063000211080F82020104610BD000010B590F861
:1006400021100024022903D00421816301243DE00C
:1006500001680A6822F00E020A6001680A6822F046
:1006600001020A601A4A0168914201D1012121E088
:10067000174A1432914201D110211BE0144A28324A
:10068000914201D1891515E0114A3C32914201D1C4
:1006900089140FE00E4A5032914202D14FF480315A
:1006A00008E00B4A6432914202D14FF4801101E01C
:1006B0004FF08071064A083A5160012180F82110FC
:1006C000002180F82010416B01B18847204610BD01
:1006D0000800024070B5044600F004F90546601CAD
:1006E00002D004480078044400F0FCF8401BA0420B
:1006F000FAD370BD5C0000202DE9F84FDFF8B89107
:10070000002409F1040A0AF1040B23460F270BF118
:10071000040EC9E00125A5402A40AA427DD1674EBA
:10072000D1F804C0ACEB0608B44532D014DCBCF1FF
:10073000030F3AD009DCBCF1000F2AD0BCF1010F45
:100740001CD0BCF1020F31D11DE0BCF1110F17D04C
:10075000BCF1120F2AD119E0B8F5881F19D006DCB8
:10076000B8F5803F15D0B8F5801F1FD111E0B8F55E
:10077000001F0ED0B8F5041F18D10AE0CB6815E0B1
:10078000CB681B1D12E0CB6808330FE0CB680C333D
:100790000CE08B682BB1012B4FF0080303D04561AF
:1007A00004E0042302E0056100E00023FF2A01D8F1
:1007B000064601E000F104064FEA840501D9A5F1DF
:1007C0002005D6F8008007FA05FC28EA0C0803FA91
:1007D00005F548EA0508C6F800804D68ED0062D5C9
:1007E000374DAE6946F00106AE61AD6924F00306EF
:1007F00005F001050095334D06EB050CDCF80850BB
:10080000A607360F07FA06F825EA0805DFF8B880CC
:10081000404503D14FF0000817E044E0DFF8AC801A
:10082000404502D14FF001080FE0DFF8A4804045B9
:1008300002D14FF0020808E0DFF89880404502D16D
:100840004FF0030801E04FF0040808FA06F848EA00
:100850000508CCF808804D68D9F80060ED034D46D6
:1008600001D5164300E096432E604D68DAF800602B
:10087000AD03554601D5164300E096432E604D6802
:10088000DBF80060ED025D4601D5164300E09643BB
:100890002E604D68DEF80060AD02754601D5164346
:1008A00000E096432E60641C0D682A46E5407FF404
:1008B00031AFBDE8F88F00000004014000001110C6
:1008C000001002400000014000080140000C0140FF
:1008D00000100140001401400AB101617047090491
:1008E000FBE7000001488068704700005C000020C2
:1008F0000248816802781144816070475C000020E2
:10090000074810B5016841F010010160032000F0B4
:1009100075F80F2000F006F800F024F8002010BD54
:100920000020024070B50D4D04464FF47A712878CE
:10093000B1FBF0F00A490968B1FBF0F000F047FCA8
:1009400048B9102C07D200222146501E00F036F87C
:1009500000206C6070BD012070BD00005C000020B4
:10096000680000200C4808B5816941F001018161EF
:10097000816901F001010091C16941F08051C161BB
:10098000C06900F0805000900448416821F0E061A7
:1009900041F00071416008BD0010024000000140BC
:1009A000002809DB00F01F0201219140400980006E
:1009B00000F1E020C0F8001170470000F0B40E4BC9
:1009C0001B680C46C3F30223C3F10705042D00D9AD
:1009D0000425191D072901D2002300E0DB1E012692
:1009E00006FA05F1491E214099409E40761E1640A8
:1009F0003143F0BC01F075BB0CED00E0064900F09E
:100A0000070208684FF6FF03184040EA0220034A35
:100A100010430860704700000CED00E00000FA058C
:100A20002DE9F0470F46050061D0434E306800F0D5
:100A30000700B84209D2306820F007003843306020
:100A4000306800F00700B84251D128683B4C81075C
:100A500012D5400703D5606840F4E06060602878F4
:100A6000000703D5606840F4605060606068A96862
:100A700020F0F000084360602878C00728D068683C
:100A8000012810D02168022810D0890700292EDA09
:100A9000616821F0030101436160FFF723FF804695
:100AA00041F288390DE021688903EFE78901EDE71C
:100AB000FFF718FFA0EB0801494502D90320BDE864
:100AC000F0876068696800F00C00B0EB810FEFD12F
:100AD000306800F00700B8420BD9306820F00700FA
:100AE00038433060306800F00700B84201D0012080
:100AF000E5E72878400705D56068E96820F4E060FC
:100B0000084360602878000706D56068296920F4EA
:100B1000605040EAC100606000F038F86168084A3F
:100B2000C1F30311515CC8400649086006480068DB
:100B3000FFF7F8FE0020C2E700200240001002404C
:100B4000584900086800002060000020044805495A
:100B500000684968044AC1F30221515CC8407047EB
:100B60006800002000100240684900080448054958
:100B700000684968044AC1F3C221515CC84070470B
:100B800068000020001002406849000812A185B0EA
:100B90000FC98DE80F0014A0144A00680490516832
:100BA000134801F00C03042B10D0082B0ED1C1F315
:100BB0008343C9031DF803000AD5516804AAC1F391
:100BC0004041515C0A4A5043B0FBF1F005B0704718
:100BD00008494843FAE7000002030405060708092C
:100BE0000A0B0C0D0E0F1010010200000010024045
:100BF00000127A0000093D002DE9F84F040070D082
:100C00002078C04DC00749D06868C0F38100012832
:100C100007D06868C0F38100022809D16868C00362
:100C200006D52868800339D560680028E7D035E00C
:100C30006068B0F5803F0BD010B1B0F5A02F11D097
:100C4000286820F480302860286820F4802002E0A2
:100C5000286840F480302860606890B1FFF742FE59
:100C600006460AE0286840F480202860F0E700BFCC
:100C7000FFF738FE801B642873D828688003F7D5F7
:100C80000CE0FFF72FFE064605E000BFFFF72AFE47
:100C9000801B6428F0D828688003F7D420789A4E07
:100CA00080074FF001094FF0000839D5686810F04F
:100CB0000C0F07D06868C0F38100022809D168686A
:100CC000C00306D42868800714D52069012808D1FC
:100CD00010E02069B0B1C6F80090FFF703FE0746A8
:100CE00005E00AE1FFF7FEFDC01B0228C4D8286812
:100CF0008007F7D52868616920F0F80040EAC10054
:100D000028600DE0C6F80080FFF7ECFD074604E020
:100D1000FFF7E8FDC01B022823D828688007F7D416
:100D2000207800072CD57948A169D9B1C0F8009086
:100D3000FFF7D8FD074604E0FFF7D4FDC01B0228EB
:100D40000FD8686A8007F7D571484FF4FA510068E8
:100D5000B0FBF1F0009000BF0098411E0091FAD264
:100D60000EE080E0C0F80080FFF7BCFD074604E01D
:100D7000FFF7B8FDC01B022875D8686A8007F7D452
:100D80002078400760D5E8690027C00008D4E869EA
:100D900040F08050E861E869012700F08050009041
:100DA0005C480168C90513D40168834641F4807129
:100DB0000160FFF797FD824606E000BFFFF792FD56
:100DC000A0EB0A0064284ED8DBF80000C005F5D57A
:100DD000E06801280AD008B1052813D0286A20F05D
:100DE00001002862286A20F0040002E0286A40F02E
:100DF00001002862E06841F2883B98B1FFF772FD7C
:100E000082460BE0286A40F004002862EEE700BF4B
:100E1000FFF768FDA0EB0A0159455AD8286A8007F8
:100E2000F6D50CE0FFF75EFD824605E0FFF75AFDC0
:100E3000A0EB0A0159454CD8286A8007F6D41FB1A7
:100E4000E86920F08050E861E06988B36968C1F31F
:100E50008101022944D00228C6F8608004D0FFF73F
:100E600041FD044638E034E0FFF73CFD074604E06E
:100E7000FFF738FDC01B02282BD828688001F7D463
:100E8000206AB0F5803F05D16868A16820F4003081
:100E900008436860D4E908010843696821F47411C3
:100EA00008436860C6F86090FFF71CFD044606E042
:100EB00025E000BFFFF716FD001B022809D82868AF
:100EC0008001F7D51BE000BFFFF70CFD001B0228D7
:100ED00002D90320BDE8F88F28688001F4D40EE021
:100EE0000128F7D06868226A00F48031914204D169
:100EF000616A00F47010884201D00120EAE7002006
:100F0000E8E7000000100240000042428004424234
:100F1000680000200070004070B5040009D0606ACD
:100F2000002540B125616561A56294F8510040B18A
:100F30000CE0012070BD6068B0F5827FF4D0E561FF
:100F4000F2E784F85050204600F040F8022084F880
:100F500051002068016821F040010160A0882189CA
:100F600000F4827001F404410843A18901F4006196
:100F70000843217C01F002010843217D01F00101B9
:100F80000843218B01F400710843217F01F03801EF
:100F9000084394F8201001F080010843218D01F4EA
:100FA0000051084321680860A069042101EA10404B
:100FB000216848602068C16921F40061C1616565EC
:100FC000012084F85100002070BD000010B586B0EB
:100FD000002100910191029103911E4C03681E486B
:100FE00002210322A34216D1836943F48053836113
:100FF000836903F480530493836943F0040383619A
:101000008069039200F004000490A020CDE9000163
:101010006946124819E0124CA34218D1C36943F43F
:101020008043C361C36903F480430493836943F03D
:10103000080383618069039200F0080004904FF474
:101040002040CDE9000169460648FFF755FB06B090
:1010500010BD0000003001400010024000080140B7
:1010600000380040000C01402DE9F84F044690F88C
:10107000500000271D461646894601280DD04FF026
:10108000010B84F850B0FFF72DFC804694F8510016
:10109000BA46012804D0022793E00220BDE8F88F69
:1010A000B9F1000F73D0002E71D0032084F85100E5
:1010B000C4F854A0C4F83090A686E686C4F838A0D8
:1010C000A4F83CA0A4F83EA0C4F844A0C4F840A0F2
:1010D000A068B0F5004F09D12068016821F04001F7
:1010E00001602068016841F4804101602068016866
:1010F000490603D4016841F040010160E068B0F5A1
:10110000006F606803D030B3012E24D041E008B1F5
:10111000012E1CD1206B21680088C86006E0206881
:101120008168890709D5216B0988C160206B801C03
:101130002063E08E401EE08609E0FFF7D3FBA0EBC2
:101140000800A84202D3681C01D031E07DB3E08ED4
:101150000028E4D120E0206B21680078087306E0C5
:1011600020688168890709D5216B09780173206B94
:10117000401C2063E08E401EE0860AE0FFF7B2FBD1
:10118000A0EB0800A84203D3681C02D010E017E0CF
:101190006DB1E08E0028E3D142462946204600F09A
:1011A0009AFD08B120206065A06818B106E0FFE74D
:1011B000032706E02068C16880680090606D00B178
:1011C000012784F851B084F850A0384666E710B57E
:1011D000401EB0F1807F01D3012010BD4FF0E0240C
:1011E00060610F21601700F07CFF0020A0610720E4
:1011F0002061002010BD704770470000F8B50268FC
:1012000004461068D168536910F00F0F4FF00005C5
:1012100053D003F0010601F4907737435FD0C20743
:1012200005D0CA0503D5226C42F0010222644207B0
:1012300005D5DA0703D0226C42F00202226482074D
:1012400005D5DA0703D0226C42F0040222640207BB
:1012500007D501F02002324303D0226C42F008028D
:101260002264226C002A34D0800604D5880602D578
:10127000204600F057FE20684069216CC0F38010C2
:10128000090700D430B3204600F034FE20684169DD
:1012900049061BD5416921F040014161A06BA8B10D
:1012A00058494163A06BFFF7C9F9002811D0A06B22
:1012B000416B01B0BDE8F040084783060FD58B06AF
:1012C0000DD52046BDE8F84000F02CBE2046FFF7C3
:1012D00093FFF8BD2046FFF78FFF2564F8BD266B0E
:1012E0002023012E52D1C60650D5CE064ED5106809
:1012F00050680090506940062AD5A16B0868406884
:101300000004000CEAD0A68D8642E7D9E085886902
:10131000202818D0D06820F48070D06020684169FF
:1013200021F0010141612068416921F040014161E2
:1013300084F83E3025632068C16821F01001C16047
:10134000A06BFFF757F9A08DE18D401A81B219E02B
:10135000A08DE18D401A81B2E08D0028BED0002919
:10136000BCD0D06820F49070D0602068426922F030
:101370000102426184F83E3025632068C26822F091
:101380001002C2602046FFF736FFF8BD05062BD5D8
:101390000D0629D594F83D002128F6D1A068B0F5B6
:1013A000805F01D12069B0B1206A411C21622168AF
:1013B00000784860E08C401E0004000CE084E4D11A
:1013C0002068C16821F08001C1602068C16841F0D7
:1013D0004001C160F8BD206A0088C0F30800506079
:1013E000206A801C2062E5E74006F3D54806F1D567
:1013F000D168204621F04001D16084F83D3000F0F2
:101400008BF8F8BDE51E000870B5040004D094F810
:101410003D00002510B106E0012070BD84F83C506D
:10142000204600F023F8242084F83D002068C1689D
:1014300021F40051C160204600F0D0FD2068016910
:1014400021F4904101612068416921F02A01416144
:101450002068C16841F40051C1602564202084F8EF
:101460003D0084F83E00002070BD000030B585B01E
:10147000002400940194029403940068184988425F
:101480002CD11848816941F480418161816901F45E
:1014900080410491816941F0040181618069124DAC
:1014A00000F0040004904FF40070009002200190BE
:1014B0000320039069462846FFF71EF92815CDE959
:1014C0000004694628460294FFF716F900221146E7
:1014D0002520FFF773FA2520FFF762FA05B030BD2B
:1014E00000380140001002400008014090F83E30F2
:1014F000202B0ED159B152B190F83C30012B08D0BD
:10150000012380F83C300023036300F0C3BD0120B9
:1015100070470220704770477047FEE7FEB5142001
:101520000D49CDE90010002647F67C552B464FF4B7
:10153000FC6202960A21322000F03CFC064C0B3C77
:10154000E07828B1E670284600F008F80020FEBDDB
:101550000120FFF7BFF8F3E70B0000202DE9F0476B
:10156000114C8146002163882288084600F060F90A
:101570000E484FF400670760A0F104088114C8F812
:101580000010002609E0002503E0484600F0BAFA02
:101590006D1C2088A842F8D8761C6088B042F2D82A
:1015A000C8F80070BDE8F0876C000020140C014002
:1015B00010B500F039F903480088BDE8104000F08C
:1015C000A1BA00004E00002010B500F01BF9112058
:1015D00000F03EFA7820FFF77DF8B12000F038FAED
:1015E000012000F01FFA2C2000F01CFA2D2000F042
:1015F00019FAB22000F02CFA012000F013FA2C2086
:1016000000F010FA2D2000F00DFAB32000F020FABF
:10161000012000F007FA2C2000F004FA2D2000F041
:1016200001FA012000F0FEF92C2000F0FBF92D203A
:1016300000F0F8F9B42000F00BFA072000F0F2F9FE
:10164000C02000F005FAA22000F0ECF9022000F022
:10165000E9F9842000F0E6F9C12000F0F9F9C5208D
:1016600000F0E0F9C22000F0F3F90A2000F0DAF906
:10167000002000F0D7F9C32000F0EAF98A2000F03A
:10168000D1F92A2000F0CEF9C42000F0E1F98A2037
:1016900000F0C8F9EE2000F0C5F9C52000F0D8F937
:1016A0000E2000F0BFF9362000F0D2F9C82000F07B
:1016B000B9F9E02000F0CCF90F2000F0B3F91A20BE
:1016C00000F0B0F90F2000F0ADF9182000F0AAF9F1
:1016D0002F2000F0A7F9282000F0A4F9202000F026
:1016E000A1F9222000F09EF91F2000F09BF91B2099
:1016F00000F098F9232000F095F9372000F092F9D6
:10170000002000F08FF9072000F08CF9022000F093
:1017100089F9102000F086F9E12000F099F90F20F6
:1017200000F080F91B2000F07DF90F2000F07AF91D
:10173000172000F077F9332000F074F92C2000F026
:1017400071F9292000F06EF92E2000F06BF930209D
:1017500000F068F9302000F065F9392000F062F9F6
:101760003F2000F05FF9002000F05CF9072000F056
:1017700059F9032000F056F9102000F053F92A20FF
:1017800000F066F9002000F04DF9002000F04AF961
:10179000002000F047F97F2000F044F92B2000F0F2
:1017A00057F9002000F03EF9002000F03BF900203E
:1017B00000F038F99F2000F035F9F02000F048F9EA
:1017C000012000F02FF9F62000F042F9002000F08F
:1017D00029F93A2000F03CF9052000F023F92920EE
:1017E00000F036F9002000F059F905494FF4806007
:1017F0000860BDE810404FF6FF70FFF7AFBE000075
:10180000100C014010B507484FF480440460642078
:10181000FEF760FF0348001F0460BDE8104032205F
:10182000FEF758BF140C01400B460246AFF3008090
:101830002DE9F041174C0746984615460E46A07A0A
:1018400000F006F9002000F0EDF8A07B3844C0B2AB
:1018500000F0E8F8002000F0E5F8A07B2844C0B2D2
:1018600000F0E0F8207B00F0F3F8002000F0DAF858
:10187000E07B3044C0B200F0D5F8002000F0D2F890
:10188000E17B01EB0800C0B200F0CCF8BDE8F0410C
:1018900000F0F4B86C0000202DE9FF4F81B08A46BB
:1018A0000EA9DFF8EC9091E83100203800F0FF0835
:1018B0000AEB0400401E83B20198B9F800B000EBB7
:1018C0005400401E82B251460198FFF7B1FF002D2F
:1018D0004FF0000549D12F4808EB480100EB810A81
:1018E00000F2744000EB081817E00C2C03D018F835
:1018F000057000260CE01AF80570FAE7F80701D029
:10190000039800E0049800F0FDF87F08761CF6B21A
:10191000B6EB540FF2D36D1CEDB2A542E5D326E031
:101920000C2C08D01C4901EB08100026475D0AEB7F
:101930000500009014E0174808EB480100EB810017
:10194000F3E70398A9F80000F80706D0009881B2E1
:101950000198304480B2FFF72BFE7F08761CF6B268
:10196000B6EB540FEDD36D1CEDB2A542D8D30B48A6
:10197000A9F800B04188008805B0491EBDE8F04FC5
:10198000401E8BB282B200210846FFF751BF000013
:101990004E00002078310008EC3500086C00002073
:1019A0002DE9FF4F83B00026DDF840801D46344608
:1019B000B2464FEA5807DFF86490DFF864B028E0D9
:1019C000281B401EC1B20A2000F064FD0599B1FB3E
:1019D000F0F00A21B0FBF1F201FB120026B9691EFA
:1019E0008C4201DA28B101263030C0B28DE8010501
:1019F00002E020228DE804050398B9F8003007FBC7
:101A0000040080B2BBF800200499FFF745FF641C76
:101A1000E4B2AC42D4D307B0BDE8F08F5000002050
:101A20004E00002031B508484FF400640460064DB4
:101A300080142D1F28600223012269460348FFF706
:101A400013FB2C6038BD0000140C01407C0000200A
:101A500031B508484FF4006404608114016002232A
:101A6000012269460448FFF7FFFA0248001F04609C
:101A700038BD0000140C01407C0000200148007AB1
:101A8000FFF7E6BF6C00002010B50C46FFF7E0FF43
:101A9000E0B2BDE81040FFF7C5BF000030B4184900
:101AA0002A2203254A812B228A812C220A810222A2
:101AB0008023A02478B1012813D00125022816D054
:101AC00003281AD10C804B808D73CA73682130BCF7
:101AD0003620FFF7D9BF0B804C808A73CD73C821A5
:101AE000F5E70C804B808D73CA73A821EFE70B805C
:101AF0004C808A73CD730821E9E730BC7047000041
:101B00006C00002038B508494FF400640C60064DA5
:101B100089142D1F2960022300901A466946034844
:101B2000FFF7A2FA2C6038BD140C01407C000020A5
:101B300070B586B000241848009401940294039470
:101B4000816941F020018161816901F020010491E6
:101B5000816941F004018161816901F0040104910E
:101B6000816941F00801816180690C4E00F0080034
:101B70004FF4B8450490002229463046FEF7ACFEEB
:101B800001200095CDE9010402200390694630460A
:101B9000FEF7B2FD06B070BD00100240000C01401F
:101BA000104810B50E4901604FF482714160002168
:101BB0008160C1604FF400720161C0E90512082222
:101BC000C0E90721416281620A21C162FFF7A4F9DD
:101BD000002803D0BDE81040FEF77BBB10BD00001D
:101BE000003001407C0000200F4810B50D49016015
:101BF0004FF48271416000218160C1604FF4007236
:101C00000161C0E90512C1610162416281620A217C
:101C1000C162FFF781F9002803D0BDE81040FEF74C
:101C200058BB10BD00380040D40000200C4810B54F
:101C30000A4901604FF416514160002181600C2275
:101C4000C160C0E904128161C161FFF7DDFB0028BA
:101C500003D0BDE81040FEF73CBB10BD003801408A
:101C60002C010020FEE7FEE7FEB514261848CDE95A
:101C70000006002547F67C573B464FF4FC620A21DC
:101C80000295322000F096F8114C083CE07828B11B
:101C9000E5703846FFF762FC0020FEBD207828B1D1
:101CA0002570A079FA2801D20A30A071607820B19D
:101CB0006570A07908B10A38A07100960323A27953
:101CC00050212820FFF76CFE0120FEF703FDDDE721
:101CD00008000020704738B50B46009204460022E9
:101CE000802100F009F8002804D0606D40F0200049
:101CF0006065032038BD00002DE9F8431E4691467B
:101D000088460446089DFEF7EDFD401B351AFEF798
:101D1000E9FD074625480068C0F3CB30684338E04A
:101D2000701C37D0FEF7DEFDC01BA84203D215B1F0
:101D3000009860B32CE02068416821F0E001416028
:101D40006068B0F5827F0BD1A068B0F5004F02D07B
:101D5000B0F5806F04D12068016821F04001016076
:101D6000A06AB0F5005F09D12068016821F4005134
:101D700001602068016841F400510160012084F88D
:101D80005100002084F850000320BDE8F8830025AE
:101D9000401E00902068816838EA010004D00021CC
:101DA0004945BDD10020F0E70121F9E76800002096
:101DB000704700002DE9FF4F83B0884610A9044604
:101DC00091E86004814628782C4F9B46002852D029
:101DD0003888A0EB5601A1424DDB79888A1B424529
:101DE00049DB2978802915D9801BA04243DB424575
:101DF00041DB202E33D0CDE9005A059A182E5B46E0
:101E00004146204634D0FEF767FAA01984B215F88F
:101E1000020FDBE70D290DD0102E12D910228DE80C
:101E200006045B4641462046059AFFF735FD083417
:101E3000A4B211E008EB06001FFA80F84C466D1CB6
:101E40000AE08DE842045B4641462046059AFFF7CA
:101E500023FD04EB560084B215F8010FB6E7CDE977
:101E6000005A5B4641462046059AFEF723FBCCE725
:101E7000FEF7A8FAC9E707B0BDE8F08F6C000020B4
:101E8000FEF736BD30B58FB028216846FEF79CF9C5
:101E900014210AA8FEF798F901210804CDE90010E1
:101EA0000024029402250491CDE907504FF4E0107C
:101EB00009906846FEF7A0FE08B172B6FEE70F2053
:101EC000CDE90A054FF48060CDE90C4002210AA853
:101ED0000E94FEF7A5FD002801D072B6FEE70FB004
:101EE00030BD704710B5406A0021C185C184FFF73D
:101EF00083F910BD0168CA6822F49072CA60016853
:101F00004A6922F001024A61016B012904D101688A
:101F1000CA6822F01002CA60202180F83E10002119
:101F20000163704708B590F83E10222901D00220C5
:101F300008BD82684FF480539A4201D1016921B1F2
:101F4000816A9A421BD04AB10AE00268816A5268EB
:101F5000C2F308020A80816A891C08E0026972B132
:101F60000268526802F07F020A70816A491C81622D
:101F7000C18D491E0904090CC18503D019E002680E
:101F80005268F1E70168CA6822F02002CA6001685D
:101F9000CA6822F48072CA6001684A6922F00102AC
:101FA0004A61202180F83E10016B012903D0FFF720
:101FB000B2FA002008BD002101630168CA6822F05E
:101FC0001002CA6001680A68D20602D50A68496828
:101FD0000091818DFFF70FF9EBE7000070B5044623
:101FE00000680169E26821F44051114301612169EF
:101FF000A0680843616908432168CA6841F20C631C
:102000009A430243CA6020684169A26921F4407181
:10201000114341611E492068884202D1FEF7A6FDA6
:1020200001E0FEF793FD00EBC00101EB00126068D8
:1020300064218000B2FBF0F3B3FBF1F36FF01806FC
:102040007343B2FBF0F5B2FBF0F605EB83053223E8
:1020500003EB0515B5FBF1F5B6FBF1F605F0F00560
:1020600005EB0615B2FBF0F6B2FBF0F0B0FBF1F0B9
:102070006FF01802504306EB800003EB0010B0FB3A
:10208000F1F0216800F00F002844886070BD000066
:102090000038014081628285C285002101642222CC
:1020A00080F83E2080F83C100168CA6842F48072D3
:1020B000CA6001684A6942F001024A610068C16869
:1020C00041F02001C16000207047000010B50348B6
:1020D000FFF794F8BDE8104000F0E4B92C010020AF
:1020E000FEE70907090E002804DB00F1E02080F874
:1020F0000014704700F00F0000F1E02080F8141D7C
:1021000070470000FEF7FCFBFFF7BCFEFFF710FD79
:10211000FFF76AFDFFF78AFDFFF742FDFFF754FA6C
:102120004FF47A70FEF7D6FA47F67C50FFF716FAAE
:10213000154A69212D20FEF733FA07221349144866
:10214000FFF7D4F9134D144C00F028F8287038B17B
:102150000128F9D00228F7D100F07CF92070F3E7CC
:1021600000F0D4F8207030B1012807D0022808D040
:102170000A28F5D1E8E7FFF777FDF1E7FFF7CEF999
:10218000EEE7FEF785F8EBE7F824000852000020A0
:102190002C0100204C0000204D0000202DE9FE4FB6
:1021A000584E0025A6F11C043580E57147F67C5198
:1021B000E07906EB4002401CC0B25180E071032878
:1021C000F6D3504A10200B3ACDE9002047F67C5355
:1021D00002954FF4FC620A213220FFF7EBFDDFF895
:1021E00024B10C270BF1080BCDF800B0CDE9017537
:1021F00033881F2228212D20FFF7DCFDABF10E0ACA
:10220000CDF800A0CDE9017573881F2237212D205C
:10221000FFF7D0FD0AF11809CDF80090CDE901755E
:10222000B3881F2246212D20FFF7C4FD09F10F08B6
:10223000CDF80080CDE90175F3881F2255212D20AE
:10224000FFF7B8FD304A69212D20FEF7A9F9207863
:1022500030B1207908B1401E00E0032020712570C4
:10226000607828B1207903280CD0401C207165705B
:10227000A07848B1A57047F67C50FFF76FF9207938
:10228000BDE8FE8F2571F2E7E07800B1E570E571F9
:10229000217947F67C52E079884202D126F8105025
:1022A00001E026F81020401CC0B2E0710428F2D3EF
:1022B000CDF800B0CDE9017533881F2228212D20EB
:1022C000FFF778FDCDF800A0CDE9017573881F22D6
:1022D00037212D20FFF76EFDCDF80090CDE9017577
:1022E000B3881F2246212D20FFF764FDCDF8008022
:1022F000CDE90175F3881F2255212D20FFF75AFDE6
:10230000A5E700001C000020F82400082DE9FE4F7E
:10231000DFF83881002547F67C57A8F80050A8F868
:102320000270A8F80470102008F10801CDE900102F
:1023300044463B464FF4FC6202950A211E20FFF7FB
:1023400039FDA8F114090C26CDF80090CDE90165FE
:1023500023881F2237212D20FFF72CFDA8F1110B18
:10236000CDF800B0CDE9016563881F2246212D20FC
:10237000FFF720FDA8F10E0ACDF800A0CDE9016518
:10238000A3881F2255212D20FFF714FD304A692113
:102390002D20FEF705F91C3C207830B1607908B19A
:1023A000401E00E0022060712570607828B16079DD
:1023B00002280BD0401C60716570A07840B1A570F8
:1023C0003846FFF7CBF86079BDE8FE8F6571F3E71B
:1023D000E07828B1E5703846FFF7C0F80A20F3E747
:1023E000E57162794146E079904202D121F81050BE
:1023F00001E021F81070401CC0B2E0710328F2D354
:10240000CDF80090CDE90165B8F800301F223721E2
:102410002D20FFF7CFFCCDF800B0CDE90165B8F86D
:1024200002301F2246212D20FFF7C4FCCDF800A06A
:10243000CDE90165B8F804301F2255212D20FFF7A2
:10244000B9FC0120FEF746F9A6E700001C000020B9
:10245000F8240008FEB514200D49CDE9001000262F
:1024600047F67C552B464FF4FC6202960A211E204B
:10247000FFF7A0FC064C2E3CE07828B1E670284619
:10248000FFF76CF80020FEBD0120FEF723F9F3E70B
:102490002E0000200246012000E05043491EC9B230
:1024A000FBD2704711480178A52919D14378012141
:1024B0000F4A0A2B09D08378142B08D0C3781E2B1F
:1024C00007D00379282B06D006E0117004E0517084
:1024D00002E0917000E0D170002101608180817183
:1024E000072202490348FFF701B80000520000200C
:1024F000000000202C010020FFFFFFFFFFFFFFFF77
:10250000FFFFFFFFFFFFFFFFFFFFFFFFFFFFFFFFDB
:10251000FFFFFFFFFFFFBEF7FFFFDEFF38C6928C15
:102520008E6B6E6B107C96AD3CE7FFFFFFFFFFFFED
:10253000FFFFFFFFFFFFFFFFFFFFFFFFFFFFFFFFAB
:10254000FFFFFFFFFFFFFFFFFFFFFFFFFFFFFFFF9B
:10255000FFFFFFFFFFFFFFFFFFFFFFFFFFFFFFFF8B
:10256000FFFFFFFFFFFF5DEF159D4F636C420A32D7
:102570008829461925194521E8318E6B38C6FFFF99
:10258000FFFFFFFFFFFFFFFFFFFFFFFFFFFFFFFF5B
:10259000FFFFFFFFFFFFFFFFFFFFFFFFFFFFFFFF4B
:1025A000FFFFFFFFFFFFFFFFFFFFFFFFFFFFFFFF3B
:1025B000FFFFFFFF36A51053104B51530F4B6C3AE2
:1025C000E93167212519E410A30862008308CB5282
:1025D0009AD6FFFFFFFFFFFFFFFFFFFFFFFFFFFF99
:1025E000FFFFFFFFFFFFFFFFFFFFFFFFFFFFFFFFFB
:1025F000FFFFFFFFFFFFFFFFFFFFFFFFFFFFFFFFEB
:102600003CE77063B363B87CF56311434D32EA294C
:10261000882126190519051904110411E4108300F5
:10262000A308728CFFFFFFFFFFFFFFFFFFFFFFFF0D
:10263000FFFFFFFFFFFFFFFFFFFFFFFFFFFFFFFFAA
:10264000FFFFFFFFFFFFFFFFFFFFFFFFFFFFDBDEDF
:102650004B3AF042356C544BB1322E2AEB21A92172
:102660006719051904110411041104110411051945
:10267000E4104200AF73FFFFFFFFFFFFFFFFFFFF0C
:10268000FFFFFFFFFFFFFFFFFFFFFFFFFFFFFFFF5A
:10269000FFFFFFFFFFFFFFFFFFFFFFFF5DEF0932BF
:1026A0004C32104B8F324F2A2E2ACC19891989218E
:1026B0004719051904110411C410C41004110411A0
:1026C0000411E41042003184FFFFFFFFFFFFFFFF12
:1026D000FFFFFFFFFFFFFFFFFFFFFFFFFFFFFFFF0A
:1026E000FFFFFFFFFFFFFFFFFFFFFFFFEC52471958
:1026F0004C320B2AEC21EC210C22915BEE4A0611A4
:1027000026190419E410E410A7296621A308051965
:1027100004110411E4108200F7BDFFFFFFFFFFFF6B
:10272000FFFFFFFFFFFFFFFFFFFFFFFFFFFFFFFFB9
:10273000FFFFFFFFFFFFFFFFFFFF35A58308882195
:1027400088218921AA218A216B42718CFFFF728C1A
:1027500083080411C4082942FBDE5DEFEC5A8308AC
:102760000411041104118308E831DFFFFFFFFFFFAC
:10277000FFFFFFFFFFFFFFFFFFFFFFFFFFFFFFFF69
:10278000FFFFFFFFFFFFFFFFBEF7C731C410251992
:10279000261947194719A8298A52284A55ADFFFF1B
:1027A000E831A30805194D6B4D6BFFFF7DEF452107
:1027B000C410041104110411620076ADFFFFFFFF85
:1027C000FFFFFFFFFFFFFFFFFFFFFFFFFFFFFFFF19
:1027D000FFFFFFFFFFFFFFFF96B562000411041922
:1027E00005110519C4088B4AB6B55DEFF7BDFFFFAB
:1027F0008E6B62002942AA5A0842FFFFFFFFCC52AB
:102800008308041104110411A308AD52FFFFFFFF58
:10281000FFFFFFFFFFFFFFFFFFFFFFFFFFFF1CE7C3
:10282000FFFFFFFFFFFFFFFF4E6362000411041173
:102830000411E41062008E63FFFFFFFFFFFFFFFF44
:10284000CF730100F39C2C6396B5FFFFFFFF2D5B58
:102850008300041104110411E41067213DEFFFFF10
:10286000FFFFFFFFFFFFFFFFF8BDB7B59EEFCB52A5
:10287000B394FFFFFFFFDFFFE831A3080411041149
:1028800004110411A3084942FFF7FFF7FFFFFFFF00
:102890006A4A01007284FFFFFFFFFFF7DFEF093A8A
:1028A000A3080411041104110411051118BEFFFF3F
:1028B000FFFFFFFFFFFFFFFFF07B6200E831C73142
:1028C000410035A5FFFF5DEF4621C410041104113E
:1028D00004110411E410A308769DFFF7FFFFB7ADC4
:1028E000A308A308C7319EE7FFF7FFF776A5A30863
:1028F000E4100411041104110511051135A5FFFFA1
:10290000FFFFFFFFFFFFFFFFDBDEA7298300C410EF
:10291000C410C4101CE79EEF0511E410041104114B
:10292000041104110419C408E510D16BD16BC5085A
:102930006400A50843002B32779DB3842519C41089
:10294000041104110411041125192609359DFFFFF6
:10295000FFFFFFFFFFFFFFFFFFFFAF7362000419E0
:10296000051982000D5B8E9B621005110411041184
:102970000419E41085000511C439815A407B229C5A
:1029800043AC03A4839B82728249C218A400C50091
:10299000E41004190411051947196711EC5ABEFF18
:1029A000FFFFFFFFFFFFFFFFDFFFDBDEC410E410D0
:1029B00004110511A41801C08388E4000519041945
:1029C000C5084421438323D542FEE4FE27FF07FFC9
:1029D000A4FE64FE03FEA3FDE2FC42EC83B324628A
:1029E000E510C40804192619A81987210090D3BC42
:1029F000FFFFFFFFFFFFFFFFDFFFFFFF107C420035
:102A000005190511832801D044F8A348E400C5083E
:102A1000445A02EDE2FD02FE66FE74FFB8FF73FF4A
:102A2000E7F6A6F645F6A4F5C3FC62FCC2FCC2FCC0
:102A3000E3CBC449061188198701A49001F8EC9AE8
:102A4000FFFFFFFFFFFFFFFFFFFFFFFFBEF7E831C4
:102A500083000509824001C023F885F0A348A40043
:102A6000445A02FD23CCC2DC04FE28FE48F646F69A
:102A700024F6E4F564FDE3FC62FCC2FC02E402DC43
:102A8000E2FCA47A48016701C47824F802F884B013
:102A90007DE7FFFFFFFFFFFFFFFFFFFFFFFFDBDE25
:102AA0002519A300C43802E022D844F8A6F8A47877
:102AB0006300432183728339829B21F561FD22FDEE
:102AC000E2FCA2FC42FC42FC42FC22AB8341C392EA
:102AD000045226012519A49844F823F802F8A4D03A
:102AE0009EEFFFFFFFFFFFFFFFFFFFFFFFFFFFFF67
:102AF0009AD68729A50043B822F823E065F8E8F8BC
:102B000007C983484200A30084006329A27A62B304
:102B1000A2CB62D302BB828A8339A400E500E50020
:102B2000E508C46064D844F824F823F802F88388E0
:102B3000DBC6FFFFFFFFFFFFFFFFFFFFFFFFFFFF02
:102B4000FFFF3DE7505B083123E843F844F065F8A8
:102B500009F9ABF989D10689A3484218020042005D
:102B600061008200620062008300A320C450A58837
:102B700085D865F844F844F823F823F803D0821088
:102B8000C7295DEFFFFFFFFFFFFFFFFFFFFFFFFF15
:102B9000FFFFFFFFFFFF6C32A53802D823F865F86E
:102BA00066F8A7F84AF90CFA4DFA4CEA0BD2A9B923
:102BB00068B147A927B107B907D1E7E8C7F8A7F86F
:102BC00065F865F844F823F803F802D0A32805094E
:102BD000C408EC5AFFFFFFFFFFFFFFFFFFFFFFFFEF
:102BE000FFFFFFFFFBDE0519C400A741E6C003F8A5
:102BF00086F8A7F887F886F8C7F829F98AF9ABF9B3
:102C0000ABF98BF96AF929F908F9C7F8A6F886F83B
:102C100065F864F823F802F006B12529E400E41011
:102C200025192519149DFFFFFFFFFFFFFFFFFFFF81
:102C3000FFFFFFFF96AD620082083595BACE8BA2EA
:102C400044D025F887F8A7F8C7F8A7F887F886F8DA
:102C500086F886F887F8A7F8A7F8A6F885F865F843
:102C600064F824F064B80D93BBB6CF6383080411F5
:102C7000E4106621493A5DEFFFFFFFFFFFFFFFFF12
:102C8000FFFFFFFFD3944200E410BBCEFFFFBEE77F
:102C900076B5CCAA07C145E045F846F866F886F84F
:102CA00086F886F886F865F845F865F865E844D052
:102CB00043A8018882903CD7FFEF55958308041103
:102CC000041105194619B394FFFFFFFFFFFFFFFF33
:102CD000FFFFFFFFB394410086215DDFFFFFFFFF91
:102CE000FFFFDFE77AC6D3B44EB32AC268D1E6E06D
:102CF000A6E8A5E8A5E8E6D888C906A922A802A8FA
:102D000000A000C800D8F7E5FFE7F8ADC410E41054
:102D10000411E41005118B4AFFFFFFFFFFFFFFFFC7
:102D2000FFFFFFFF55A54100A7295DDFFFF7FFFF6C
:102D3000FFFFFFFFFFFFFFFFFFEF7DDFDBCE59CE81
:102D4000F8CDD7CDF7C579CEFBBEABA203F045F8E1
:102D500042D043E800F072D4FFDF39AEE410E41053
:102D60000411E41005118729FFFFFFFFFFFFFFFF9C
:102D7000FFFFFFFF59CE830846211CD7FFF7FFFF57
:102D8000FFFFFFFFFFFFFFFFFFFFFFFFFFFFFFFF53
:102D9000FFFFFFFFFFFFFFFFFFEF8BBA04F845F8CF
:102DA00062E044F000F88EDBFFDFF8A5C410E41009
:102DB000E4100411E4102519FFFFFFFFFFFFFFFFE0
:102DC000FFFFFFFFBEF78729830839B6FFF7DFF75C
:102DD000FFFFFFFFFFFFFFFFFFFFFFFFFFFFFFFF03
:102DE000FFFFFFFFFFFFFFFFBEE74ABA03F845F80A
:102DF00064F844F800F86EE3FFD7F48C83080411FC
:102E0000E410E410E4100519FFFFFFFFFFFFFFFFD0
:102E1000FFFFFFFFFFFFEF7300007284FFEFBEEFC5
:102E2000DFFFFFFFFFFFFFFFFFFFFFFFFFFFFFFFD2
:102E3000FFFFFFFFFFFFFFFFDFE78BBA03F845F857
:102E400045F823F800F8D3D4FFD74E5B2100293A88
:102E500055A58308C4102519FFFFFFFFFFFFFFFFE3
:102E6000FFFFFFFFFFFFFBDEA308E8319EDF9EE7C9
:102E7000BFEFFFFFFFFFFFFFFFFFFFFFFFFFFFFFB2
:102E8000FFFFFFFFFFFFFFFFFFF751BC02E003F86A
:102E900003F043E0ECC27ECFFCBE46212100D39478
:102EA000FFFF518400008729FFFFFFFFFFFFFFFFA7
:102EB000FFFFFFFFFFFFFFFF51840000F48CFFEFD7
:102EC0009EE7BFEFDFFFFFFFFFFFFFFFFFFFFFFFFB
:102ED000FFFFFFFFFFFFFFFFFFFF3DDF55BD52BCC0
:102EE00072BCB7B55DC7FFDFF06B0000093ABFF7F2
:102EF000FFFFFFFF149D55A5FFFFFFFFFFFFFFFF33
:102F0000FFFFFFFFFFFFFFFFFFFFAC4AA408BBBEB0
:102F1000DFE77EE7BEEFDFF7DFFFFFFFFFFFFFFF2B
:102F2000FFFFFFFFFFFFFFFFDFFFDFF7FFEFDFDF49
:102F3000BFD79ED7DFDFD8A583082611DBD6FFFFDA
:102F4000FFFFFFFFFFFFFFFFFFFFFFFFFFFFFFFF91
:102F5000FFFFFFFFFFFFFFFF79EE8BDC2131A9218F
:102F60003DCFBFDF7EDF9EE7BEEFBFEFDFF7DFF7CE
:102F7000DFF7DFF7DFF7BFEFBEEF9EE77EDF5ED75D
:102F80005ED7DFDF9AB626194208EDA3BFFFFFFF29
:102F9000FFFFFFFFFFFFFFFFFFFFFFFFFFFFFFFF41
:102FA000FFFFFFFFFFFF74DDC0DB00FE42EE0242C9
:102FB00089217BB6DFDF7ED77EDF7EDF9EE79EE75F
:102FC0009EE79EE79EE77EDF7EDF5DD75DD79EDFD3
:102FD000FFE7F8A50711E31802C560FDE6D3DBEEB5
:102FE000FFFFFFFFFFFFFFFFFFFFFFFFFFFFFFFFF1
:102FF000FFFFFFFF9EF784BAC1FC42FE82FEA2FEE5
:103000008183452174745EC7DFDF7ED75ED75DD7CD
:103010005ED75ED75DD75DD75ED79EDFFFE73DC742
:10302000F1638408425226E629FF86FEE0F36AC374
:10303000FFFFFFFFFFFFFFFFFFFFFFFFFFFFFFFFA0
:10304000FFFFFFFF18DEC1D2A2FD22FE42FE42FEBC
:1030500062FEE2D4416A494253743BA63EC7BFD7E1
:10306000BFD7BFD7BFDFBFD73EC71AA6F263A72916
:10307000824122B462FE83FEAAFE0FFF67FD63BA9F
:103080003CEFFFFFFFFFFFFFFFFFFFFFFFFFFFFF23
:10309000FFFFFFFF9AE680D221FDC2FDE2F5C2F5F7
:1030A00082F582FD62FD61DC219B846AE96A2C6302
:1030B000AF6311746E632C63895A0452817AC2CB58
:1030C000E2FC62FD82FDC2FDC2FDE4FD24FD62CA98
:1030D0001CE7FFFFFFFFFFFFFFFFFFFFFFFFFFFFFB
:1030E000FFFFFFFFFFFFB1CC81D2C0F3C1FC02FDA7
:1030F00002FDE2FCC2FCC2FC81FC80FBC0C9A481D1
:1031000035AD59CE719C218100DAA1FB82FCA2FC75
:1031100082FCA2FC02FD22FDE2FC00FC60DA90CC05
:10312000FFFFFFFFFFFFFFFFFFFFFFFFFFFFFFFFAF
:10313000FFFFFFFFFFFFFFFF59DE0DC406CBE4D208
:1031400003DB03DBE3DAC3D2A4C209B3D2BC9EF72C
:10315000FFFFFFFFFFFFFBE60EB4A6BA83D2E3E258
:1031600002EB22EB22E303DBE4D26AC3B6D5FFFF16
:10317000FFFFFFFFFFFFFFFF000000000000000057
:103180000000000000000404040404040004000023
:1031900000140A0A000000000000000000001414DF
:1031A0003F140A3F0A0A000000041E1505060C140D
:1031B000150F0400000012150D0A142C2A1200002D
:1031C0000000040A0A1E151509360000000202015B
:1031D0000000000000000000002010080808080897
:1031E000081020000002040808080808080402006B
:1031F00000000004150E0E15040000000000040479
:10320000041F04040400000000000000000000008F
:103210000002020100000000001F0000000000008A
:10322000000000000000000000020000001008087C
:10323000080404020202010000000E111111111114
:10324000110E00000000040604040404040E000033
:1032500000000E1111080402011F000000000E11F1
:10326000100C1010110E00000000080C0A0A091EB4
:103270000818000000001F01010F1010110E0000BF
:1032800000000E09010F1111110E000000001F09AE
:10329000080404040404000000000E11110E1111B2
:1032A000110E000000000E1111111E10120E000070
:1032B0000000000004000000000400000000000006
:1032C00000040000000404000020100804020408A8
:1032D00010200000000000001F00001F0000000080
:1032E00000020408102010080402000000000E1163
:1032F000110804040004000000000E111915151D2A
:10330000011E0000000004040C0A0A1E1233000013
:1033100000000F12120E1212120F000000001E11F8
:1033200001010101110E000000000F121212121211
:10333000120F000000001F120A0E0A02121F0000E6
:1033400000001F120A0E0A020207000000001C12F1
:1033500001013911120C000000003312121E12126A
:103360001233000000001F0404040404041F0000C2
:1033700000003E0808080808080907000000371286
:103380000A060A0A123700000000070202020202BF
:10339000223F000000001B1B1B1B1515151500000C
:1033A00000003B1216161A1A1217000000000E1128
:1033B00011111111110E000000000F12120E020265
:1033C0000207000000000E1111111117190E18004C
:1033D00000000F12120E0A121237000000001E1118
:1033E00001060810110F000000001F15040404045A
:1033F000040E00000000331212121212120C000010
:1034000000003312120A0A0C040400000000151513
:10341000150E0A0A0A0A000000001B0A0A04040A20
:103420000A1B000000001B0A0A040404040E00002A
:1034300000001F0908040402121F0000001C0404FD
:103440000404040404041C0000020202040408082A
:1034500008100000000E08080808080808080E00F8
:1034600000040A000000000000000000000000004E
:10347000000000000000003F000400000000000009
:103480000000000000000000000C121C123C0000B4
:1034900000000302020E1212120E000000000000D3
:1034A000001C1202021C000000001810101C121256
:1034B000123C000000000000000C121E021C000064
:1034C00000003804041E0404041E00000000000074
:1034D000003C120C021E221C00000302020E1212FB
:1034E000123700000000040000060404040E00006F
:1034F00000000800000C0808080808070000030284
:10350000023A0A0E12370000000007040404040403
:10351000041F000000000000000F15151515000025
:1035200000000000000F121212370000000000001F
:10353000000C1212120C000000000000000F12120A
:10354000120E020700000000001C1212121C10389C
:1035500000000000001B060202070000000000003F
:10356000001E020C101E000000000004040E0404E3
:103570000418000000000000001B1212123C0000A2
:10358000000000000037120A0C04000000000000D8
:103590000015150E0A0A000000000000001B0A04B6
:1035A0000A1B0000000000000037120A0C0404038C
:1035B00000000000001E0804041E00000018080897
:1035C0000804080808081800080808080808080877
:1035D000080808080006040404080404040406009B
:1035E000022518000000000000000000000000009C
:1035F00000000000000000000000000000000008C3
:1036000008080808080800001818000000486C2482
:103610001200000000000000000000000000002474
:1036200024247F1212127F12121200000000081CC4
:103630002A2A0A0C1828282A2A1C08080000002216
:10364000251515152A585454542200000000000C6A
:103650001212120A76252911916E00000006060446
:1036600003000000000000000000000000402010E7
:10367000100808080808081010204000000204087C
:1036800008101010101010080804020000000000BC
:1036900008086B1C1C6B08080000000000000000FC
:1036A000080808087F08080808000000000000005B
:1036B00000000000000000000606040300000000F7
:1036C00000000000FE0000000000000000000000FC
:1036D000000000000000000006060000000080401E
:1036E0004020201010080804040202000000001806
:1036F0002442424242424242241800000000000894
:103700000E08080808080808083E00000000003CF1
:103710004242422020100804427E00000000003C8B
:103720004242201820404042221C0000000000209D
:103730003028242422227E20207800000000007EF1
:103740000202021A26404042221C000000000038FB
:103750002402021A26424242241800000000007E81
:103760002222101008080808080800000000003C89
:103770004242422418244242423C00000000001809
:103780002442424264584040241C000000000000D3
:1037900000001818000000001818000000000000C9
:1037A00000000008000000000008080400000040BD
:1037B000201008040204081020400000000000004F
:1037C00000007F0000007F000000000000000002F9
:1037D0000408102040201008040200000000003CF3
:1037E0004242464020101000181800000000001C43
:1037F000225A555555552D42221C00000000000844
:1038000008181414243C224242E700000000001F64
:103810002222221E22424242221F00000000007C7F
:103820004242010101010142221C00000000001F70
:103830002242424242424242221F00000000003F18
:103840004212121E12120242423F00000000003FCC
:103850004212121E12120202020700000000003C77
:103860002222010101712122221C0000000000E738
:10387000424242427E42424242E700000000003E95
:103880000808080808080808083E00000000007C36
:1038900010101010101010101010110F00000077F1
:1038A00022120A0E0A1212222277000000000007DC
:1038B0000202020202020202427F000000000077C0
:1038C000363636362A2A2A2A2A6B0000000000E300
:1038D00046464A4A52525262624700000000001CAB
:1038E0002241414141414141221C00000000003F72
:1038F000424242423E020202020700000000001C57
:103900002241414141414D53321C60000000003FC3
:103910004242423E1212222242C700000000007CB6
:103920004242020418204042423E00000000007F54
:103930004908080808080808081C0000000000E7FB
:103940004242424242424242423C0000000000E702
:103950004242222424141418080800000000006BBE
:10396000494949495555362222220000000000E706
:10397000422424181818242442E70000000000778D
:103980002222141408080808081C00000000007E09
:103990002120101008040442423F0000007808086B
:1039A000080808080808080808087800000002024B
:1039B000040408080810102020204040001E1010A9
:1039C000101010101010101010101E0000384400BD
:1039D00000000000000000000000000000000000E7
:1039E0000000000000000000000000FF00060800CA
:1039F00000000000000000000000000000000000C7
:103A00000000003C4278444242FC000000000003F9
:103A10000202021A26424242261A0000000000005A
:103A20000000003844020202443800000000006038
:103A3000404040784442424264D800000000000008
:103A40000000003C427E0202423C0000000000F008
:103A50008808087E08080808083E000000000000EA
:103A60000000007C22221C023C42423C0000000379
:103A70000202023A4642424242E700000000000CC5
:103A80000C00000E08080808083E00000000003086
:103A900030000038202020202020221E00000003BB
:103AA00002020272120A1612227700000000000EB3
:103AB0000808080808080808083E00000000000080
:103AC0000000007F9292929292B7000000000000E6
:103AD0000000003B4642424242E700000000000076
:103AE0000000003C42424242423C00000000000014
:103AF0000000001B26424242221E02070000000076
:103B00000000007844424242447840E00000000057
:103B1000000000774C040404041F000000000000B3
:103B20000000007C42023C40423E000000000000D9
:103B30000008083E080808080830000000000000DF
:103B4000000000634242424262DC000000000000CC
:103B5000000000E7422424140808000000000000D0
:103B6000000000EB494955552222000000000000EA
:103B70000000007624181818246E000000000000D1
:103B8000000000E742242414180808070000000081
:103B90000000007E22100808447E000000C02020A3
:103BA00020202010202020202020C00010101010E5
:103BB000101010101010101010101010000608082F
:103BC0000808081008080808080806000C32C20097
:103BD000000000000000000000000000C9EE00002E
:103BE00027FC140414A4811042084040104017FC24
:103BF0002040E0E0215022482C4620400040DBDA03
:103C000011041124112411241124FD241124112440
:103C10001124112411241D24E1244224020404044B
:103C2000CAD00200010000007FFC01000100010079
:103C30003FF821082108210821082128211001002E
:103C40000100C8AB000000000180024004301808E9
:103C500060061FF90100010001003FF801000100AA
:103C600001007FFEB6AF0000000000203E20007C77
:103C7000002200227F22102210221222122222422F
:103C800023423D82009CB5E70000010001001FF0C7
:103C9000610C410441047FFC4104410441047FFC68
:103CA00001000102010201FCD7D3000000003FF82F
:103CB000001000600080010000807FFE0040004096
:103CC00000200020002018400780BCBC10201020DD
:103CD000102013FEFC201020102015FC18843088C2
:103CE000D04810501020105051882606CAF5010007
:103CF0000120011001107FFC0380054005400920D0
:103D00001110210841048102010001000100D3D0FB
:103D100002000200FFFE040004000FF0081018105B
:103D20002FF0481088100FF00810081008500820D5
:103D3000CFDE00007BF84A08520853F862085208A8
:103D40004BF84A444A486A3052204210428843069F
:103D50004200B9AB00800480048008400840102075
:103D600020104208820604000440082010203FF082
:103D700010100000CBBE00003FF8000800087FE8EC
:103D8000000800081F8810881088108810881F8875
:103D9000108800280010BBB600800080FC8004FC66
:103DA000050449082A401440104028A024A04510CA
:103DB0008110020804040802D3AD00002080133CE7
:103DC000122402240224F2241224122412B41328EE
:103DD00012201020282047FE0000C4FA0900090024
:103DE00011FC3204544899501148124414441140B3
:103DF000108002005104511290120FF0B4BF000065
:103E00000020102013FE202026244A247A24122485
:103E1000222423FC7C20002204227822003CC9AB0F
:103E20000000000004000FF0102020207FFC208400
:103E30002084208420843FF82000200220021FFEDE
:103E4000CCEE00000000204023FE204079FC22043C
:103E500023FC220423FC220423FC3A0465FA019883
:103E60000204B3E40000010001007FFE0220041000
:103E7000040808043FFC0442044004400442084291
:103E80001042607EBED800000000207E3E80488048
:103E9000488048FE48827F8208820C8214FA12848D
:103EA0002280218040FED0CE000000007F842208C6
:103EB000223022C0220222047FC8223022C22202E3
:103EC0002204220822304040BBAD000000007FFEEB
:103ED00000000FF011101110111051125FF2511269
:103EE000511251124FF240027FFCD4B20000000088
:103EF0007FFE47E24812481247E24FF2501250123A
:103F00005112511242924472580A3FFCCDBC00003B
:103F100000003FFE440247F24C225362408243625B
:103F20005E1A41824062430240C240223FFCC6AC5E
:103F3000000000402040204020403FFE20002000A4
:103F400020003FE0201020102010201040104010D2
:103F5000CFD4000000003FFC200420043FFC2004DC
:103F600020041FF824441448144814480C500440FA
:103F70007FFECABE000000003FFC00000000000001
:103F80007FFE00800890088810881084208420829A
:103F900040820780B2CB0000002008207FFE002076
:103FA00000783F881108089009207FFE01800340B7
:103FB0000D30310C4002B5A500000010081004209F
:103FC0003FF8210421043FFC210421043FF80100B3
:103FD0007FFE010001000100D6D0000001000100B9
:103FE00001003FFC210421042104210421042104B7
:103FF0003FFC0100010001000100D3A2000000000D
:1040000008207FFE0820092001003FF82108210830
:1040100021081FF4014002200C10700ECEC40000D5
:104020000100010000803F7C0810081004100420EB
:10403000022002400180018002601C18E006D7DBEC
:1040400000000000102011FE2202220249FC58004C
:10405000300013FE2528792401240D24722202A2A7
:10406000BACF00000000018002400430180860064A
:104070001FF800001FF8200420042004200420045E
:104080001FF8C1C10000010001007FFE00003FF8E1
:1040900020083FF83FF8400647C24824082008227D
:1040A0001022603EB6C80000000000803FFE4410B1
:1040B0005FFC4410441043F040005FF84408423075
:1040C00041C04360BC1EB2E20000000067C214524F
:1040D00005520552C5522552055205521552175226
:1040E000228222424442483ECAD4000000002014EA
:1040F000101417FE00120010601013F010901090B2
:104100001090149214EA1F0A0006B3CC00000000BD
:1041100019FE7202120212027DFC18001BFE3420EE
:10412000502053FE10201020102013FED0F200006B
:10413000000000803FFE400047FC4208413040C084
:104140005FFE404240424044404840404440B5F752
:104150000000000023FE122202FA0222E22212FED6
:104160001272128A128A128A16BA1A421202040EA5
:10417000B9E2000001000104110809080910092032
:104180007FFE0440044004400440084208421042BC
:10419000607CB0E60000000048FE4900490049008C
:1041A0007EFE4182414479444528452845104528F2
:1041B00046440382C8A800001000100013FC7D04D0
:1041C000110419041884348850485050102010509D
:1041D000108813041402CBF9000000003F7C20403B
:1041E00020403E40227E2244224422443E842084B9
:1041F0002084408441044204C6C100003FF82008E6
:1042000020083FF8241022202FF8222022203FFCF3
:1042100022204220442084200820C4BB04407FFC8C
:1042200004401FF010101FF010101FF00400FFFEDC
:1042300011103FF8D116115011200100D0FD20803F
:10424000108010FE0100FE0021FC20243C2424A04C
:1042500024A024BC24A024A04560553E8A00D7AAEF
:10426000202020202020FDFC4020504093FEFC40D8
:10427000108011FC1C04F0885050102010101010F9
:10428000BFAA00007FFC0820082008200820082082
:10429000FFFE0820082008200820102010202020E1
:1042A0004020D4B4000027FE1420144085FC4504AF
:1042B00045FC150415FC2524E42024A829242A22E1
:1042C00030A00040D2BA0080204017FE112081208B
:1042D000423C4244166412942348E2482230222091
:1042E000225022880306BEA70FE0082008200FE016
:1042F000082008200FE000007EFC428442847EFCFF
:10430000428442847EFC4284CDF800007FFC40045D
:104310004004421452944A54442444244A544A5473
:1043200052946104400440144008D5BE1020082077
:1043300008207E20003E04204420442025FC29043F
:1043400029040F04F104410401FC0104B0B410403D
:104350001020102013FEFA02144410401BFE308877
:10436000D088110810D01020105050882304BCFCB5
:10437000201020103B7C211441FE7A14A27C2710CF
:10438000F97C251025FE22102A10350028FE000099
:10439000D0A310401020102011FEFC001088310422
:1043A0003A025488508890501050102010501088B5
:1043B0001306D7BC01404120212023FE02201620F5
:1043C0001BFC1220222023FCE2202220222023FE9C
:1043D00022000200B4A520202020782049FC91244E
:1043E0007D24552455247DFC552454207C285424B8
:1043F00057FE45028C00C3FE1110111017FC11105E
:10440000FC0013F8120817F81A0833F8D04017FC0C
:1044100010A0111052082406C7EF2424A4FE232262
:10442000807000FF008040300000080601FF018618
:1044300040300E01061820408000BAEB00E2222234
:10444000223E000000E01F00000000000003428246
:10445000423E103817101010121C7000D6F70008DA
:104460000808080809FA0808080808080000404079
:1044700041414141417F4141414141404000B5E31B
:104480000000C04040407F48484848C80808000035
:1044900080403704041464041464040710E000002E
:1044A000D4DE009856341FF494409856341FF41408
:1044B00090000100809E4242221B2222425E800127
:1044C0000100CAD500FC0000FF004020D8171010E2
:1044D000F0101000000F0402FF00804021160816A3
:1044E00021408000B2D802E282F212D752D2521793
:1044F000FA12169A1200128E621F003F253DA74045
:1045000027182641F000CDB6101010FF109040A0E3
:104510009E8282829EA020000444827F01008080CF
:10452000432C102844838000B1D20004E4242424C6
:1045300024FE22222222E302000000001F000000CD
:1045400000FF000008100F000000C9EE000000008E
:1045500000001000000800080C7FFC04401001C897
:10456000A002186042301832231812C3001403004E
:1045700004030C047FF0080F80080B4078136018C8
:10458000332018631818831C19030818030000034C
:1045900000000000DBDA00000000000004100C0442
:1045A000180C04108C04108C04108C04108C04D093
:1045B0008C3F108C04108C04108C04108C04108C14
:1045C00004108C04108C05F08C0E208C78208C202C
:1045D000408C00808C01000C02000C000000CAD04E
:1045E0000000000000000030000018000018080063
:1045F000001C1FFFE000180000182007FFF004183F
:10460000200418200418200418200418200418205E
:104610000418200418200418200418E0041840008E
:104620001800001800000000D6D0000000000000B4
:104630000000000000000018000018000018000032
:1046400018003FFFFE3018063018063018063018E4
:10465000063018063FFFFE3018060018000018004C
:104660000018000018000018000000000000000002
:104670000000CEC400000000000000000000380070
:10468000001C00000600FFFFFF060030060030039C
:1046900000600300600180C000C18000E3000036BC
:1046A00000001C0000770003C1E01E003C60000712
:1046B000000000000000000000000000B2E2000066
:1046C0000000000000000000000040000321FF3354
:1046D000398333118333019B33C19B33719B33196E
:1046E0009B33019B33019B33119B3319B333303020
:1046F00033306C0330C6036383032E01BE00000019
:10470000000000000000CAD400000000000000000B
:10471000000000004000D83000CE1800C21C00C0CD
:1047200001FFFF0000C0F800C01800C019FFC0184A
:1047300018401818601918601B18611E18311C1FCA
:10474000B139F01910000F00000000000000000057
:10475000D7D60000000000060000000300000000A3
:10476000C0000001C0C0000107C00001FF00021F1F
:10477000FE0007F01C0007C070000F00E0000E03F1
:10478000F0001C0FF0003C0F70003C00E00018002F
:10479000C0000000C0000000C00000006000000079
:1047A0002000000037000001FF00007FF80007F83C
:1047B00030001F8030000080300000C030000060FA
:1047C00060000018E000000FC000000600000000BC
:1047D0000000CCE50000000000000000000000C068
:1047E000000000E0002001B800703FF80061FFC049
:1047F00000C3030001C60600038C060003080C007A
:1048000006080C000E18183F1E101BF31F903F07E0
:1048100000803C1C0190707C019060FE01A0C3F8F8
:1048200001A00FD803A00818036000180340001867
:1048300003C00018038000180300001800000018CF
:1048400000000010000000300000003000000000F8
:1048500000000000B2E200000000000000000000C4
:10486000000000000000020C1008071FF80403BF3E
:10487000F00201BC300303EC3003015C600300D89C
:10488000600300D860038098620361B8430771B188
:104890004306313243063376C3063A64C7063EEC1C
:1048A000C0063E78C0063C3040067C70000678E0CA
:1048B00060067BFFF006F7C00006E400000640003B
:1048C0000006000000060000007C00008FF00000E1
:1048D0007C0000000000CAD40000000000000000BE
:1048E0000000000000003F0000007F800000018009
:1048F000000000C0000000C0000000CE038000CF18
:10490000FFC000DD41800FFE0007FFFC000C00F03F
:1049100000180FC03E19FF40F311BC6083307FE0E8
:1049200003B1FE20033380200370003003600010C9
:104930000360001807C0000C07C0000407800002D5
:104940000100000300000001000000000000000062
:104950000000000000000000000000000000000057
:104960000102030406070809000000000102030415
:1049700090490008000000206C0000002801000899
:10498000FC4900086C000020640700004401000896
:10499000000000000000000050000049000044003A
:1049A000004D454E5500434F4C4F52000000000053
:1049B000000000005049445F534554000000536517
:1049C0007474696E67730000000000000047616D39
:1049D00065730000000000000000000000000000FF
:1049E000FFFF0000000000000000000001000000C8
:0C49F00010000000000000000024F40093
:04000005080000ED02
:00000001FF
