:020000040800F2
:100000009804002001010008AB100008830F0008CD
:10001000A910000897030008F71500080000000069
:10002000000000000000000000000000A71400080D
:100030009903000800000000A5140008A914000896
:100040001B0100081B0100081B0100081B01000820
:100050001B0100081B0100081B0100081B01000810
:100060001B0100081B0100081B0100081B01000800
:100070001B0100081B0100081B0100081B010008F0
:100080001B0100081B0100081B0100081B010008E0
:100090001B0100081B0100081B0100081B010008D0
:1000A0001B0100081B0100081B0100081B010008C0
:1000B0000D1500081B0100081B0100081B010008AA
:1000C0001B0100081B0100081B0100081B010008A0
:1000D0001B0100081B0100081B0100081B01000890
:1000E0001B0100081B0100081B010008DFF80CD0F1
:1000F00000F030F900480047691600089804002015
:100100000648804706480047FEE7FEE7FEE7FEE7B1
:10011000FEE7FEE7FEE7FEE7FEE7FEE70B15000859
:10012000ED000008202A04DB203A21FA02F0002129
:10013000704721FA02F3D040C2F1200291400843F7
:1001400019467047D2B201E000F8012B491EFBD2DC
:1001500070470022F6E710B513460A4604461946D2
:10016000FFF7F0FF204610BD2DE9FE4F81EA0304A2
:1001700004F0004421F0004100944FF0000B23F004
:10018000004350EA01045ED052EA03045BD0C3F39B
:100190000A54C1F30A552C44A4F2F3340194A0FB91
:1001A0000254C1F3130141F48011C3F3130343F468
:1001B000801301FB024400FB034E840A970A44EAC1
:1001C000815447EA8357A4FB076802958D0A05FB13
:1001D00007854FEA932C04FB0C542705029D4FEA38
:1001E000065847EA1637B5EB08056EEB070C870E85
:1001F000920E47EA811742EA8312A7FB0201B6EB8F
:100200000B0164EB00042B0D43EA0C335E1844EB46
:100210001C50DA465146E7FB0201C5F313044FEACE
:100220000B3343EA14534FEA0432019C43EA0603BA
:10023000A4F10C040294009CCDE900B400F03BF85A
:1002400003B0BDE8F08F00200146F9E70EB540F29B
:10025000334102910021CDE900110A460B4600F01E
:100260002AF803B000BDC1F30A5210B5C1F313015F
:1002700040F2FF3341F480119A4201DA002010BDB0
:1002800040F233439A42A2F2334203DC5242FFF778
:1002900049FF10BD904010BD10B5141E73F100044D
:1002A00008DA401C41F1000192185B411A4301D168
:1002B00020F0010010BD2DE9F04D92469B4611B192
:1002C000B1FA81F202E0B0FA80F22032904600F0FA
:1002D00053F804460F4640EA0A0041EA0B01534630
:1002E0005A46084313D0114653EA010019D0C8F109
:1002F00040025046FFF716FF05460E465046594647
:10030000424600F039F8084305D0012004E02046B9
:100310003946BDE8F08D0020054346EAE0762C43DF
:1003200037430A986305E40AA0EB08000022FD0A9F
:1003300044EA47540A3002D500200146E9E70105A6
:1003400010196941DDE9084500196941BDE8F04D22
:10035000A2E70000064C074D06E0E06840F001030C
:1003600094E8070098471034AC42F6D3FFF7C2FE7A
:10037000D4160008F4160008202A04DB203A00FAFC
:1003800002F1002070479140C2F1200320FA03F3EC
:10039000194390407047FEE7704772B6FEE70000D1
:1003A00070B5044600F010F90546601C02D0044800
:1003B0000078044400F008F9401BA042FAD370BD55
:1003C000300000202DE9F84FDFF8B891002409F142
:1003D000040A0AF1040B23460F270BF1040EC9E0AF
:1003E0000125A5402A40AA427DD1674ED1F804C01C
:1003F000ACEB0608B44532D014DCBCF1030F3AD0A4
:1004000009DCBCF1000F2AD0BCF1010F1CD0BCF1FB
:10041000020F31D11DE0BCF1110F17D0BCF1120F4A
:100420002AD119E0B8F5881F19D006DCB8F5803F4D
:1004300015D0B8F5801F1FD111E0B8F5001F0ED000
:10044000B8F5041F18D10AE0CB6815E0CB681B1D76
:1004500012E0CB6808330FE0CB680C330CE08B68FC
:100460002BB1012B4FF0080303D0456104E00423B6
:1004700002E0056100E00023FF2A01D8064601E002
:1004800000F104064FEA840501D9A5F12005D6F84C
:10049000008007FA05FC28EA0C0803FA05F548EA8B
:1004A0000508C6F800804D68ED0062D5374DAE698D
:1004B00046F00106AE61AD6924F0030605F00105C2
:1004C0000095334D06EB050CDCF80850A607360FF7
:1004D00007FA06F825EA0805DFF8B880404503D199
:1004E0004FF0000817E044E0DFF8AC80404502D14F
:1004F0004FF001080FE0DFF8A480404502D14FF033
:10050000020808E0DFF89880404502D14FF0030868
:1005100001E04FF0040808FA06F848EA0508CCF8AC
:1005200008804D68D9F80060ED034D4601D51643AB
:1005300000E096432E604D68DAF80060AD03554642
:1005400001D5164300E096432E604D68DBF800604D
:10055000ED025D4601D5164300E096432E604D68DE
:10056000DEF80060AD02754601D5164300E0964303
:100570002E60641C0D682A46E5407FF431AFBDE86B
:10058000F88F00000004014000001110001002402C
:100590000000014000080140000C01400010014033
:1005A000001401408068084000D001207047C268F4
:1005B00021EA02030A4043EA0241016170470AB19D
:1005C000016170470904FBE701488068704700003B
:1005D0003000002002488168027811448160704731
:1005E00030000020074810B5016841F0100101609B
:1005F000032000F075F8002000F006F800F024F861
:10060000002010BD0020024070B50D4D04464FF48F
:100610007A712878B1FBF0F00A490968B1FBF0F073
:1006200000F0CCFA48B9102C07D200222146501E07
:1006300000F036F800206C6070BD012070BD000035
:10064000300000203C0000200C4808B5816941F0D2
:1006500001018161816901F001010091C16941F0ED
:100660008051C161C06900F0805000900448416829
:1006700021F0E06141F00071416008BD00100240CE
:1006800000000140002809DB00F01F020121914019
:100690004009800000F1E020C0F800117047000020
:1006A000F0B40E4B1B680C46C3F30223C3F10705DD
:1006B000042D00D90425191D072901D2002300E0CB
:1006C000DB1E012606FA05F1491E214099409E4095
:1006D000761E16403143F0BC00F08EBF0CED00E0FA
:1006E000064900F0070208684FF6FF03184040EA89
:1006F0000220034A10430860704700000CED00E040
:100700000000FA052DE9F0470F46050061D0434E81
:10071000306800F00700B84209D2306820F00700C6
:1007200038433060306800F00700B84251D1286883
:100730003B4C810712D5400703D5606840F4E06068
:1007400060602878000703D5606840F460506060FE
:100750006068A96820F0F000084360602878C0074E
:1007600028D06868012810D02168022810D0890795
:1007700000292EDA616821F0030101436160FFF76F
:1007800023FF804641F288390DE021688903EFE7B5
:100790008901EDE7FFF718FFA0EB0801494502D9F1
:1007A0000320BDE8F0876068696800F00C00B0EBDA
:1007B000810FEFD1306800F00700B8420BD93068E4
:1007C00020F0070038433060306800F00700B8427E
:1007D00001D00120E5E72878400705D56068E96881
:1007E00020F4E060084360602878000706D5606860
:1007F000296920F4605040EAC100606000F018F8F8
:100800006168084AC1F30311515CC8400649086099
:1008100006480068FFF7F8FE0020C2E7002002400B
:1008200000100240C41600083C00002034000020E4
:1008300012A185B00FC98DE80F0014A0144A0068FA
:1008400004905168134801F00C03042B10D0082BBE
:100850000ED1C1F38343C9031DF803000AD55168C3
:1008600004AAC1F34041515C0A4A5043B0FBF1F085
:1008700005B0704708494843FAE700000203040541
:10088000060708090A0B0C0D0E0F101001020000DC
:100890000010024000127A0000093D002DE9F84FD7
:1008A000040070D02078C04DC00749D06868C0F3FC
:1008B0008100012807D06868C0F38100022809D1AF
:1008C0006868C00306D52868800339D560680028A9
:1008D000E7D035E06068B0F5803F0BD010B1B0F5DF
:1008E000A02F11D0286820F480302860286820F4D8
:1008F000802002E0286840F480302860606890B171
:10090000FFF762FE06460AE0286840F4802028606F
:10091000F0E700BFFFF758FE801B642873D82868F3
:100920008003F7D50CE0FFF74FFE064605E000BF59
:10093000FFF74AFE801B6428F0D828688003F7D4AC
:1009400020789A4E80074FF001094FF0000839D502
:10095000686810F00C0F07D06868C0F381000228A7
:1009600009D16868C00306D42868800714D52069B7
:10097000012808D110E02069B0B1C6F80090FFF757
:1009800023FE074605E00AE1FFF71EFEC01B022812
:10099000C4D828688007F7D52868616920F0F80076
:1009A00040EAC10028600DE0C6F80080FFF70CFEA9
:1009B000074604E0FFF708FEC01B022823D828687A
:1009C0008007F7D4207800072CD57948A169D9B1E0
:1009D000C0F80090FFF7F8FD074604E0FFF7F4FDCC
:1009E000C01B02280FD8686A8007F7D571484FF4FA
:1009F000FA510068B0FBF1F0009000BF0098411E72
:100A00000091FAD20EE080E0C0F80080FFF7DCFD34
:100A1000074604E0FFF7D8FDC01B022875D8686AB6
:100A20008007F7D42078400760D5E8690027C00028
:100A300008D4E86940F08050E861E869012700F0D7
:100A4000805000905C480168C90513D40168834652
:100A500041F480710160FFF7B7FD824606E000BFF8
:100A6000FFF7B2FDA0EB0A0064284ED8DBF80000C7
:100A7000C005F5D5E06801280AD008B1052813D0D3
:100A8000286A20F001002862286A20F0040002E0B1
:100A9000286A40F001002862E06841F2883B98B182
:100AA000FFF792FD82460BE0286A40F004002862BE
:100AB000EEE700BFFFF788FDA0EB0A0159455AD8C1
:100AC000286A8007F6D50CE0FFF77EFD824605E038
:100AD000FFF77AFDA0EB0A0159454CD8286A800738
:100AE000F6D41FB1E86920F08050E861E06988B36E
:100AF0006968C1F38101022944D00228C6F86080E8
:100B000004D0FFF761FD044638E034E0FFF75CFDF8
:100B1000074604E0FFF758FDC01B02282BD82868C1
:100B20008001F7D4206AB0F5803F05D16868A168DC
:100B300020F4003008436860D4E90801084369687C
:100B400021F4741108436860C6F86090FFF73CFD1B
:100B5000044606E025E000BFFFF736FD001B022833
:100B600009D828688001F7D51BE000BFFFF72CFDEE
:100B7000001B022802D90320BDE8F88F28688001F5
:100B8000F4D40EE00128F7D06868226A00F48031BE
:100B9000914204D1616A00F47010884201D00120B2
:100BA000EAE70020E8E700000010024000004242AF
:100BB000800442423C0000200070004010B5401EFE
:100BC000B0F1807F01D3012010BD4FF0E0246061BF
:100BD0000F21601700F010FD0020A06107202061A8
:100BE000002010BD7047704770B590F83C20012A76
:100BF00026D0012480F83C40022280F83D20036882
:100C00005A689D6822F070060A6832435A600D4B9C
:100C100002689A4208D0B2F1804F05D00A4B9A423E
:100C200002D00A4B9A4204D1496825F08003194347
:100C3000916080F83D40002180F83C10084670BD6E
:100C4000022070BD002C014000040040000800405C
:100C500010B5040003D094F83D0010B107E0012066
:100C600010BD002084F83C00204600F01FF8022050
:100C700084F83D00211D206800F052FC012084F81A
:100C8000460084F83E0084F83F0084F8400084F871
:100C9000410084F8420084F8430084F8440084F85A
:100CA000450084F83D00002010BD000008B5006834
:100CB000B0F1804F12D10A48C16941F00101C16110
:100CC000C069002200F00100009011461C20FFF7CF
:100CD000E7FCBDE808401C20FFF7D4BC08BD0000BD
:100CE0000010024090F83D10012901D0012070470A
:100CF000022180F83D100168CA6842F00102CA6012
:100D000000680B49884208D0B0F1804F05D00949EE
:100D1000884202D00849884204D1816801F0070165
:100D2000062903D0016841F00101016000207047ED
:100D3000002C0140000400400008004070B504464B
:100D400090F83C00012817D0012584F83C5002207F
:100D500084F83D002068826822F0770222F47F4206
:100D600082600868502830D00DDC20284DD005DC8A
:100D700098B310283BD148E0022070BD302844D001
:100D8000402834D139E0602828D0702806D0B0F54A
:100D9000805F2CD0B0F5005F29D10AE0CB68D1E9A3
:100DA0000121206800F0F2FB2068816841F07701A2
:100DB00009E0CB68D1E90121206800F0E7FB206859
:100DC000816841F48041816011E0CA684968206807
:100DD00000F0EEFB5021206807E016E0CA68496881
:100DE000206800F0F6FB6021206800F0D9FB84F851
:100DF0003D50002084F83C0070BDCA6849682068F6
:100E000000F0D6FB40212068EFE72268014610463B
:100E1000EBE7704770B50446006801694FF00005C4
:100E2000C943890715D4C168C943890711D4E91E8C
:100E3000016101202077206880698007204602D068
:100E4000FFF7E7FF04E000F098F8204600F096F87E
:100E5000257720680169C943490717D4C168C94388
:100E6000490713D46FF00401016102202077206844
:100E7000806910F4407F204602D0FFF7CAFF04E0EB
:100E800000F07BF8204600F079F8257720680169AA
:100E9000C943090716D4C168C943090712D46FF0C2
:100EA00008010161042020772068C069800720467E
:100EB00002D0FFF7AEFF04E000F05FF8204600F03C
:100EC0005DF8257720680169C943C90617D4C16850
:100ED000C943C90613D46FF01001016108202077BF
:100EE0002068C06910F4407F204602D0FFF791FFD0
:100EF00004E000F042F8204600F040F82577206832
:100F00000169C943C90708D1C168C943C90704D1E8
:100F1000891E0161204600F032F820680169C9434A
:100F2000090609D4C168C943090605D46FF08001D8
:100F300001612046FFF756FE20680169C943490652
:100F400009D4C168C943490605D46FF04001016165
:100F5000204600F015F820680169C94389060BD4C2
:100F6000C168C943890607D46FF02001016120469A
:100F7000BDE87040FFF737BE70BD704770477047DF
:100F80007047FEE72DE9F04385B00024294800941E
:100F9000019402940394816941F010018161816997
:100FA00001F010010491816941F0200181618169A2
:100FB00001F020010491816941F00801816181699A
:100FC00001F008010491816941F0040181618069A7
:100FD000DFF8648000F004004FF400550490002214
:100FE00029464046FFF7EBFADFF850904FF4604790
:100FF000002239464846FFF7E2FA0095022601250D
:101000000396CDE9015469464046FFF7DBF9280312
:10101000CDE90004694648460294FFF7D3F90097EA
:101020000396CDE9015469464846FFF7CBF905B070
:10103000BDE8F0830010024000100140000C0140A8
:1010400010B586B0002417480094019402940394CC
:1010500004944FF080410594016042F20F71C0E9A1
:10106000011440F26711C0E903148461FFF7F0FD39
:1010700008B1FFF792F94FF4805000906946094893
:10108000FFF75CFE08B1FFF788F9049404A905484E
:101090000594FFF7A9FD002801D0FFF77EF906B0FF
:1010A00010BD00004C000020FEE7FEE700200449D0
:1010B00002460A54401CC0B20928FAD37047000007
:1010C000400000202DE9F84F80460120ADF80000D7
:1010D000234F00217970ADF800004FF40049214CF6
:1010E00045034FF4805A4FF6FF7630E0BDF800001C
:1010F00010EA080F01D0012200E0002249462046F4
:10110000FFF75DFA012229462046FFF758FA05202D
:1011100000F091FA002229462046FFF750FA0520F8
:1011200000F089FA012229462046FFF748FA514685
:101130002046FFF737FA20B17878BDF80010084351
:101140007870BDF8000006EA4000ADF80000BDF878
:101150000000FF28CAD9BDE8F84F102000F06BBA94
:1011600040000020000C014070B5FFF79FFF00F029
:1011700095F80B480B4BB0F803100A481B1D418033
:101180000020012413F8105000F101006D1E04FA34
:1011900005F20A42C0B202D01028F3D3002070BD7D
:1011A000400000200000002070B5184D4FF480442E
:1011B000002221462846FFF702FA102000F03BFAF1
:1011C0000120FFF77FFF4320FFF77CFF0020FFF7A0
:1011D00079FF0120FFF776FF0020FFF773FF002063
:1011E000FFF770FF0020FFF76DFF0020FFF76AFF99
:1011F0000020FFF767FF012221462846FFF7DFF9AD
:10120000BDE87040102000F016BA0000000C01404C
:1012100070B5184D4FF48044002221462846FFF750
:10122000CEF9102000F007FA0120FFF74BFF432012
:10123000FFF748FF0020FFF745FF0020FFF742FFC0
:101240005A20FFF73FFF5A20FFF73CFF5A20FFF7D5
:1012500039FF5A20FFF736FF5A20FFF733FF0122EC
:1012600021462846FFF7ABF9BDE87040102000F09A
:10127000E2B90000000C014010B500F093F800F056
:1012800091F800F08FF8FFF78FFF00F0B3F800F04F
:10129000E1F8BDE81040FFF7BBBF00002DE9FC47B7
:1012A00000208DF800000124ADF804402E4E0246C7
:1012B0004FF4804A51463046FFF781F92B4D28788C
:1012C000FFF700FF6878FFF7FDFE02208DF80000B1
:1012D000A046344605034FF48059254F4FF6FF765C
:1012E00036E0404626E0012229462046FFF767F90E
:1012F000052000F0A0F9002229462046FFF75FF9FB
:10130000052000F098F9012229462046FFF757F9F9
:1013100049462046FFF746F940B19DF80000BDF868
:101320000410385C08439DF800107854BDF80400A0
:1013300006EA4000ADF80400BDF80400FF28D2D949
:10134000102000F078F99DF80000401C8DF8000096
:101350009DF800000928C4D302B051462046BDE8DC
:10136000F0470122FFF72BB9000C014000000020DC
:1013700040000020014800F003B8000028000020D1
:1013800010B504460648C1792170017A617041792F
:10139000A1708079E070FFF7E7FE207110BD0000BA
:1013A0004000002070B5124D4FF4804400222146C9
:1013B0002846FFF704F9102000F03DF90120FFF75F
:1013C00081FE4220FFF77EFE0020FFF77BFE00201B
:1013D000FFF778FE0020FFF775FE01222146284620
:1013E000FFF7EDF8BDE87040102000F024B90000D0
:1013F000000C014070B5164D4FF480440022214688
:101400002846FFF7DCF80120FFF75CFE4420FFF7D9
:1014100059FE0020FFF756FE0120FFF753FE032080
:10142000FFF750FE0020FFF74DFE0020FFF74AFEB9
:101430000020FFF747FE0020FFF744FE012221466F
:101440002846FFF7BCF8BDE87040102000F0F3B864
:10145000000C014070B5124D4FF48044002221462B
:101460002846FFF7ACF8102000F0E5F80120FFF760
:1014700029FE4D20FFF726FE0020FFF723FE002067
:10148000FFF720FE0120FFF71DFE0122214628461E
:10149000FFF795F8BDE87040102000F0CCB80000D0
:1014A000000C014070477047FFF794B830B58FB01B
:1014B00028216846FEF74DFE14210AA8FEF749FED2
:1014C00001210804CDE900100024029402250491B2
:1014D000CDE907504FF4E01009906846FFF7DEF9B8
:1014E00008B172B6FEE70F20CDE90A054FF480601F
:1014F000CDE90C4002210AA80E94FFF703F9002859
:1015000001D072B6FEE70FB030BD704710B503488A
:10151000FFF780FCBDE81040FFF72CBF4C00002017
:10152000F0B50268164B174C174D4FF080479842A4
:1015300005D0B84203D0A04201D0A84203D122F086
:1015400070064A683243984205D0B84203D0A042A0
:1015500001D0A84203D122F44074CA6822434C69E6
:1015600022F08002224302608A68C2620A688262B4
:10157000984201D10969016301214161F0BD000078
:10158000002C0140000400400008004010B58468B1
:1015900042EA032224F47F440A432243826010BDBE
:1015A000826822F070020A4342F0070181607047AE
:1015B00010B5036A046A24F001040462846924F00B
:1015C000F00444EA021423F00A020A43846102622E
:1015D00010BD10B5036A23F0100303628369046A27
:1015E00023F4704343EA023224F0A00343EA0111DA
:1015F0008261016210BDFEE70907090E002804DBC5
:1016000000F1E02080F80014704700F00F0000F1B6
:10161000E02080F8141D704702E008C8121F08C1BE
:10162000002AFAD170477047002001E001C1121F63
:10163000002AFBD1704770B54FF0E02300215C69B0
:1016400000EBC0009A69C5009869904208D002D2A8
:10165000A2EB000202E0A4EB000632441144024671
:10166000A942F1D370BD0000FEF7BCFFFFF71EFFDB
:10167000FFF788FCFFF7E4FC0E48FFF733FBFFF7AA
:10168000FBFD0D4D0D4EDFF838802C1F4FF4005739
:10169000E878FEF7DBFD00223346FEF765FDFEF736
:1016A000E2FD20601E30FEF77BFE39464046FEF725
:1016B0007EFFEDE74C000020280000200000F83FEE
:1016C00000100140000000000000000001020304BF
:1016D00006070809F416000800000020400000007A
:1016E00018160008341700084000002058040000B5
:1016F0002816000801420000010002000300040057
:10170000050006000700080009000A000B000C0095
:101710000D000E000F00100000000000000000008F
:1017200000000000010000001000000000000000A8
:041730000024F4009D
:04000005080000ED02
:00000001FF
