:020000040800F2
:1000000090080020010100083F3200083327000853
:100010003D32000815080008E93D00080000000016
:1000200000000000000000000000000095380008FB
:10003000170800080000000061360008393B00087E
:100040001B0100081B0100081B0100081B01000820
:100050001B0100081B0100081B0100081B01000810
:100060001B0100081B0100081B0100081B01000800
:100070001B0100081B0100081B0100081B010008F0
:100080001B0100081B0100081B0100081B010008E0
:100090001B0100081B0100081B0100081B010008D0
:1000A0001B010008B53B00081B0100081B010008EC
:1000B000C13B00081B0100081B0100081B010008D0
:1000C0001B0100081B0100081B0100081B010008A0
:1000D0001B0100081B0100081B0100081B01000890
:1000E0001B0100081B0100081B010008DFF80CD0F1
:1000F00000F076FA004800476D3F000890080020A5
:100100000648804706480047FEE7FEE7FEE7FEE7B1
:10011000FEE7FEE7FEE7FEE7FEE7FEE7B33B00088B
:10012000ED000008202A04DB203A21FA02F0002129
:10013000704721FA02F3D040C2F1200291400843F7
:100140001946704740EA01039B0703D009E008C93C
:10015000121F08C0042AFAD203E011F8013B00F88C
:10016000013B521EF9D27047D2B201E000F8012BD8
:10017000491EFBD270470022F6E710B513460A4627
:1001800004461946FFF7F0FF204610BDF0B480EAA0
:100190000102D40F4200B2EB410F02D202460846E0
:1001A00011464A0042D0C30DDDB2C1F3C752AD1AA9
:1001B000202D35DAC1F3160141F4000204B1524298
:1001C000C5F1200602FA06F12A411044B3EBD05FD4
:1001D00023D0C4B1012DA0EBC35009DCF0BC4FF01B
:1001E000004202EAC352DBB200F5000000F06CB935
:1001F000400000F1807000EBC350A0F1807040EA35
:10020000D170490009E0490841EAC071A0EBC35030
:1002100000F50000400800EBC350F0BC00F04BB903
:100220006142012202EB4101001BF6E7F0BC70477E
:1002300081F00041AAE780F00040A7E780EA0102D0
:1002400010B502F00043400022D04A001FD0010E3A
:1002500001EB1261C0F35600C2F3560240F40000F5
:1002600042F40002A0FB022000047F39140400D0F5
:10027000401C50EA124001D44000491EC2B20C0694
:1002800004EBD010401C4008802A02D003E000207C
:1002900010BD20F00100002900DA0020184310BD35
:1002A0002DE9FE4F804681EA0300C00F0C46009006
:1002B00021F0004123F00045B8EB0200A94105D22E
:1002C0004046214690461C460B46024623F000401D
:1002D000104347D0270DC7F30A00C3F30A51029019
:1002E000401A019040286BDAC3F3130040F4801BDE
:1002F0000098924620B10023D2EB030A63EB0B0B6C
:1003000001985946C0F14002504600F0B3F8064645
:100310000D4650465946019A00F0BBF810EB080014
:100320006141002487EA115284EAE7731A4340D0FE
:10033000009A62B3019A012A4FEA075215DC001BAA
:1003400061EB02014FF0004202EA0752CDE90042A0
:10035000001C41F5801132462B4600F0F2F803B044
:10036000BDE8F08F40462146F9E7001B61EB020132
:10037000001C41F5801300185B412018A2F50017FE
:1003800047EB030140EAD570B6196D4111E06D08E5
:100390004FEA360645EAC0754FEA0752001B61EB8B
:1003A0000201001C41F5801149084FEA3000001994
:1003B000514132462B4603B0BDE8F04F00F0B2B8D1
:1003C0000098012240000023D0EB020263EBE073AF
:1003D000009821464FEAE074B8EB000061EB04019D
:1003E000E9E783F000435BE781F0004158E720F044
:1003F0000040C10DC0F3160040F400007F2901DA6F
:1004000000207047962903DCC1F19601C84070476F
:1004100096398840704700F0004230F000400AD022
:10042000C10D01F56071C0F3160042EA0151C20826
:1004300040071143704700200146704701F0004318
:1004400030B421F0004150EA010206D00A0DA2F5B5
:100450006072C1F31301002A02DC30BC0020704737
:10046000440F44EAC104C100E01830BC00EBC250A4
:1004700000F021B8202A04DB203A00FA02F1002023
:1004800070479140C2F1200320FA03F319439040D2
:100490007047202A06DBCB17203A41FA02F043EAE4
:1004A000E07306E041FA02F3D040C2F1200291402D
:1004B0000843194670470029A8BF7047401C4900EF
:1004C00008BF20F00100704710B4B0FA80FC00FAB9
:1004D0000CF050EA010404BF10BC704749B1CCF1E4
:1004E000200421FA04F411FA0CF118BF0121214370
:1004F0000843A3EB0C01CB1D4FEA00614FEA10202B
:1005000042BF002010BC704700EBC35010440029CC
:10051000A4BF10BC7047401C490008BF20F0010078
:1005200010BC704710B5141E73F1000408DA401CAB
:1005300041F1000192185B411A4301D120F0010002
:1005400010BD2DE9F04D92469B4611B1B1FA81F2F2
:1005500002E0B0FA80F220329046FFF78BFF0446AB
:100560000F4640EA0A0041EA0B0153465A46084347
:1005700013D0114653EA010019D0C8F14002504689
:10058000FFF7D0FD05460E46504659464246FFF756
:1005900071FF084305D0012004E020463946BDE83C
:1005A000F08D0020054346EAE0762C4337430A9855
:1005B0006305E40AA0EB08000022FD0A44EA475460
:1005C0000A3002D500200146E9E70105101969410A
:1005D000DDE9084500196941BDE8F04DA2E70000DA
:1005E000064C074D06E0E06840F0010394E8070080
:1005F00098471034AC42F6D3FFF77CFD58690008E9
:100600007869000870B58C1810F8015B15F00703C5
:1006100001D110F8013B2A1106D110F8012B03E09B
:1006200010F8016B01F8016B5B1EF9D12B0705D4A3
:100630000023521E0DD401F8013BFAE710F8013BEC
:10064000CB1A921C03E013F8015B01F8015B521E08
:10065000F9D5A142D8D3002070BD000070B5044682
:1006600000688168C943C90717D1816821F0010179
:10067000816000F025FE05460AE000BF00F020FE84
:10068000401B022804D920688068C043C00706D0F8
:1006900020688068C043C007F0D0002070BDA06A09
:1006A00040F01000A062E06A40F00100E06201202A
:1006B00070BD0000F8B50026044600960068816809
:1006C000C943C9072DD0816841F0010181601648F6
:1006D00016490068B0FBF1F000E0401E00900028D1
:1006E000FBD100F0EDFD054616E000BF00F0E8FD8F
:1006F000401B022810D920688068C043C0070BD077
:10070000A06A40F01000A062E06A40F00100E062E0
:1007100084F824600120F8BD20688068C043C007C9
:10072000E4D10020F8BD00001000002040420F007E
:100730000EB56946009001200190052002900948FD
:1007400000F066FA08B100F067F8064800F04CFCCB
:100750004FF0FF31034800F0A9FB024800F0D6FA41
:1007600080B20EBD8C0100202DE9FE430C252848E7
:10077000CDE9000500244FF6E0774FF4FC683B46D6
:10078000424673210294042003F070F920483B464E
:100790001C30CDE900051F221E210294052003F024
:1007A00065F91B4810262B30CDE900063B46424632
:1007B0002D2102940F2003F059F915483B46A43827
:1007C000CDE900061F223C210294192003F04EF9C6
:1007D0000F483B46A238CDE900061F224121029472
:1007E000192003F043F90A483B463A30CDE90005A9
:1007F0004246502102940A2003F038F903F084FBAA
:10080000012803D0142000F04FFCF7E7BDE8FE8379
:10081000BB000020FEE7704772B6FEE72DE9FF4FF0
:1008200083B004464720CDE90040DDF844B00027FE
:100830004FF080093148109A07EB071110F811307A
:100840001278934240D100EB410A10989AF80110B7
:100850004078814238D1049804990F3083B204F172
:100860000F0082B2204602F051F9002600250AEB63
:10087000060800BFBBF1000F13D02149059808807E
:1008800098F8021029FA05F0014203D02046049995
:1008900001F0FCFF641C0098A4B2201A102826D096
:1008A0000AE098F8021029FA05F0014201D00598F3
:1008B00000E0069802F024FB6D1CEDB2082DD9D3A0
:1008C000761CF6B2202ED1D37F1C0198BFB287428E
:1008D000B0D30C484188008807B0491EBDE8F04FEE
:1008E000401E8BB282B20021084602F00FB9049874
:1008F000009C401C80B20490E2E70000DA5B000834
:10090000820100207E0400202DE9FF4F83B00446C1
:100910000720CDE90040DDF844B000274FF0800902
:1009200007EB870000EB47113048109A10F81130A0
:100930001278934240D100EB410A10989AF80110C6
:100940004078814238D104980499173083B204F179
:10095000170082B2204602F0D9F8002600250AEBE3
:10096000060800BFBBF1000F13D02149059808808D
:1009700098F8021029FA05F0014203D020460499A4
:1009800001F084FF641C0098A4B2201A182826D015
:100990000AE098F8021029FA05F0014201D0059802
:1009A00000E0069802F0ACFA6D1CEDB2082DD9D328
:1009B000761CF6B2482ED1D37F1C0198BFB2874275
:1009C000AED30C484188008807B0491EBDE8F04FFF
:1009D000401E8BB282B20021084602F097B80498FC
:1009E000009C401C80B20490E2E7000048650008CB
:1009F000820100207E0400202DE9FF4F83B00446D1
:100A00000420CDE90040DDF844B000274FF0800914
:100A10003148109A07EB871110F811301278934281
:100A200040D100EB410A10989AF8011040788142B9
:100A300038D1049804991F3083B204F11F0082B2A8
:100A4000204602F063F8002600250AEB060800BFE6
:100A5000BBF1000F13D021490598088098F80210C7
:100A600029FA05F0014203D02046049901F00EFF57
:100A7000641C0098A4B2201A202826D00AE098F816
:100A8000021029FA05F0014201D0059800E006980D
:100A900002F036FA6D1CEDB2082DD9D3761CF6B2F1
:100AA000802ED1D37F1C0198BFB28742B0D30C48AF
:100AB0004188008807B0491EBDE8F04F401E8BB248
:100AC00082B20021084602F021B80498009C401C24
:100AD00080B20490E2E700004E6700088201002027
:100AE0007E04002070B5154601F1270293B200F193
:100AF000270292B202F00AF800244FF4C86600BF41
:100B000005EB440115F81400497840EA012002F091
:100B1000F7F9641CB442F3DB064841880088491E9B
:100B2000401EBDE870408BB282B20021084601F041
:100B3000EDBF00007E040020F8B5002504460095B6
:100B400090F8240001280BD0012084F824002046CE
:100B5000FFF784FD2046FFF7ADFD060002D050E010
:100B60000220F8BDA06A20F4885040F00200A06284
:100B7000022000F079FD25490968B1FBF0F0400042
:100B800000E0401E00900028FBD12068816841F001
:100B90000801816000F094FB074608E000F090FB3C
:100BA000C01B0A2803D920688068000715D4206874
:100BB00080680007F2D42068816841F004018160F8
:100BC00000F07EFB074612E000F07AFBC01B0A280B
:100BD0000DD920688068400709D5A06A20F002007E
:100BE00040F01000A06284F824500120F8BD206875
:100BF00080684007E8D4A06A20F0020040F00100BD
:100C0000A06284F824503046F8BD00001000002097
:100C1000F8B50024009490F824202546012A12D02B
:100C2000012280F824204A681F23072A0DD2066873
:100C3000776B521E02EB820293409F430B689340F6
:100C40001F43776319E00220F8BD06680D2A0AD217
:100C5000376BD21F02EB820293409F430B68934095
:100C60001F43376309E0F76A0D3A02EB82029340B3
:100C70009F430B6893401F43F7620A680723066887
:100C80000A2A0AD3F7680A3A02EB420293409F43CA
:100C90008B6893401F43F76008E0376902EB42021C
:100CA00093409F438B6893401F4337610A68102A23
:100CB00001D0112A20D1124B02689A4217D19368B1
:100CC0001B0219D4936843F4000393600968102948
:100CD00012D10C490C4A0968B1FBF2F101EB810118
:100CE000490000E0491E00910029FBD104E0816A1F
:100CF00041F020018162012480F824502046F8BD93
:100D0000002401401000002040420F000068C06C29
:100D1000704700002DE9F0414FF0000704003D4608
:100D20007ED0A06A002628B9E66284F824602046B6
:100D300000F07EF82046FFF791FCA16AC90600D4B6
:100D400020B1A06A40F01000A06269E0A16A21F41D
:100D5000885141F00201A1626268E169237B0A4384
:100D600047EA43010A43A1684FF48077B94209D0AA
:100D7000012907D05FF0000194F814C0BCF1010F05
:100D800002D00AE03946F7E7F3B1A36A43F0200343
:100D9000A362E36A43F00103E3622368D3F804C06B
:100DA0002CF4694C4CEA010CC3F804C021688B6830
:100DB000DFF870C003EA0C0313438B60A168B942EB
:100DC0000BD0012909D00CE0DFF85CC0A3690CEB63
:100DD00043330B4343F40061DFE7218A0D05A5F59A
:100DE00080152168CB6A23F470032B43CB62216802
:100DF00089680E4B1940914208D1E662A16A21F040
:100E0000020141F00101A162BDE8F081A06A20F079
:100E1000020040F01000A062E06A40F00100E062D1
:100E20000120F1E7FDF7E1FF00E0FFFFFE0E1FFFED
:100E300010B586B0002100910191029103910068E4
:100E40001649884227D11648816941F400718161B1
:100E5000816901F400710491816941F004018161AB
:100E6000816901F004010491816941F00801816107
:100E70008069032400F0080004905320CDE90004A9
:100E80006946084800F022F90120CDE900046946CE
:100E9000054800F01BF906B010BD00000024014019
:100EA0000010024000080140000C01402DE9F84309
:100EB00000270D460446009700F002FA804620689D
:100EC0008168C90508D5A06A40F02000A06284F8B6
:100ED00024700120BDE8F8834168C90503D4C06AC5
:100EE00010F4700F2AD0022000F0BEFB3B490968C5
:100EF000B1FBF0F62068036939490B424FEA610102
:100F00004FEAA1121FD1C3684FEA611C13EA0C0F0C
:100F100019D103690B4225D1C068104222D1142097
:100F200023E0681C0AD02DB100F0CAF9A0EB08003C
:100F3000A84203D920680068800725D5206800688A
:100F40008007EED52DE003690B4202D1C168114242
:100F500006D0026923490A4206D1C068084203D17B
:100F6000542002E0292000E0FC204643009816E0CF
:100F7000681C11D02DB100F0A3F9A0EB0800A84225
:100F80000AD90098B04207D2A06A40F00400A062DB
:100F900084F8247003209DE70098401C0090B04224
:100FA000E6D321686FF012000860A06A40F4007078
:100FB000A06220688068C0F3424007280CD1207BE3
:100FC00050B9A06A20F48070A062A06AC00403D463
:100FD000A06A40F00100A06200207BE71000002022
:100FE000244992244992240070B5044690F82400C4
:100FF00001280DD0012084F824002046FFF75AFB79
:1010000002004FF0000005D084F82400104670BDA7
:10101000022070BDA16A40F20123994341F480711E
:10102000A1621F4D23681F49AB4218D10E6816F408
:10103000702F14D0A66A46F48016A6620E68760554
:1010400005D5A66A26F4005646F48056A662A66A1E
:10105000F6040AD5E66A26F00606E66206E0A66A07
:1010600026F48016A6625E68E9E7E06284F8240050
:101070006FF00200186020688368C3F34243072BB7
:1010800005D1A84208D1096811F4702F04D08168F5
:1010900041F480118160B9E7816841F4A001F9E76A
:1010A000002801400424014070B5044600F008F90E
:1010B0000546601C02D004480078044400F000F9A2
:1010C000401BA042FAD370BD040000202DE9F84F68
:1010D000DFF8B8910024A9F1040B23460F2709F18A
:1010E000040AABF1040EC9E00125A5402A40AA423A
:1010F0007DD1674ED1F804C0ACEB0608B44532D0C0
:1011000014DCBCF1030F3AD009DCBCF1000F2AD08B
:10111000BCF1010F1CD0BCF1020F31D11DE0BCF1BC
:10112000110F17D0BCF1120F2AD119E0B8F5881FA2
:1011300019D006DCB8F5803F15D0B8F5801F1FD157
:1011400011E0B8F5001F0ED0B8F5041F18D10AE061
:10115000CB6815E0CB681B1D12E0CB6808330FE0AD
:10116000CB680C330CE08B682BB1012B4FF00803DC
:1011700003D0456104E0042302E0056100E00023A0
:10118000FF2A01D8064601E000F104064FEA840573
:1011900001D9A5F12005D6F8008007FA05FC28EA58
:1011A0000C0803FA05F548EA0508C6F800804D6802
:1011B000ED0062D5374DAE6946F00106AE61AD690E
:1011C00024F0030605F001050095334D06EB050CF0
:1011D000DCF80850A607360F07FA06F825EA0805D6
:1011E000DFF8B880404503D14FF0000817E044E035
:1011F000DFF8AC80404502D14FF001080FE0DFF886
:10120000A480404502D14FF0020808E0DFF8988042
:10121000404502D14FF0030801E04FF0040808FAFE
:1012200006F848EA0508CCF808804D68D9F800604F
:10123000ED024D4601D5164300E096432E604D6801
:10124000DAF80060AD02554601D5164300E096433A
:101250002E604D68DBF80060AD035D4601D5164396
:1012600000E096432E604D68DEF80060ED037546A1
:1012700001D5164300E096432E60641C0D682A4693
:10128000E5407FF431AFBDE8F88F0000080401406D
:101290000000111000100240000001400008014051
:1012A000000C01400010014000140140806808401B
:1012B00000D0012070470AB1016170470904FBE7C3
:1012C00001488068704700000400002070B50400E9
:1012D00025D094F83D00002520B984F83C502046E4
:1012E00000F0B8F8242084F83D002068016821F05F
:1012F000010101602068016841F40041016020683B
:10130000016821F40041016000F02CFB4D4A616846
:10131000914201D84C4900E04C49884201D2012059
:1013200070BD4B492368B0FBF1F15E6826F03F06C3
:101330000E435E606368934206D94FF49673594337
:101340004FF47A73B1FBF3F12368491C1E6A26F04F
:101350003F06314319626168914210D84900401E2E
:10136000B0FBF1F2521CC2F30B02042A01D204209A
:1013700022E0B0FBF1F0401CC0F30B001CE0A268BF
:10138000F2B301EBC10303EB0116431EB3FBF6F30B
:101390005B1C43F480431B0549D092B301EBC102AF
:1013A00002EB0111401EB0FBF1F0401CC0F30B003A
:1013B00040F4804040F400402168CA694CF6FF7355
:1013C0009A431043C861D4E90710014320680268BA
:1013D00022F0C00211430160D4E9030101432068F7
:1013E000826848F2FF339A4311438160D4E90501D2
:1013F00008432168CA6822F0FF021043C86001E078
:101400000EE016E02068016841F0010101602564EA
:10141000202084F83D00256384F83E50002070BDF4
:1014200001EB4106431EB3FBF6F35B1CB3E701205F
:10143000C2E701EB4101401EB0FBF1F0401CC0F3DC
:101440000B00B7E7A086010080841E0000093D0064
:1014500040420F0030B585B000210091019102910A
:1014600003911E4D03681E4C122103221D48AB42FE
:1014700016D1A36943F00803A361A369039203F0A3
:1014800008030493C023CDE900316946FFF71EFE2F
:10149000E06940F40010E061E06900F4001019E038
:1014A000114DAB4217D1A36943F00803A361A369AF
:1014B000039203F0080304934FF44063CDE9003135
:1014C0006946FFF703FEE06940F48000E061E069EF
:1014D00000F48000049005B030BD000000540040CE
:1014E00000100240000C0140005800400248816892
:1014F000027811448160704704000020074810B54D
:10150000016841F010010160032000F09BF80F20FA
:1015100000F006F800F04AF8002010BD002002405C
:1015200030B505461C4887B0816941F4006181618E
:10153000806906A900F40060009001A800F0F2F9AB
:1015400000F020FA1549164AB0FBF1F11548491E82
:101550000260416040F2E7320021C0E9032181606E
:10156000816100F06BFE040012D10E4800F0B0FE65
:1015700004000DD1192000F037F8102D07D20022F9
:101580002946192000F03EF80748056000E00124D4
:1015900007B0204630BD00000010024040420F005E
:1015A000002C0140EC030020080000200C4808B586
:1015B000816941F001018161816901F001010091BE
:1015C000C16941F08051C161C06900F08050009054
:1015D0000448416821F0E06141F00071416008BDBC
:1015E0000010024000000140002809DB00F01F024B
:1015F000012191404009800000F1E020C0F8001175
:1016000070470000F0B40E4B1B680C46C3F3022376
:10161000C3F10705042D00D90425191D072901D29E
:10162000002300E0DB1E012606FA05F1491E2140D9
:1016300099409E40761E16403143F0BC02F0DEBB5E
:101640000CED00E0064900F0070208684FF6FF03C2
:10165000184040EA0220034A104308607047000027
:101660000CED00E00000FA0510B501460020234C07
:10167000012922D0022939D010291DD161682268A0
:10168000D20119D51E48C1F38342C903805C0AD533
:1016900061681B4AC1F34041921E515C194AB2FB7A
:1016A000F1F1484301E0184948436168490203D415
:1016B00040000321B0FBF1F010BD226AC2F301210A
:1016C000012903D1920701D5C80310BD022905D114
:1016D000626A920702D549F6404010BD0329FCD149
:1016E00021688903F9D54FF2244010BD00F04AF972
:1016F0006168C1F38131491C4900DBE700100240F9
:101700004451000800127A0000093D002DE9F84319
:1017100005460078354CC00754D0E0690026C0006B
:1017200008D4E06940F08050E061E069012600F0F3
:10173000805000902E480168C90512D40168804687
:1017400041F480710160FFF7BBFD074605E000BF73
:10175000FFF7B6FDC01B642823D8D8F80000C005E9
:10176000F6D5206A10F4407021D0A98801F44071A8
:1017700081421CD0206A1F49012220F440700A6077
:1017800000220A602062C00711D0FFF799FD0746CA
:1017900041F2883808E000BFFFF792FDC11B4145C8
:1017A00002D90320BDE8F883206A8007F4D5206AB7
:1017B000696820F44070084320621EB1E06920F09F
:1017C0008050E0612878800705D56068A96820F41A
:1017D0004040084360602878C00605D56068E96825
:1017E00020F48000084360600020DBE70010024026
:1017F00000700040400442422DE9F0470F460500CA
:1018000061D0434E306800F00700B84209D230681A
:1018100020F0070038433060306800F00700B8421D
:1018200051D128683B4C810712D5400703D5606829
:1018300040F4E06060602878000703D5606840F4F9
:10184000605060606068A96820F0F0000843606044
:101850002878C00728D06868012810D0216802289D
:1018600010D0890700292EDA616821F003010143B5
:101870006160FFF725FD804641F288390DE021685F
:101880008903EFE78901EDE7FFF71AFDA0EB0801F7
:10189000494502D90320BDE8F0876068696800F017
:1018A0000C00B0EB810FEFD1306800F00700B842B8
:1018B0000BD9306820F0070038433060306800F002
:1018C0000700B84201D00120E5E72878400705D598
:1018D0006068E96820F4E0600843606028780007E9
:1018E00006D56068296920F4605040EAC100606054
:1018F00000F058F86168084AC1F30311515CC84010
:101900000649086006480068FFF70AFE0020C2E7A3
:101910000020024000100240545100081000002036
:10192000080000200F2202600C4A536803F00303F2
:101930004360536803F0F0038360536803F4E0638B
:10194000C36052684FF4E06303EAD20202610448C4
:10195000006800F0070008607047000000100240B7
:10196000002002400448054900684968044AC1F360
:101970000221515CC8407047100000200010024056
:10198000645100080448054900684968044AC1F3E5
:10199000C221515CC8407047100000200010024076
:1019A000645100080E4A51680E4801F00C03042BE4
:1019B00011D0082B0FD10C48C1F38343C903C05C7D
:1019C0000AD55168084AC1F34041921E515C054A4C
:1019D0005043B0FBF1F070470449484370470000A2
:1019E0000010024000127A003251000800093D0048
:1019F0002DE9F84F040070D02078C04DC00749D0C1
:101A00006868C0F38100012807D06868C0F38100CE
:101A1000022809D16868C00306D52868800339D533
:101A200060680028E7D035E06068B0F5803F0BD0F3
:101A300010B1B0F5A02F11D0286820F480302860B4
:101A4000286820F4802002E0286840F48030286074
:101A5000606890B1FFF734FC06460AE0286840F45D
:101A600080202860F0E700BFFFF72AFC801B642875
:101A700073D828688003F7D50CE0FFF721FC0646F1
:101A800005E000BFFFF71CFC801B6428F0D8286825
:101A90008003F7D420789A4E80074FF001094FF069
:101AA000000839D5686810F00C0F07D06868C0F3DB
:101AB0008100022809D16868C00306D4286880071D
:101AC00014D52069012808D110E02069B0B1C6F80A
:101AD0000090FFF7F5FB074605E00AE1FFF7F0FB92
:101AE000C01B0228C4D828688007F7D52868616918
:101AF00020F0F80040EAC10028600DE0C6F8008040
:101B0000FFF7DEFB074604E0FFF7DAFBC01B022805
:101B100023D828688007F7D4207800072CD5794887
:101B2000A169D9B1C0F80090FFF7CAFB074604E0ED
:101B3000FFF7C6FBC01B02280FD8686A8007F7D5DD
:101B400071484FF4FA510068B0FBF1F0009000BF0B
:101B50000098411E0091FAD20EE080E0C0F80080AB
:101B6000FFF7AEFB074604E0FFF7AAFBC01B022805
:101B700075D8686A8007F7D42078400760D5E8698F
:101B80000027C00008D4E86940F08050E861E869A7
:101B9000012700F0805000905C480168C90513D40B
:101BA0000168834641F480710160FFF789FB82463A
:101BB00006E000BFFFF784FBA0EB0A0064284ED8C4
:101BC000DBF80000C005F5D5E06801280AD008B1AF
:101BD000052813D0286A20F001002862286A20F026
:101BE000040002E0286A40F001002862E06841F247
:101BF000883B98B1FFF764FB82460BE0286A40F00F
:101C000004002862EEE700BFFFF75AFBA0EB0A01D1
:101C100059455AD8286A8007F6D50CE0FFF750FBE3
:101C2000824605E0FFF74CFBA0EB0A0159454CD872
:101C3000286A8007F6D41FB1E86920F08050E86177
:101C4000E06988B36968C1F38101022944D00228A0
:101C5000C6F8608004D0FFF733FB044638E034E078
:101C6000FFF72EFB074604E0FFF72AFBC01B022804
:101C70002BD828688001F7D4206AB0F5803F05D1C1
:101C80006868A16820F4003008436860D4E908015E
:101C90000843696821F4741108436860C6F86090CD
:101CA000FFF70EFB044606E025E000BFFFF708FB48
:101CB000001B022809D828688001F7D51BE000BF67
:101CC000FFF7FEFA001B022802D90320BDE8F88FB7
:101CD00028688001F4D40EE00128F7D06868226AF1
:101CE00000F48031914204D1616A00F4701088429E
:101CF00001D00120EAE70020E8E7000000100240E0
:101D00000000424280044242100000200070004067
:101D100070B5040009D0606A002540B12561656195
:101D2000A56294F8510040B10CE0012070BD6068DC
:101D3000B0F5827FF4D0E561F2E784F85050204698
:101D400000F040F8022084F851002068016821F07A
:101D500040010160A088218900F4827001F40441EF
:101D60000843A18901F400610843217C01F00201CC
:101D70000843217D01F001010843218B01F400712A
:101D80000843217F01F03801084394F8201001F046
:101D900080010843218D01F4005108432168086047
:101DA000A069042101EA1040216848602068C169E7
:101DB00021F40061C1616565012084F851000020B3
:101DC00070BD000030B585B00024009401940294E9
:101DD0000394234D0368234802210322AB4216D10A
:101DE000836943F480538361836903F480530493CC
:101DF000836943F0040383618069039200F0040067
:101E00000490A020CDE900016946174823E0174D52
:101E1000AB4222D1C36943F48043C361C36903F475
:101E200080430493836943F0080383618069104D04
:101E300000F0080004904FF42040CDE90001039227
:101E400069462846FFF742F94FF48040CDE9000487
:101E5000694628460294FFF739F905B030BD000005
:101E600000300140001002400008014000380040EE
:101E7000000C01402DE9F84F044690F85000002670
:101E8000984615468A4601280CD0012784F85070E0
:101E9000FFF716FA814694F85100B346012804D0A2
:101EA00002269AE00220BDE8F88FBAF1000F6FD049
:101EB000002D6DD0032084F85100C4F854B0C4F84C
:101EC00030A0A586E586C4F838B0A4F83CB0A4F8E4
:101ED0003EB0C4F844B0C4F840B0A068B0F5004FBC
:101EE00009D12068016821F0400101602068016883
:101EF00041F48041016020680168490603D401680B
:101F000041F040010160E068B0F5006F606803D007
:101F100058B3012D29D049E008B1012D1FD1206B04
:101F200021680088C86006E020688168890709D5B3
:101F3000216B0988C160206B801C2063E08E401EED
:101F4000E0860CE0FFF7BCF9A0EB0901414503D3A3
:101F5000B8F1FF3F03D006E0B8F1000F03D0E08EE8
:101F60000028E1D125E0032635E0206B21680078C8
:101F7000087306E02068816889070AD5216B097813
:101F80000173206B401C2063E08E401EE0860DE054
:101F90001FE0FFF795F9A0EB0901414503D3B8F124
:101FA000FF3F03D0DFE7B8F1000FDCD0E08E002860
:101FB000E0D14A464146204601F0F0FB08B120201E
:101FC0006065A06818B92068C16880680090606D7D
:101FD00008B1012601E084F8517084F850B0304611
:101FE00061E72DE9FF4F81B0044690F850000026CC
:101FF0000E9F1D4693464FF0010901280FD04FF068
:10200000010A84F850A0FFF75BF9804694F851006C
:10201000616801280DD0B1F5827F08D103E002206C
:1020200005B0BDE8F08FA16809B9042801D00226E7
:10203000C9E00298002865D0BBF1000FFBD0002D4D
:10204000F9D094F85100042802D0052084F85100FA
:1020500000206065C4F838B0E587A5870299216340
:10206000E586A5862064606420680168490603D47B
:10207000016841F040010160E068B0F5006F606800
:1020800003D0F0B3012D47D081E008B1012D3CD140
:10209000206B21680088C860206B801C2063E08E64
:1020A000401EE08631E02068816889070FD5E18E07
:1020B00069B1B9F1010F0AD1216B0988C160206BA8
:1020C000801C2063E08E401EE0864FF000092068EF
:1020D0008168C9070CD0E18F51B1C068A16B08803D
:1020E000A06B801CA063E08F401EE0874FF00109C9
:1020F000FFF7E6F8A0EB0800B84206D3781C04D03E
:1021000001E009E05BE003265BE0E08E0028CAD135
:10211000E08F0028C7D140E0206B21680078087369
:10212000206B401C2063E08E401EE0862FE020687C
:10213000816889070FD5E18E69B1B9F1010F0AD124
:10214000216B09780173206B401C2063E08E401ED8
:10215000E0864FF0000920688168C9070CD0E18F44
:1021600051B1C068A16B0870A06B401CA063E08FE8
:10217000401EE0874FF00109FFF7A2F8A0EB08002E
:10218000B84202D3781C02D0BAE7002FB8D0E08E54
:102190000028CCD1E08F0028C9D1424639462046DC
:1021A00001F0FCFA18B10126202060650BE0A06860
:1021B00018B92068C16880680090606D08B1012678
:1021C00001E084F851A0002084F85000304627E751
:1021D0007047704770B590F83C20012A26D0012442
:1021E00080F83C40022280F83D2003685A689D68D0
:1021F00022F070060A6832435A600D4B02689A4218
:1022000008D0B2F1804F05D00A4B9A4202D00A4B57
:102210009A4204D1496825F080031943916080F8FF
:102220003D40002180F83C10084670BD022070BD82
:10223000002C0140000400400008004010B50400DC
:1022400003D094F83D0010B107E0012010BD00203C
:1022500084F83C00204600F01FF8022084F83D007E
:10226000211D206801F0BCFC012084F8460084F8A0
:102270003E0084F83F0084F8400084F8410084F870
:10228000420084F8430084F8440084F8450084F850
:102290003D00002010BD000008B50068B0F1804F7F
:1022A00012D10A48C16941F00101C161C06900222F
:1022B00000F00100009011461C20FFF7A3F9BDE8D3
:1022C00008401C20FFF790B908BD00000010024034
:1022D00090F83D10012901D001207047022180F8BB
:1022E0003D100168CA6842F00102CA6000680B49EB
:1022F000884208D0B0F1804F05D00949884202D009
:102300000849884204D1816801F00701062903D0F9
:10231000016841F00101016000207047002C01407C
:10232000000400400008004070B5044690F83C00EE
:102330000025012817D0012684F83C60022084F88B
:102340003D002068826822F0770222F47F4282609A
:102350000868502838D00DDC20284FD005DC90B319
:10236000102811D14AE0022070BD302846D0402804
:102370000AD13BE060282FD070280DD0B0F5805FE7
:1023800003D0B0F5005F12D0012584F83D60002035
:1023900084F83C00284670BDCB68D1E90121206853
:1023A00001F054FC2068816841F0770109E0CB68B6
:1023B000D1E90121206801F049FC2068816841F4DD
:1023C00080418160E1E719E0CA684968206801F04E
:1023D0004FFC5021206806E0CA684968206801F077
:1023E00058FC6021206801F03BFCCEE7CA684968D0
:1023F000206801F03DFC40212068F4E72268014696
:102400001046F0E7704770B50446006801694FF068
:102410000005C943890715D4C168C943890711D488
:10242000E91E01610120207720688069800720462D
:1024300002D0FFF7E7FF04E000F098F8204600F034
:1024400096F8257720680169C943490717D4C16800
:10245000C943490713D46FF00401016102202077BA
:102460002068806910F4407F204602D0FFF7CAFF41
:1024700004E000F07BF8204600F079F8257720682A
:102480000169C943090716D4C168C943090712D4B1
:102490006FF008010161042020772068C06980077F
:1024A000204602D0FFF7AEFF04E000F05FF82046C0
:1024B00000F05DF8257720680169C943C90617D483
:1024C000C168C943C90613D46FF010010161082027
:1024D00020772068C06910F4407F204602D0FFF7C3
:1024E00091FF04E000F042F8204600F040F8257724
:1024F00020680169C943C90708D1C168C943C90730
:1025000004D1891E0161204600F032F8206801697B
:10251000C943090609D4C168C943090605D46FF047
:10252000800101612046FFF753FE20680169C9431D
:10253000490609D4C168C943490605D46FF0400172
:102540000161204600F01EF820680169C943890630
:102550000BD4C168C943890607D46FF0200101611B
:102560002046BDE87040FFF734BE70BD704770472D
:1025700000680349884201D1FEF7B8BF70470000E8
:10258000002C0140704770B5040004D094F841005D
:10259000002510B106E0012070BD84F840502046AF
:1025A00000F024F8242084F841002068C16821F458
:1025B0000051C160204601F07FFB2068016921F4D1
:1025C000904101612068416921F02A014161206840
:1025D000C16841F40051C1606564202084F8410065
:1025E00084F842006563002070BD000070B586B0BD
:1025F00000240094019402940394234E0368234919
:1026000002200322224DB34219D18B6943F4804347
:102610008B618B6903F4804304938B6943F004035B
:102620008B618969039201F0040104910102CDE9F3
:10263000001069462846FEF749FD28151BE0154E97
:10264000B3421FD1CB6943F40033CB61CB6903F4B0
:10265000003304938B6943F004038B61896903920F
:1026600001F0040104910421CDE9001069462846D7
:10267000FEF72CFD0820CDE90004694628460294A7
:10268000FEF724FD06B070BD003801400010024086
:1026900000080140004400402DE9F843044690F84A
:1026A00041001F4616460D46202802D00220BDE8F4
:1026B000F8837DB176B100206064212084F8410068
:1026C000FEF7FEFDA6848046E684A068B0F5805F34
:1026D00002D003E00120EAE7206910B12E46002570
:1026E0000EE000260CE08021204601F041FBA0B95D
:1026F000AEB116F8010B21684860E08C401EE08402
:10270000E08C43464FF0000200970028EBD14FF0D9
:102710004001204601F02CFB30B10320C7E735F81B
:10272000020BC0F30800E6E7202084F841000020F7
:10273000BDE7FEE72DE9FE4F10203649CDE9001038
:1027400000244FF6E07633464FF4FC6202940521F4
:10275000192001F08BF92F480C25F038CDE9000540
:1027600033461F2273210294052001F07FF9294886
:102770003346F538CDE900051F22732102946E20FF
:1027800001F074F9244FDFF89480DFF89490DFF8BB
:1027900094A0DFF894B0254C02253878012804D0A5
:1027A00098F80010012906D014E03D703046BDE8CD
:1027B000FE4F00F041B888F800501D49E06888429B
:1027C00008DAFDF728FE52465B46FDF769FDFDF786
:1027D00035FEE06099F8000001280FD189F800501B
:1027E0001449A068884209DBE068FDF714FE5246F0
:1027F0005B46FDF7F6FDFDF721FEE060142000903A
:1028000003233C212820E26800F07AFA1420FEF726
:102810004BFCC2E71D0100207E010020800100204A
:10282000810100209A9999999999C93F1400002033
:102830000000204110CD4C3E2DE9F047114C81465F
:10284000002163882288084600F060F90E484FF4A2
:1028500000670760A0F104088114C8F80010002682
:1028600009E0002503E0484600F04AFB6D1C208883
:10287000A842F8D8761C6088B042F2D8C8F8007038
:10288000BDE8F0877E0400201408014010B500F078
:1028900039F903480088BDE8104000F031BB000062
:1028A0008201002010B500F01BF9112000F0CEFAD3
:1028B0007820FEF7F9FBB12000F0C8FA012000F003
:1028C000AFFA2C2000F0ACFA2D2000F0A9FAB220CB
:1028D00000F0BCFA012000F0A3FA2C2000F0A0FACE
:1028E0002D2000F09DFAB32000F0B0FA012000F096
:1028F00097FA2C2000F094FA2D2000F091FA012094
:1029000000F08EFA2C2000F08BFA2D2000F088FACF
:10291000B42000F09BFA072000F082FAC02000F0FB
:1029200095FAA22000F07CFA022000F079FA8420C7
:1029300000F076FAC12000F089FAC52000F070FAA4
:10294000C22000F083FA0A2000F06AFA002000F0AA
:1029500067FAC32000F07AFA8A2000F061FA2A2090
:1029600000F05EFAC42000F071FA8A2000F058FAF4
:10297000EE2000F055FAC52000F068FA0E2000F0B5
:102980004FFA362000F062FAC82000F049FAE02041
:1029900000F05CFA0F2000F043FA1A2000F040FA31
:1029A0000F2000F03DFA182000F03AFA2F2000F036
:1029B00037FA282000F034FA202000F031FA2220E3
:1029C00000F02EFA1F2000F02BFA1B2000F028FA4E
:1029D000232000F025FA372000F022FA002000F032
:1029E0001FFA072000F01CFA022000F019FA10204C
:1029F00000F016FAE12000F029FA0F2000F010FA9A
:102A00001B2000F00DFA0F2000F00AFA172000F04A
:102A100007FA332000F004FA2C2000F001FA2920F4
:102A200000F0FEF92E2000F0FBF9302000F0F8F95C
:102A3000302000F0F5F9392000F0F2F93F2000F0E5
:102A4000EFF9002000F0ECF9072000F0E9F903208D
:102A500000F0E6F9102000F0E3F92A2000F0F6F982
:102A6000002000F0DDF9002000F0DAF9002000F08D
:102A7000D7F97F2000F0D4F92B2000F0E7F90020EF
:102A800000F0CEF9002000F0CBF9002000F0C8F9EA
:102A90009F2000F0C5F9F02000F0D8F9012000F0E7
:102AA000BFF9F62000F0D2F9002000F0B9F93A2081
:102AB00000F0CCF9052000F0B3F9292000F0C6F9A8
:102AC000002000F0E9F905494FF480700860BDE886
:102AD00010404FF6FF70FFF7AFBE00001008014036
:102AE00010B507484FF4004404606420FEF7DCFA98
:102AF0000348001F0460BDE810403220FEF7D4BA3E
:102B0000140801400B460246AFF300802DE9F04166
:102B1000174C0746984615460E46A07A00F096F9DF
:102B2000002000F07DF9A07B3844C0B200F078F9B5
:102B3000002000F075F9A07B2844C0B200F070F9C5
:102B4000207B00F083F9002000F06AF9E07B30443C
:102B5000C0B200F065F9002000F062F9E17B01EB02
:102B60000800C0B200F05CF9BDE8F04100F084B9A3
:102B70007E0400202DE9FF4F81B08A460EA9DFF8C0
:102B8000EC9091E83100203800F0FF080AEB0400D7
:102B9000401E83B20198B9F800B000EB5400401E0B
:102BA00082B251460198FFF7B1FF002D4FF00005AA
:102BB00049D12F4808EB480100EB810A00F274402C
:102BC00000EB081817E00C2C03D018F8057000264D
:102BD0000CE01AF80570FAE7F80701D0039800E056
:102BE000049800F08DF97F08761CF6B2B6EB540F0E
:102BF000F2D36D1CEDB2A542E5D326E00C2C08D033
:102C00001C4901EB08100026475D0AEB0500009007
:102C100014E0174808EB480100EB8100F3E7039844
:102C2000A9F80000F80706D0009881B20198304456
:102C300080B2FFF72BFE7F08761CF6B2B6EB540F7E
:102C4000EDD36D1CEDB2A542D8D30B48A9F800B066
:102C50004188008805B0491EBDE8F04F401E8BB288
:102C600082B200210846FFF751BF00008201002018
:102C700076510008EA5500087E0400202DE9FF4F38
:102C800083B00026DDF840801D463446B2464FEA48
:102C90005807DFF86490DFF864B028E0281B401E76
:102CA000C1B20A2001F0CDFA0599B1FBF0F00A217A
:102CB000B0FBF1F201FB120026B9691E8C4201DA69
:102CC00028B101263030C0B28DE8010502E0202293
:102CD0008DE804050398B9F8003007FB040080B2C2
:102CE000BBF800200499FFF745FF641CE4B2AC4236
:102CF000D4D307B0BDE8F08F84010020820100200A
:102D00002DE9FF4F85B01D46129F4FF0000B12F1C9
:102D1000FF4F03D3012082F0004203903D4910464B
:102D2000FDF78CFAFDF763FB00241FFA80FAA5F18A
:102D300001087E083FE0281B0090401EC1B20A2017
:102D400001F07FFABAFBF0F10A20B1FBF0F200FBD0
:102D50001219BBF1000F06D1444504DAB9F1000F96
:102D60002ED04FF0010B444511D12E2100910020AF
:102D7000CDE90170284905980B88284906FB040015
:102D80000A8880B20699FFF7F5FE641CE4B209F1E7
:102D90003000C0B2CDE90007002102911E4905981C
:102DA0000B881E4906FB04000A8880B20699FFF7CB
:102DB000E1FE641CE4B2AC42BDD309B0BDE8F08FC3
:102DC0000098801EC1B20A2001F03BFABAFBF0F174
:102DD0000A20B1FBF0F200FB121010B10398012899
:102DE00005D0002020210091CDE90170D6E72D21EA
:102DF00000910020CDE90170074905980B8807492B
:102E000006FB04000A8880B20699FFF7B3FE002093
:102E10000390CEE7000020418401002082010020C1
:102E200031B508484FF400640460064D80142D1F2E
:102E300028600223012269460348FFF71BF82C6033
:102E400038BD0000140801406402002031B5084874
:102E50004FF400640460811401600223012269467A
:102E60000448FFF707F80248001F046038BD00005F
:102E700014080140640200200148007AFFF7E6BF11
:102E80007E04002010B50C46FFF7E0FFE0B2BDE87D
:102E90001040FFF7C5BF000030B418492A220325AF
:102EA0004A812B228A812C220A81022280238C24AF
:102EB00078B1012813D00125022816D003281AD191
:102EC0000C804B808D73CA73682130BC3620FFF7AD
:102ED000D9BF0B804C808A73CD73C821F5E70C8075
:102EE0004B808D73CA73A821EFE70B804C808A73E7
:102EF000CD730821E9E730BC704700007E04002054
:102F000038B508494FF400640C60064D89142D1F34
:102F10002960022300901A4669460348FEF7AAFF7B
:102F20002C6038BD14080140640200203EB5002426
:102F300010480094019402940D4984600160047368
:102F40000475012505614FF460214460C161FDF7FE
:102F5000E1FE08B1FDF760FCCDE900456946054892
:102F60000294FDF755FE002801D0FDF755FC3EBD4B
:102F7000002401408C0100202DE9F04786B0002498
:102F800031480094019402940394816941F0100146
:102F90008161816901F010010491816941F0200192
:102FA0008161816901F020010491816941F004018E
:102FB0008161816901F004010491816941F0080196
:102FC00081618069DFF8848000F008004FF40045DB
:102FD0000490002229464046FEF76DF9DFF870A004
:102FE000002202215046FEF766F9DFF868904FF4A0
:102FF0001947002239464846FEF75DF90126CDE91A
:103000000056022569464046CDE90245FEF75EF8C6
:10301000CDE9005669465046CDE90245FEF756F81F
:10302000CDE9007669464846CDE90245FEF74EF8FF
:103030004FF49C708DE8310069465046FEF746F823
:1030400006B0BDE8F087000000100240001001400B
:10305000000C0140000801400D4810B50B4901600B
:103060000C49416000214FF480428160C0E90312A5
:1030700041618161C1610162FEF728F9002803D036
:10308000BDE81040FDF7C8BB10BD00000054004073
:10309000BC010020A08601000D4810B50B4901605D
:1030A0000C49416000214FF480428160C0E9031265
:1030B00041618161C1610162FEF708F9002803D016
:1030C000BDE81040FDF7A8BB10BD0000005800404F
:1030D00010020020A0860100104810B50E490160C2
:1030E0004FF48271416000218160C1604FF4007231
:1030F0000161C0E905120822C0E90721416281622D
:103100000A21C162FEF704FE002803D0BDE810408A
:10311000FDF782BB10BD00000030014064020020BA
:103120000F4810B50D4901604FF4827141600021D4
:103130008160C1604FF400720161C0E90512C16194
:103140000162416281620A21C162FEF7E1FD00284D
:1031500003D0BDE81040FDF75FBB10BD0038004054
:10316000BC02002010B586B00024174800940194DA
:103170000294039404944FF080410594016041F659
:103180001F41C0E9011440F2F311C0E9031480218A
:103190008161FFF753F808B1FDF73EFB4FF4805013
:1031A000009069460848FFF7BFF808B1FDF734FB07
:1031B000049404A904480594FFF70CF8002801D0F2
:1031C000FDF72AFB06B010BD140300200C4810B513
:1031D0000A4901604FF4E1314160002181600C2215
:1031E000C160C0E904128161C161FFF7CCF9002818
:1031F00003D0BDE81040FDF70FBB10BD0038014003
:103200005C0300200C4810B50A4901604FF4E1311D
:103210004160002181600C22C160C0E9041281611B
:10322000C161FFF7B0F9002803D0BDE81040FDF7F9
:10323000F3BA10BD00440040A4030020FEE7FEE7FF
:103240001CB510A1D1E90001CDE90001082000F072
:103250008BFA05226946302000F046F905226946BE
:10326000102000F07DF8002069460A5CA52A03D1F1
:10327000401CC0B20528F8D3052801D001201CBD90
:1032800000201CBDA5A5A5A5A500000038B51548C2
:10329000816941F004018161806900F004000090BF
:1032A00000F0A2F800224FF400410F48FEF703F8A7
:1032B000012202210D48FDF7FEFF0DA000F096FD52
:1032C0004FF47A7405E016A000F090FD2046FDF75B
:1032D000EBFEFFF7B5FF0028F5D1BDE8384018A098
:1032E00000F084BD0010024000100140000C0140BD
:1032F000D5E2CAC7D2BBB8F64E524632344C303152
:1033000020322E3447CEDECFDFCAFDBEDDB4ABCADD
:10331000E4C4A3BFE9B2E2CAD4CAB5D1E90D0A0038
:10332000D3B2BCFEB2E9D1B0B2BBB5BD4E5246324B
:10333000344C3031CEDECFDFC4A3BFE90D0A00002C
:103340004E524632344C3031CEDECFDFC4A3BFE91B
:10335000D3B2BCFEC1ACBDD3D5FDB3A30D0A0000F2
:103360002DE9F041DFF8408015460F460446002263
:1033700002214046FDF79FFF21460C4800F07AFAF3
:103380000646002406E0FF21084800F073FA38558D
:10339000641CE4B2AC42F6D3012202214046FDF7A0
:1033A0008AFF3046BDE8F081000C0140BC020020DD
:1033B00070B50B4D0446002202212846FDF77BFF25
:1033C0002146084800F056FAFF21064800F052FA5C
:1033D0000446012202212846FDF76DFF204670BDFC
:1033E000000C0140BC02002010B5094C20680168A7
:1033F00021F0400101600020206160612046FEF75D
:1034000087FC2068016841F04001016010BD0000A8
:10341000BC02002070B51A4D4FF400440022214632
:103420002846FDF748FF05221649302000F05CF8D9
:1034300014490522491D2A2000F056F801212120B7
:1034400000F07CF80121222000F078F8FF212420F0
:1034500000F074F82821252000F070F80F212620B4
:1034600000F06CF80E21202000F068F801222146BF
:103470002846FDF720FFBDE870400120FDF714BE8F
:10348000001001406C51000870B50446102000F097
:103490006BF9144E4FF40045002229463046FDF7E3
:1034A0000AFF20222146A02000F01EF80122294612
:1034B0003046FDF700FF0720FFF77AFF044601467C
:1034C000272000F03BF8E00605D5FF21E12000F0C1
:1034D00035F8102070BDA00601D5202070BDFF205A
:1034E00070BD0000001001402DE9F041DFF844807C
:1034F00016460D460446002202214046FDF7DBFE3B
:1035000021460D4800F0B6F90746002407E000BF49
:1035100015F8011B084800F0ADF9641CE4B2B44290
:10352000F6D3012202214046FDF7C5FE3846BDE82C
:10353000F0810000000C0140BC02002070B50C4D71
:103540000E460446002202212846FDF7B4FE21461D
:10355000084800F08FF904463146064800F08AF921
:10356000012202212846FDF7A6FE204670BD00007C
:10357000000C0140BC0200202DE9FE4F1020324912
:10358000CDE9001000244FF6E07633464FF4FC629C
:1035900002940521192000F069FA2B480C25E13826
:1035A000CDE9000533461F2273210294052000F067
:1035B0005DFA25483346E638CDE900051F22732120
:1035C00002946E2000F052FA1F4C204FDFF88080EA
:1035D000DFF880B00225DFF88090FA3C4FF0140A43
:1035E0003878012804D098F80010012906D00FE09F
:1035F0003D703046BDE8FE4FFFF71EB988F8005019
:10360000A068584504DA4FF07C51FCF7BFFDA0607C
:1036100099F8001001290AD189F800500F49A068D3
:10362000884204DB4FF07C51FCF702FEA060CDF82D
:1036300000A003233C212820A268FFF761FB14208F
:10364000FDF732FDCCE700000E0100207E010020D6
:10365000800100200000F04181010020A800003F0F
:10366000704700002DE9FE4F10203649CDE90010CB
:1036700000244FF6E07633464FF4FC6202940521B5
:103680000F2000F0F3F92F480C25FF38CDE9000595
:1036900033461F2273210294052000F0E7F92A48DF
:1036A000CDE9000533461F22732102946E2000F0FD
:1036B000DDF9254C254FDFF898800225DFF894903E
:1036C000DFF894A0DFF894B0143C3878012804D0D7
:1036D00098F80010012906D014E03D703046BDE88E
:1036E000FE4FFFF7A9B888F800501D4920698842AD
:1036F00008DAFCF790FE52465B46FCF7D1FDFCF77A
:103700009DFE206199F8001001290ED189F8005022
:1037100014492069884208DDFCF77DFE52465B466D
:10372000FCF75FFEFCF78AFE206114200090052361
:103730003C2128202269FFF7E3FA1420FDF7B4FCAE
:10374000C3E700002C010020280000207E0100209B
:1037500080010020810100209A9999999999B93F97
:103760000000404053CDCC3D0B4910B50A681368AA
:1037700023F0400313600A6813684FF6C7742340B0
:1037800013600A681368034313600868016841F016
:103790004001016010BD0000BC02002038B50B469E
:1037A000009204460022802100F008F8002804D08E
:1037B000606D40F020006065032038BD2DE9F843BE
:1037C0001E46914688460446089DFDF779FD401B3C
:1037D000351AFDF775FD074625480068C0F3CB3064
:1037E000684338E0701C37D0FDF76AFDC01BA84263
:1037F00003D215B1009860B32CE02068416821F035
:10380000E00141606068B0F5827F0BD1A068B0F53F
:10381000004F02D0B0F5806F04D12068016821F01C
:1038200040010160A06AB0F5005F09D1206801681D
:1038300021F4005101602068016841F400510160E9
:10384000012084F85100002084F850000320BDE8D6
:10385000F8830025401E00902068816838EA010046
:1038600004D000214945BDD10020F0E70121F9E74E
:10387000100000203EB5FF248DF80810012301AA96
:1038800002A90094FEF7ADFB08B18DF804409DF845
:1038900004003EBD704700002DE9FE4F6D4D002431
:1038A00023466C704FF6E07105F12202687822F829
:1038B0001010401CC0B268700328F7D3DFF8948161
:1038C000102008F1220808F12A02A8F80030CDE9FA
:1038D00000209B461E464FF6E07902934B461F227E
:1038E0000521282000F0C2F80C2708F1D800CDE906
:1038F00000070296B8F800301F2228211E2000F091
:10390000B5F808F1E700CDE900070296B8F80230F3
:103910001F2237211E2000F0A9F808F1F600CDE99A
:1039200000070296B8F804301F2246211E2000F03E
:103930009DF8A8F10900CDE900074B461F2273212D
:103940000296052000F092F8A8F10E00CDE90007DC
:103950004B461F22732102966E2000F087F8DFF895
:10396000F880DFF8F8A03E4FDFF8F890022600BF9D
:1039700098F80010012906D114B1641EE4B200E0E9
:10398000032488F800609AF80010012906D1032C5E
:1039900018D0641C5FFA84F48AF800603878012833
:1039A00012D099F80000012816D02A4A594685F805
:1039B00001B04FF6E07322326878A04214D122F8A9
:1039C000101013E00024E7E74FF6E070FEF734FF35
:1039D0003E702046BDE8FE8F4FF6E070FEF72CFFEC
:1039E00089F800600420F5E722F81030401CC0B2CE
:1039F00068700428E0D3174B8B46FA330C21CDE9CD
:103A00000031A3F1D800CDF808B003881F22282187
:103A10001E2000F02BF8144A0C21CDE90021A2F160
:103A2000E700CDF808B043881F2237211E2000F0A0
:103A30001DF80D4A0C210F32CDE90021A2F1F6004C
:103A4000CDF808B083881F2246211E2000F00EF812
:103A50008EE700001400002080010020810100207A
:103A60007F0100207E0100201D0100202DE9FF4F75
:103A700083B0884610A9044691E8600481462878FE
:103A80002C4F9B46002852D03888A0EB5601A1420B
:103A90004DDB79888A1B424549DB2978802915D975
:103AA000801BA04243DB424541DB202E33D0CDE9D1
:103AB000005A059A182E5B464146204634D0FCF742
:103AC000ADFEA01984B215F8020FDBE70D290DD069
:103AD000102E12D910228DE806045B46414620467E
:103AE000059AFFF747F80834A4B211E008EB060086
:103AF0001FFA80F84C466D1C0AE08DE842045B46D4
:103B000041462046059AFFF735F804EB560084B28B
:103B100015F8010FB6E7CDE9005A5B46414620464D
:103B2000059AFCF769FFCCE7FCF7EEFEC9E707B0A2
:103B3000BDE8F08F7E040020704730B593B0282197
:103B40006846FCF718FB14210AA8FCF714FB0025B3
:103B500001200F9510951195010412958DE8230011
:103B600004904FF4E010CDE9081002240794684651
:103B7000FDF73EFF08B172B6FEE70AA90F2081E803
:103B800031004FF48060CDE90D0502210AA8FDF750
:103B900033FE08B172B6FEE74FF4004011900F9467
:103BA0000FA8FDF7B3FD002801D072B6FEE713B0F1
:103BB00030BD70470148FEF726BC0000EC03002032
:103BC00010B50548FEF71FFC04480188491C018018
:103BD000BDE8104000F03EBB1403002000000020B0
:103BE000F0B50268164B174C174D4FF080479842BE
:103BF00005D0B84203D0A04201D0A84203D122F0A0
:103C000070064A683243984205D0B84203D0A042B9
:103C100001D0A84203D122F44074CA6822434C69FF
:103C200022F08002224302608A68C2620A688262CD
:103C3000984201D10969016301214161F0BD000091
:103C4000002C0140000400400008004010B58468CA
:103C500042EA032224F47F440A432243826010BDD7
:103C6000826822F070020A4342F0070181607047C7
:103C700010B5036A046A24F001040462846924F024
:103C8000F00444EA021423F00A020A438461026247
:103C900010BD10B5036A046A24F01004046284693C
:103CA00023F0A00324F4704444EA023243EA0111F1
:103CB0008261016210BD000070B5044600680169B0
:103CC000E26821F44051114301612169A068084371
:103CD000616908432168CA6841F20C639A43024350
:103CE000CA6020684169A26921F4407111434161B1
:103CF0001E492068884202D1FDF744FE01E0FDF72D
:103D000031FE00EBC00101EB00126068642180000D
:103D1000B2FBF0F3B3FBF1F36FF018067343B2FBA1
:103D2000F0F5B2FBF0F605EB8305322303EB051546
:103D3000B5FBF1F5B6FBF1F605F0F00505EB061560
:103D4000B2FBF0F6B2FBF0F0B0FBF1F06FF018024E
:103D5000504306EB800003EB0010B0FBF1F021684C
:103D600000F00F002844886070BD0000003801405A
:103D70002DE9F041984617460E460446069D27E079
:103D8000681C25D02DB1FDF79BFAA0EB0800A842D6
:103D90001ED920680C3050E8001F21F4D07140E893
:103DA0000012002AF5D12068143050E8001F21F0DD
:103DB000010140E80012002AF5D1202084F84100DA
:103DC00084F84200002084F840000320BDE8F08120
:103DD0002068006836EA000004D00020B842CFD046
:103DE0000020F3E70120F9E7FEE70000014A02495D
:103DF00000F023B8553F0008880100200907090E8C
:103E0000002804DB00F1E02080F80014704700F087
:103E10000F0000F1E02080F8141D704702E008C890
:103E2000121F08C1002AFAD170477047002001E034
:103E300001C1121F002AFBD170472DE9F04116463F
:103E40000F460446002503E03946B047641C6D1C4C
:103E500020780028F8D12846BDE8F0812DE9F0410E
:103E6000264F08213846FDF721FA0125244C00266B
:103E700008B1207828B108213846FDF717FA10B1AB
:103E800005E0257003E02078022800D1267010217B
:103E90003846FDF70BFA08B1607828B11021384692
:103EA000FDF704FA10B105E0657003E060780228C0
:103EB00000D1667013484088B0F57A6F01D9E17877
:103EC00039B140F6C411884206D2E178022902D005
:103ED00002E0E57000E0E670B0F57A7F01D2A178EB
:103EE00049B140F2DC51884203D9A078022800D1C0
:103EF000A670BDE8F081A570FBE70000000C014052
:103F00007E0100204004002070B5104D104C0226A8
:103F10002978A078012904D040B109D0401EA070B2
:103F200011E028B91420A0702E700CE001290AD1EC
:103F3000012808D94FF6E070FEF77EFC2E700020B5
:103F4000A070012070BD002070BD00007E01002027
:103F50001400002013B5FF23012269460248FEF732
:103F60009BFB00981CBD0000A4030020FDF7C6FACF
:103F7000FFF7E3FDFFF700F8FEF7D8FFFFF76CF857
:103F8000FFF78AF8FFF7A8F8FFF7CAF8FFF71EF95E
:103F9000FFF738F9FFF7E6F81948FCF7CDFDFFF712
:103FA00075F9FFF737FA00F03FF91648FEF790F978
:103FB000154D164C00F02CF8207008B900F0FEF9F1
:103FC0002078012801D100F083F92078022807D158
:103FD000FFF762FC287048B101280AD002280BD0F4
:103FE00020780328E6D1FCF7BFFBE3E7FFF7C4FA2C
:103FF000EEE7FEF79FFBEBE7FFF734FBE8E7000097
:104000008C010020140300207D0100207C01002091
:104010002DE9FE4F7C4900247D4D8C727B49204662
:104020004FF6E0720C802C708846297808EB41032B
:10403000491CC9B25A8029700329F6D3064674492F
:10404000834618202A31CDE900104FF6E0794B461F
:104050004FF4FC62029605212820FFF707FD6C480B
:104060000C273430CDE90007DFF8A08102961F222B
:10407000B8F8003019211E20FFF7F8FC64480296BA
:104080004030CDE90007B8F802301F2228211E2059
:10409000FFF7ECFC5E4802964C30CDE90007B8F81B
:1040A00004301F2237211E20FFF7E0FC58480296FB
:1040B0005B30CDE90007B8F806301F2246211E20EC
:1040C000FFF7D4FC52484B461930CDE900071F22B8
:1040D000732102960520FFF7C9FC4D484B4614306A
:1040E000CDE900071F22732102966E20FFF7BEFC68
:1040F000484A58212D20FCF7F5FCDFF81C81DFF839
:104100001CA1474FDFF81C91022600BF98F8001051
:10411000012906D114B1641EE4B200E0032488F83A
:1041200000609AF80010012906D1032C17D0641CF6
:104130005FFA84F48AF800603878012811D099F881
:104140000000012815D0314A594685F800B04FF6D5
:10415000E0732878A04214D122F8101013E0002454
:10416000E8E74FF6E070FEF767FB3E702046BDE8DB
:10417000FE8F4FF6E070FEF75FFB89F800600420C9
:10418000F5E722F81030401CC0B228700428E0D3B4
:104190008B461F4B0C213433CDE900311B48CDF841
:1041A00008B01F22038819211E20FFF75FFC184A60
:1041B0000C214032CDE900211448CDF808B01F226F
:1041C000438828211E20FFF751FC114A0C214C3254
:1041D000CDE900210D48CDF808B01F228388372192
:1041E0001E20FFF743FC0A480C225B308DE80508CF
:1041F00006481F224621C3881E20FFF737FC3220C5
:10420000FCF752FF82E70000400400203404002045
:1042100014000020B044000880010020810100202B
:104220007F0100207E01002010B5FEF73BFB4FF41C
:10423000FA70FCF739FFBDE810404FF6E070FEF76A
:10424000FBBA0246012000E05043491EC9B2FBD22E
:10425000704700002DE9F0410020FCF769FA1A4C84
:1042600020800120FCF764FA60800420FCF760FAEB
:10427000A0800620FCF75CFAE080FFF7EFFD134F0B
:1042800020213846FDF712F801250026012817D015
:1042900084F808604FF480713846FDF707F801286C
:1042A00010D066725120084920761C2201F11C00B2
:1042B000FBF748FFBDE8F04103481C30FFF7E4B8C6
:1042C0002572E7E76572EDE740040020000C01402D
:1042D0002DE9FE4FDFF8DCB0374F4FF0180A4FF4EE
:1042E000FA7900244FF6E0754FF010082846FEF7E3
:1042F000A3FACDF800B0CDE901A44FF4FC662B463B
:10430000324605211420FFF7B1FB2A490C20B739AA
:10431000CDE900102B463246029473210420FFF7AA
:10432000A5FB78884FF47A66B0420CD921492B4618
:104330002839CDE900181F2202945A211E20FFF7C8
:1043400095FB04200FE048450CD21A492B46323920
:10435000CDE900181F22029428211E20FFF786FBBA
:10436000022000E00320B8723888B0420AD911490F
:104370002B460F39CDE900181F220294402103205B
:10438000FFF774FB388848450AD20A492B461E3984
:10439000CDE900181F22029440212820FFF766FB78
:1043A000FFF7B2FD012803D0C820FCF77DFE9DE792
:1043B000BDE8FE8F7201002040040020FEB50C25F0
:1043C0003948CDE9000500244FF6E07633461F2238
:1043D000192102940520FFF749FB334833460C307E
:1043E000CDE900051F22302102940520FFF73EFB96
:1043F0002D4833461830CDE900051F22472102948D
:104400000520FFF733FB284833462430CDE900056B
:104410001F225E2102940520FFF728FB2248334625
:104420002E30CDE900054FF4FC6502942A46732135
:104430000420FFF71BFB1C4918200F39CDE90010A1
:1044400033462A46029405211420FFF70FFB174C30
:1044500001201425A07200952288042319214620EA
:10446000FEF70CFC009560880423C0F580523021D3
:104470004620FEF703FC0095A2880423472146202E
:10448000FEF7FCFB0095E0880423C0F580525E2116
:104490004620FEF7F3FBFFF737FD012803D0142079
:1044A000FCF702FED7E7FEBD8D000020400400208F
:1044B000FFFFFFFFFFFFFFFFFFFFFFFFFFFFFFFF0C
:1044C000FFFFFFFFFFFFFFFFFFFFFFFFFFFFBEF745
:1044D000FFFFDEFF38C6928C8E6B6E6B107C96AD44
:1044E0003CE7FFFFFFFFFFFFFFFFFFFFFFFFFFFFB7
:1044F000FFFFFFFFFFFFFFFFFFFFFFFFFFFFFFFFCC
:10450000FFFFFFFFFFFFFFFFFFFFFFFFFFFFFFFFBB
:10451000FFFFFFFFFFFFFFFFFFFFFFFFFFFF5DEF5D
:10452000159D4F636C420A32882946192519452189
:10453000E8318E6B38C6FFFFFFFFFFFFFFFFFFFF75
:10454000FFFFFFFFFFFFFFFFFFFFFFFFFFFFFFFF7B
:10455000FFFFFFFFFFFFFFFFFFFFFFFFFFFFFFFF6B
:10456000FFFFFFFFFFFFFFFFFFFFFFFF36A5105319
:10457000104B51530F4B6C3AE93167212519E41068
:10458000A30862008308CB529AD6FFFFFFFFFFFF0C
:10459000FFFFFFFFFFFFFFFFFFFFFFFFFFFFFFFF2B
:1045A000FFFFFFFFFFFFFFFFFFFFFFFFFFFFFFFF1B
:1045B000FFFFFFFFFFFFFFFF3CE77063B363B87CC3
:1045C000F56311434D32EA29882126190519051989
:1045D00004110411E4108300A308728CFFFFFFFF95
:1045E000FFFFFFFFFFFFFFFFFFFFFFFFFFFFFFFFDB
:1045F000FFFFFFFFFFFFFFFFFFFFFFFFFFFFFFFFCB
:10460000FFFFFFFFFFFFDBDE4B3AF042356C544B00
:10461000B1322E2AEB21A9216719051904110411C1
:104620000411041104110519E4104200AF73FFFFD7
:10463000FFFFFFFFFFFFFFFFFFFFFFFFFFFFFFFF8A
:10464000FFFFFFFFFFFFFFFFFFFFFFFFFFFFFFFF7A
:10465000FFFFFFFF5DEF09324C32104B8F324F2AC4
:104660002E2ACC1989198921471905190411041119
:10467000C410C410041104110411E4104200318468
:10468000FFFFFFFFFFFFFFFFFFFFFFFFFFFFFFFF3A
:10469000FFFFFFFFFFFFFFFFFFFFFFFFFFFFFFFF2A
:1046A000FFFFFFFFEC5247194C320B2AEC21EC21A3
:1046B0000C22915BEE4A061126190419E410E4104D
:1046C000A7296621A308051904110411E41082002A
:1046D000F7BDFFFFFFFFFFFFFFFFFFFFFFFFFFFF34
:1046E000FFFFFFFFFFFFFFFFFFFFFFFFFFFFFFFFDA
:1046F000FFFF35A58308882188218921AA218A21E5
:104700006B42718CFFFF728C83080411C40829422C
:10471000FBDE5DEFEC5A83080411041104118308D9
:10472000E831DFFFFFFFFFFFFFFFFFFFFFFFFFFF9E
:10473000FFFFFFFFFFFFFFFFFFFFFFFFFFFFFFFF89
:10474000BEF7C731C4102519261947194719A829DA
:104750008A52284A55ADFFFFE831A30805194D6B71
:104760004D6BFFFF7DEF4521C410041104110411AE
:10477000620076ADFFFFFFFFFFFFFFFFFFFFFFFFC0
:10478000FFFFFFFFFFFFFFFFFFFFFFFFFFFFFFFF39
:1047900096B562000411041905110519C4088B4A65
:1047A000B6B55DEFF7BDFFFF8E6B62002942AA5AD6
:1047B0000842FFFFFFFFCC528308041104110411CB
:1047C000A308AD52FFFFFFFFFFFFFFFFFFFFFFFF4B
:1047D000FFFFFFFFFFFF1CE7FFFFFFFFFFFFFFFFE4
:1047E0004E636200041104110411E41062008E6330
:1047F000FFFFFFFFFFFFFFFFCF730100F39C2C6360
:1048000096B5FFFFFFFF2D5B830004110411041117
:10481000E41067213DEFFFFFFFFFFFFFFFFFFFFFFA
:10482000F8BDB7B59EEFCB52B394FFFFFFFFDFFF9C
:10483000E831A3080411041104110411A30849422A
:10484000FFF7FFF7FFFFFFFF6A4A01007284FFFFD7
:10485000FFFFFFF7DFEF093AA30804110411041169
:104860000411051118BEFFFFFFFFFFFFFFFFFFFF51
:10487000F07B6200E831C731410035A5FFFF5DEFF5
:104880004621C4100411041104110411E410A308FA
:10489000769DFFF7FFFFB7ADA308A308C7319EE7DA
:1048A000FFF7FFF776A5A308E41004110411041123
:1048B0000511051135A5FFFFFFFFFFFFFFFFFFFFFC
:1048C000DBDEA7298300C410C410C4101CE79EEFD0
:1048D0000511E41004110411041104110419C40891
:1048E000E510D16BD16BC5086400A50843002B32DD
:1048F000779DB3842519C410041104110411041107
:1049000025192609359DFFFFFFFFFFFFFFFFFFFF72
:10491000FFFFAF7362000419051982000D5B8E9BC7
:1049200062100511041104110419E4108500051129
:10493000C439815A407B229C43AC03A4839B82727E
:104940008249C218A400C500E41004190411051915
:1049500047196711EC5ABEFFFFFFFFFFFFFFFFFF84
:10496000DFFFDBDEC410E41004110511A41801C040
:104970008388E40005190419C5084421438323D51D
:1049800042FEE4FE27FF07FFA4FE64FE03FEA3FD34
:10499000E2FC42EC83B32462E510C4080419261932
:1049A000A81987210090D3BCFFFFFFFFFFFFFFFF87
:1049B000DFFFFFFF107C420005190511832801D09D
:1049C00044F8A348E400C508445A02EDE2FD02FEA3
:1049D00066FE74FFB8FF73FFE7F6A6F645F6A4F58A
:1049E000C3FC62FCC2FCC2FCE3CBC44906118819BB
:1049F0008701A49001F8EC9AFFFFFFFFFFFFFFFF84
:104A0000FFFFFFFFBEF7E83183000509824001C0C8
:104A100023F885F0A348A400445A02FD23CCC2DC4D
:104A200004FE28FE48F646F624F6E4F564FDE3FCB1
:104A300062FCC2FC02E402DCE2FCA47A48016701E9
:104A4000C47824F802F884B07DE7FFFFFFFFFFFF82
:104A5000FFFFFFFFFFFFDBDE2519A300C43802E0E4
:104A600022D844F8A6F8A4786300432183728339DE
:104A7000829B21F561FD22FDE2FCA2FC42FC42FC8E
:104A800042FC22AB8341C392045226012519A4980B
:104A900044F823F802F8A4D09EEFFFFFFFFFFFFFCA
:104AA000FFFFFFFFFFFFFFFF9AD68729A50043B84E
:104AB00022F823E065F8E8F807C983484200A3001C
:104AC00084006329A27A62B3A2CB62D302BB828A3A
:104AD0008339A400E500E500E508C46064D844F823
:104AE00024F823F802F88388DBC6FFFFFFFFFFFFEF
:104AF000FFFFFFFFFFFFFFFFFFFF3DE7505B0831B8
:104B000023E843F844F065F809F9ABF989D106893F
:104B1000A348421802004200610082006200620065
:104B20008300A320C450A58885D865F844F844F8CC
:104B300023F823F803D08210C7295DEFFFFFFFFFA2
:104B4000FFFFFFFFFFFFFFFFFFFFFFFFFFFF6C32D5
:104B5000A53802D823F865F866F8A7F84AF90CFAE0
:104B60004DFA4CEA0BD2A9B968B147A927B107B9E8
:104B700007D1E7E8C7F8A7F865F865F844F823F81F
:104B800003F802D0A3280509C408EC5AFFFFFFFF71
:104B9000FFFFFFFFFFFFFFFFFFFFFFFFFBDE05192A
:104BA000C400A741E6C003F886F8A7F887F886F89E
:104BB000C7F829F98AF9ABF9ABF98BF96AF929F940
:104BC00008F9C7F8A6F886F865F864F823F802F043
:104BD00006B12529E400E41025192519149DFFFFCD
:104BE000FFFFFFFFFFFFFFFFFFFFFFFF96AD62002C
:104BF00082083595BACE8BA244D025F887F8A7F85D
:104C0000C7F8A7F887F886F886F886F887F8A7F82F
:104C1000A7F8A6F885F865F864F824F064B80D9351
:104C2000BBB6CF6383080411E4106621493A5DEFF7
:104C3000FFFFFFFFFFFFFFFFFFFFFFFFD3944200D7
:104C4000E410BBCEFFFFBEE776B5CCAA07C145E0B6
:104C500045F846F866F886F886F886F886F865F826
:104C600045F865F865E844D043A8018882903CD7B0
:104C7000FFEF559583080411041105194619B394E3
:104C8000FFFFFFFFFFFFFFFFFFFFFFFFB3944100A8
:104C900086215DDFFFFFFFFFFFFFDFE77AC6D3B4AA
:104CA0004EB32AC268D1E6E0A6E8A5E8A5E8E6D8B2
:104CB00088C906A922A802A800A000C800D8F7E564
:104CC000FFE7F8ADC410E4100411E41005118B4A9D
:104CD000FFFFFFFFFFFFFFFFFFFFFFFF55A54100A5
:104CE000A7295DDFFFF7FFFFFFFFFFFFFFFFFFFFCC
:104CF000FFEF7DDFDBCE59CEF8CDD7CDF7C579CE2E
:104D0000FBBEABA203F045F842D043E800F072D4FA
:104D1000FFDF39AEE410E4100411E4100511872917
:104D2000FFFFFFFFFFFFFFFFFFFFFFFF59CE8308DD
:104D300046211CD7FFF7FFFFFFFFFFFFFFFFFFFF2D
:104D4000FFFFFFFFFFFFFFFFFFFFFFFFFFFFFFFF73
:104D5000FFEF8BBA04F845F862E044F000F88EDB10
:104D6000FFDFF8A5C410E410E4100411E4102519C5
:104D7000FFFFFFFFFFFFFFFFFFFFFFFFBEF78729DA
:104D8000830839B6FFF7DFF7FFFFFFFFFFFFFFFFE5
:104D9000FFFFFFFFFFFFFFFFFFFFFFFFFFFFFFFF23
:104DA000BEE74ABA03F845F864F844F800F86EE341
:104DB000FFD7F48C83080411E410E410E410051903
:104DC000FFFFFFFFFFFFFFFFFFFFFFFFFFFFEF738F
:104DD00000007284FFEFBEEFDFFFFFFFFFFFFFFF6A
:104DE000FFFFFFFFFFFFFFFFFFFFFFFFFFFFFFFFD3
:104DF000DFE78BBA03F845F845F823F800F8D3D479
:104E0000FFD74E5B2100293A55A58308C410251908
:104E1000FFFFFFFFFFFFFFFFFFFFFFFFFFFFFBDEC7
:104E2000A308E8319EDF9EE7BFEFFFFFFFFFFFFF14
:104E3000FFFFFFFFFFFFFFFFFFFFFFFFFFFFFFFF82
:104E4000FFF751BC02E003F803F043E0ECC27ECF71
:104E5000FCBE46212100D394FFFF51840000872926
:104E6000FFFFFFFFFFFFFFFFFFFFFFFFFFFFFFFF52
:104E700051840000F48CFFEF9EE7BFEFDFFFFFFFE0
:104E8000FFFFFFFFFFFFFFFFFFFFFFFFFFFFFFFF32
:104E9000FFFF3DDF55BD52BC72BCB7B55DC7FFDF3C
:104EA000F06B0000093ABFF7FFFFFFFF149D55A507
:104EB000FFFFFFFFFFFFFFFFFFFFFFFFFFFFFFFF02
:104EC000FFFFAC4AA408BBBEDFE77EE7BEEFDFF71B
:104ED000DFFFFFFFFFFFFFFFFFFFFFFFFFFFFFFF02
:104EE000DFFFDFF7FFEFDFDFBFD79ED7DFDFD8A51C
:104EF00083082611DBD6FFFFFFFFFFFFFFFFFFFF49
:104F0000FFFFFFFFFFFFFFFFFFFFFFFFFFFFFFFFB1
:104F100079EE8BDC2131A9213DCFBFDF7EDF9EE71B
:104F2000BEEFBFEFDFF7DFF7DFF7DFF7DFF7BFEF4A
:104F3000BEEF9EE77EDF5ED75ED7DFDF9AB626192B
:104F40004208EDA3BFFFFFFFFFFFFFFFFFFFFFFFD3
:104F5000FFFFFFFFFFFFFFFFFFFFFFFFFFFF74DD0E
:104F6000C0DB00FE42EE024289217BB6DFDF7ED746
:104F70007EDF7EDF9EE79EE79EE79EE79EE77EDF81
:104F80007EDF5DD75DD79EDFFFE7F8A50711E31849
:104F900002C560FDE6D3DBEEFFFFFFFFFFFFFFFF73
:104FA000FFFFFFFFFFFFFFFFFFFFFFFF9EF784BA3A
:104FB000C1FC42FE82FEA2FE8183452174745EC75D
:104FC000DFDF7ED75ED75DD75ED75ED75DD75DD793
:104FD0005ED79EDFFFE73DC7F1638408425226E6B5
:104FE00029FF86FEE0F36AC3FFFFFFFFFFFFFFFF1D
:104FF000FFFFFFFFFFFFFFFFFFFFFFFF18DEC1D234
:10500000A2FD22FE42FE42FE62FEE2D4416A494215
:1050100053743BA63EC7BFD7BFD7BFD7BFDFBFD7ED
:105020003EC71AA6F263A729824122B462FE83FE1C
:10503000AAFE0FFF67FD63BA3CEFFFFFFFFFFFFF14
:10504000FFFFFFFFFFFFFFFFFFFFFFFF9AE680D29A
:1050500021FDC2FDE2F5C2F582F582FD62FD61DC53
:10506000219B846AE96A2C63AF6311746E632C63BD
:10507000895A0452817AC2CBE2FC62FD82FDC2FDF4
:10508000C2FDE4FD24FD62CA1CE7FFFFFFFFFFFF36
:10509000FFFFFFFFFFFFFFFFFFFFFFFFFFFFB1CCA1
:1050A00081D2C0F3C1FC02FD02FDE2FCC2FCC2FCE5
:1050B00081FC80FBC0C9A48135AD59CE719C218192
:1050C00000DAA1FB82FCA2FC82FCA2FC02FD22FD14
:1050D000E2FC00FC60DA90CCFFFFFFFFFFFFFFFF68
:1050E000FFFFFFFFFFFFFFFFFFFFFFFFFFFFFFFFD0
:1050F00059DE0DC406CBE4D203DB03DBE3DAC3D213
:10510000A4C209B3D2BC9EF7FFFFFFFFFFFFFBE67F
:105110000EB4A6BA83D2E3E202EB22EB22E303DB76
:10512000E4D26AC3B6D5FFFFFFFFFFFFFFFFFFFF1B
:10513000010202030405060708090A0B0C0D0E0FF5
:105140001010010202030405060708090A0B0C0DE2
:105150000E0F101000000000000000000102030408
:105160000607080900000000010203043443101080
:105170000134431010010000000000000000000096
:1051800000000000040404040404000400000014EF
:105190000A0A0000000000000000000014143F1480
:1051A0000A3F0A0A000000041E1505060C14150F1C
:1051B0000400000012150D0A142C2A120000000031
:1051C000040A0A1E1515093600000002020100003B
:1051D000000000000000002010080808080808105F
:1051E0002000000204080808080808040200000063
:1051F0000004150E0E150400000000000404041F36
:105200000404040000000000000000000000000290
:10521000020100000000001F00000000000000006C
:105220000000000000000002000000100808080450
:1052300004020202010000000E1111111111110EE1
:1052400000000000040604040404040E0000000032
:105250000E1111080402011F000000000E11100CB5
:105260001010110E00000000080C0A0A091E081890
:10527000000000001F01010F1010110E00000000BF
:105280000E09010F1111110E000000001F09080482
:1052900004040404000000000E11110E1111110E7F
:1052A000000000000E1111111E10120E000000006F
:1052B00000000400000000040000000000000004E2
:1052C000000000040400002010080402040810205C
:1052D0000000000000001F00001F0000000000028E
:1052E0000408102010080402000000000E1111082C
:1052F00004040004000000000E111915151D011E04
:105300000000000004040C0A0A1E12330000000012
:105310000F12120E1212120F000000001E110101D6
:105320000101110E000000000F1212121212120FD2
:10533000000000001F120A0E0A02121F00000000E7
:105340001F120A0E0A020207000000001C120101CF
:105350003911120C000000003312121E1212123307
:10536000000000001F0404040404041F00000000E7
:105370003E080808080808090700000037120A0656
:105380000A0A123700000000070202020202223F4E
:10539000000000001B1B1B1B15151515000000004D
:1053A0003B1216161A1A1217000000000E111111E6
:1053B0001111110E000000000F12120E020202075E
:1053C000000000000E1111111117190E1800000035
:1053D0000F12120E0A121237000000001E110106F1
:1053E0000810110F000000001F1504040404040E2F
:1053F00000000000331212121212120C0000000002
:105400003312120A0A0C0404000000001515150ED0
:105410000A0A0A0A000000001B0A0A04040A0A1BFE
:10542000000000001B0A0A040404040E000000002F
:105430001F0908040402121F0000001C04040404D5
:10544000040404041C0000020202040408080810FA
:105450000000000E08080808080808080E000004EC
:105460000A00000000000000000000000000000032
:1054700000000000003F00040000000000000000E9
:10548000000000000000000C121C123C0000000094
:105490000302020E1212120E000000000000001C97
:1054A0001202021C000000001810101C1212123C04
:1054B000000000000000000C121E021C0000000092
:1054C0003804041E0404041E000000000000003C18
:1054D000120C021E221C00000302020E12121237CE
:1054E00000000000040000060404040E0000000098
:1054F0000800000C08080808080700000302023A28
:105500000A0E123700000000070404040404041FFC
:10551000000000000000000F151515150000000028
:105520000000000F12121237000000000000000CF3
:105530001212120C000000000000000F1212120ED6
:10554000020700000000001C1212121C103800009C
:105550000000001B06020207000000000000001E01
:10556000020C101E000000000004040E04040418C5
:10557000000000000000001B1212123C000000009E
:1055800000000037120A0C040000000000000015A3
:10559000150E0A0A000000000000001B0A040A1B86
:1055A0000000000000000037120A0C040403000091
:1055B0000000001E0804041E00000018080808046B
:1055C0000808080818000808080808080808080853
:1055D0000808000604040408040404040600022564
:1055E00018000000000000000000000000000000A3
:1055F0000000000000000000000000000008080893
:105600000808080800001818000000486C24120060
:10561000000000000000000000000000002424241E
:105620007F1212127F12121200000000081C2A2A98
:105630000A0C1828282A2A1C080800000022251510
:1056400015152A585454542200000000000C121260
:10565000120A76252911916E000000060604030047
:1056600000000000000000000000004020101008B2
:10567000080808080810102040000002040808105C
:1056800010101010100808040200000000000808A4
:105690006B1C1C6B080800000000000000000808DC
:1056A00008087F080808080000000000000000004B
:1056B00000000000000006060403000000000000D7
:1056C0000000FE00000000000000000000000000DC
:1056D000000000000000060600000000804040209E
:1056E00020101008080404020200000000182442E0
:1056F00042424242424224180000000000080E08C4
:10570000080808080808083E00000000003C424263
:10571000422020100804427E00000000003C42426B
:10572000201820404042221C0000000000203028A9
:10573000242422227E20207800000000007E020225
:10574000021A26404042221C0000000000382402B9
:10575000021A26424242241800000000007E222243
:10576000101008080808080800000000003C424229
:10577000422418244242423C000000000018244207
:10578000424264584040241C000000000000000019
:1057900018180000000018180000000000000000A9
:1057A000000800000000000808040000004020106D
:1057B000080402040810204000000000000000005F
:1057C0007F0000007F0000000000000000020408CD
:1057D000102040201008040200000000003C42425B
:1057E000464020101000181800000000001C225A2B
:1057F000555555552D42221C000000000008081880
:105800001414243C224242E700000000001F222220
:10581000221E22424242221F00000000007C42421F
:10582000010101010142221C00000000001F224270
:10583000424242424242221F00000000003F421208
:10584000121E12120242423F00000000003F4212AC
:10585000121E12120202020700000000003C222267
:10586000010101712122221C0000000000E74242D8
:1058700042427E42424242E700000000003E0808E9
:10588000080808080808083E00000000007C101006
:105890001010101010101010110F000000772212BD
:1058A0000A0E0A12122222770000000000070202EC
:1058B000020202020202427F000000000077363638
:1058C00036362A2A2A2A2A6B0000000000E34646C0
:1058D0004A4A52525262624700000000001C2241B4
:1058E000414141414141221C00000000003F424231
:1058F00042423E020202020700000000001C224158
:10590000414141414D53321C60000000003F424282
:10591000423E1212222242C700000000007C424296
:10592000020418204042423E00000000007F490867
:10593000080808080808081C0000000000E74242A8
:10594000424242424242423C0000000000E74242E2
:10595000222424141418080800000000006B494990
:1059600049495555362222220000000000E7422412
:1059700024181818242442E700000000007722228F
:10598000141408080808081C00000000007E2120EC
:10599000101008040442423F00000078080808087C
:1059A0000808080808080808780000000202040433
:1059B00008080810102020204040001E1010101071
:1059C00010101010101010101E00003844000000BD
:1059D00000000000000000000000000000000000C7
:1059E000000000000000000000FF000608000000AA
:1059F00000000000000000000000000000000000A7
:105A0000003C4278444242FC0000000000030202D5
:105A1000021A26424242261A00000000000000003E
:105A20000038440202024438000000000060404098
:105A300040784442424264D8000000000000000068
:105A4000003C427E0202423C0000000000F0880858
:105A5000087E08080808083E00000000000000005A
:105A6000007C22221C023C42423C00000003020255
:105A7000023A4642424242E700000000000C0C009D
:105A8000000E08080808083E000000000030300042
:105A90000038202020202020221E000000030202C7
:105AA0000272120A1612227700000000000E080887
:105AB000080808080808083E000000000000000070
:105AC000007F9292929292B70000000000000000C6
:105AD000003B4642424242E7000000000000000056
